S01B00006275696C642F6D61676F6E6F64652F6D61696E2E73726563AC
S11300000C9403020C94AB0D0C94D00D0C94F50DD0
S11300100C941A0E0C943F0E0C94640E0C94890EDE
S11300200C94AE0E0C9422020C9422020C94220224
S11300300C9422020C9422020C9422020C942202AC
S11300400C948C0D0C946E0D0C94780D0C94820D04
S11300500C944B0D0C9422020C9422020C94220258
S11300600C9422020C94920B0C9422020C94150C06
S11300700C9422020C9422020C9422020C9422026C
S11300800C9422020C9422020C9422020C9422025C
S11300900C942E0D0C9422020C94400D0C942733D6
S11300A00C9422020C9422020C9422020C9422023C
S11300B00C9422020C9422020C9422020C9422022C
S11300C00C9422020C9422020C9422020C9422021C
S11300D00C9422020C9422020C9422020C9422020C
S11300E00C9422020C9460190C9422020C948E1924
S11300F00C94BC190C94181A0C9422020C94EA194E
S11301000C94461A0C9495090C9433190C94CB094D
S11301100C9484090C9422020C9422020C94220262
S11301209B1E9D1EAF1EB91EC31E2C1F2C1F2C1FF1
S11301302C1F2C1F2C1F2C1F2C1FD71ECD1EE11E65
S1130140EB1EF41EFD1E061F0F1F8E1E1F1F211FF8
S11301502C1F231F1B1F251F271F291F1D1F752829
S11301608E289128C728FC2867282229302933297A
S11301705C2960296E299529B729C429C729CA2968
S1130180212A242A2F2A6F28572A652ABA2BB32C0E
S1130190C42CD52CE32CE62CE92CEC2CEF2CF22CE3
S11301A0F52C1B2D1E2DD52DD82DDB2DDE2DE12D6F
S11301B0E42DE72DEA2DED2DF02DF32DF62DF92D5F
S11301C0FC2D352E4D2F7C2E8F2EA22E2B302B3036
S11301D02B302B302B302B302B302B30C82EB52E20
S11301E0DB2EEE2E012F142F272F3A2F222E922FA3
S11301F0AA2F2B30C52F612FDD2FF42F0B307A2F30
S113020000002110422063308440A550C660E7708E
S1130210088129914AA16BB18CC1ADD1CEE1EFF136
S11302203112100273325222B5529442F772D662DE
S1130230399318837BB35AA3BDD39CC3FFF3DEE386
S11302406224433420040114E664C774A44485542E
S11302506AA54BB528850995EEE5CFF5ACC58DD5D6
S11302605336722611163006D776F6669556B4467E
S11302705BB77AA719973887DFF7FEE79DD7BCC726
S1130280C448E5588668A7784008611802282338CE
S1130290CCC9EDD98EE9AFF9488969990AA92BB976
S11302A0F55AD44AB77A966A711A500A333A122A1E
S11302B0FDDBDCCBBFFB9EEB799B588B3BBB1AABC6
S11302C0A66C877CE44CC55C222C033C600C411C6E
S11302D0AEED8FFDECCDCDDD2AAD0BBD688D499D16
S11302E0977EB66ED55EF44E133E322E511E700EBE
S11302F09FFFBEEFDDDFFCCF1BBF3AAF599F788F66
S11303008891A981CAB1EBA10CD12DC14EF16FE145
S11303108010A100C230E32004502540467067607D
S1130320B9839893FBA3DAB33DC31CD37FE35EF395
S1130330B1029012F322D2323542145277625672CD
S1130340EAB5CBA5A89589856EF54FE52CD50DC5E5
S1130350E234C324A014810466744764245405441D
S1130360DBA7FAB79987B8975FE77EF71DC73CD735
S1130370D326F2369106B01657667676154634566D
S11303804CD96DC90EF92FE9C899E9898AB9ABA985
S11303904458654806782768C018E1088238A328BD
S11303A07DCB5CDB3FEB1EFBF98BD89BBBAB9ABBD5
S11303B0754A545A376A167AF10AD01AB32A923A0D
S11303C02EFD0FED6CDD4DCDAABD8BADE89DC98D25
S11303D0267C076C645C454CA23C832CE01CC10C5D
S11303E01FEF3EFF5DCF7CDF9BAFBABFD98FF89F75
S11303F0176E367E554E745E932EB23ED10EF01EAD
S113040000020E060C0411241FBECFEFD1E4DEBFA0
S1130410CDBF17E0A0E0B2E0E2E5F3E700E00BBFF8
S113042002C007900D92A231B107D9F71FE0A2E1F3
S1130430B7E001C01D92AC34B107E1F70E945F3010
S11304400C94A8390C9400008FB7F8949927089558
S11304508FBF08952FB7F8943327EFEDF0E0808134
S11304608D7180832FBF8FEF8093BD0608952FB7C2
S1130470F8943327EFEDF0E080818E7180832FBFF5
S11304808FEF8093BD0608958FB7F8949927209134
S1130490BC002093430A8FBF08950E9444028091B8
S11304A0430A8E7F80698093430A8093BC00089539
S11304B0282F9FB7F894E82FFF27E95AF84F808137
S11304C08F3F81F4E091F00EE21771F40BC020939A
S11304D0190E04C0FF27E95AF84F20832093F00E29
S11304E020E007C025E005C08091190E8F3F91F7E9
S11304F0EECF892F99278FBF822F992708958DE0FA
S11305000E9458029927089581E00E945802992771
S1130510089583E10E9458029927089584E20E9475
S11305205802992708958DE20E9458029927089548
S11305308EE20E945802992708958FE20E94580281
S1130540992708958CE10E945802992708958DE116
S11305500E945802992708958FE10E945802992712
S113056008958EE10E9458029927089580E20E941E
S113057058029927089581E20E9458029927089504
S113058082E20E9458029927089583E20E94580249
S11305909927089585E20E94580299270895909119
S11305A0430A882311F0946001C09B7F9093430A0F
S11305B08FEF8093BD0608950F931F93082F142F78
S11305C090914207913001F582E080934207709345
S11305D08108609380083093A5072093A407409373
S11305E0450700930D0F10920E0E909343070E943F
S11305F044029091430A91689F7A9093430A202F72
S1130600332720FD09C00DC0992319F484E090E03C
S113061025C085E090E022C090629093430A84E074
S11306200AC0123020F4112359F022FF07C090644D
S11306309093430A83E0809342070AC01130D1F3B8
S113064021FF06C085E08093420790619093430A9E
S11306508091430A8093BC0080E090E01F910F9149
S113066008951F93CF93DF93982F8FB7F894282F73
S11306703327422F80914107882309F046C011E0B7
S1130680109341079093B60A2FBF8FB7F894C82FE1
S1130690DD27809142078823C9F4589A599A109209
S11306A0B90088E98093B8001092BA001092BC0097
S11306B00E94440281E00E94CF028091430A8E7F0F
S11306C08093430A8093BC0010934207CFBF8FB737
S11306D0F894C82FDD279C2F8091D706813099F498
S11306E080914107813021F481E30E94580209C0BE
S11306F0823049F48091B60A8093D70683E08093D0
S11307004107CFBF07C09FBF05C08091B60A8917B4
S113071021F42FBF80E090E021C0E92FFF27EC56A1
S1130720F74F80818F3F89F4E091D606E91789F469
S11307300CC09093D50604C0FF27EC56F74F908366
S11307409093D60680E090E002C085E090E04FBF31
S113075005C08091D5068F3F79F7EBCFDF91CF911C
S11307601F91089580E00E94310399270895AC01F8
S1130770E9E1F9E080E090E09C01858180FF05C01B
S1130780808191818417950741F0C90101963B96B8
S11307908A30910589F72FEF30E0C90108951F933E
S11307A01FB7F8948091E90E882341F487E00E94F2
S11307B05802882319F481E08093E90E812F992748
S11307C08FBF1F910895382FFA01422F2D3118F051
S11307D082E090E008956683872F99278583338785
S11307E0218780911E0790911F07892B19F085E0BE
S11307F090E008952FB7F894332785E0809321077C
S113080010922207F0931D07E0931C0782E090E00A
S113081090931F0780931E071092240710922307BA
S1130820445F409320072FBF8FB7F894282F3327B6
S113083080917B0A8A3011F42FBF19C02FBF9FB754
S1130840F8948091A708882311F020E006C081E085
S11308508093A7081092A80821E0892F99278FBFB9
S1130860222329F00E94CF0380E090E008951092A3
S11308701F0710921E0781E090E00895CF93DF9345
S1130880DB01FB0135968183892F9927EB018D8349
S113089084E686838091110990911209892B19F0BD
S11308A085E090E029C07093120960931109448394
S11308B08091C106882319F480E090E01DC08681F0
S11308C0EB016D817727762F662721813327622BF1
S11308D0732B1092C106242FAD010E94E3039927C4
S11308E0282F882339F081E08093C10610921209E1
S11308F010921109822F9927DF91CF9108954FB754
S1130900F89455272091E100622F2091E200722F84
S11309102091E300822F2091E400922F4FBF08958D
S11309200F931F930FB7F894109113090E947F043B
S11309309B01AC018091E00083FF05C01F5F0E9412
S11309407F049B01AC01802F99278FBF612F7727EC
S113095088279927FAE1660F771F881F991FFA9550
S1130960D1F7E6E05695479537952795EA95D1F75F
S1130970622B732B842B952B1F910F9108950E944A
S1130980B7038F3F19F481E090E00895282F3327AF
S11309908BE090E0289FF001299FF00D389FF00D27
S11309A01124E75EF64F85818860858380E090E0BE
S11309B008952F923F924F925F926F927F928F92FF
S11309C09F92AF92BF92CF92DF92EF92FF920F93DA
S11309D01F93CF93DF93CDB7DEB729970FB6F89463
S11309E0DEBF0FBECDBF6FB76983F8942090840833
S11309F030908508409086085090870866247724B4
S1130A0088241EE4A12EB3E8BB2ECC24DD24EE24DE
S1130A10FF2400E010E0222D332D442D552D662DAA
S1130A20772D882D90E00E9491342A833B834C8358
S1130A305D836E837F8388879987822E932EA42E6D
S1130A40B52E2401350100E20E948F35A22EB32E6B
S1130A50C42ED52EA3019201569547953795279517
S1130A602A0D3B1D4C1D5D1D57FF05C05F772F5F91
S1130A703F4F4F4F5F4F2093840830938508409336
S1130A80860850938708E9818E2F99278FBFCA0162
S1130A90B90129960FB6F894DEBF0FBECDBFDF9122
S1130AA0CF911F910F91FF90EF90DF90CF90BF9067
S1130AB0AF909F908F907F906F905F904F903F90FA
S1130AC02F9008950E94D904DC01CB0108956D3163
S1130AD018F080E090E008950C96089568E00E9474
S1130AE0670508956E5F0E946705009709F00296F6
S1130AF008950B960895FC0182819927982F8827E1
S1130B0021813327822B932B25E0969587952A956F
S1130B10E1F7817090700895EF92FF920F931F9305
S1130B20CF93DF937B018C018FB7F894C82FDD2717
S1130B300E947F049B01AC01C801B70162307105BA
S1130B408105910520F462E070E080E090E0260FDA
S1130B50371F481F591FDA01C901B093F400A0934D
S1130B60F3009093F2002093F10082E08093E00080
S1130B708091DF0082608F718093DF008FEF80931C
S1130B80BD06CFBFDF91CF911F910F91FF90EF90E2
S1130B900895FB0121E030E002C0220F331F8A9543
S1130BA0E2F7209584A5822384A70895CF93DF9349
S1130BB0EC010E947B05882339F18A8129819927D8
S1130BC0982F88273327822B932B87749C7C8154FE
S1130BD09848D1F48F814E812FB7F89433276091D0
S1130BE0C9067091CA062FBF20E09927982F88273D
S1130BF05527842B952B8617970709F021E081E070
S1130C002827822F992702C080E090E0DF91CF91BE
S1130C100895FB0121E030E002C0220F331F8A95C2
S1130C20E2F784A5822399270895EF92FF920F9308
S1130C301F937C018FB7F894992700917E0A109135
S1130C407F0A0F5E1E4F10937F0A00937E0A0151A4
S1130C5011408FBF82E10E945802C801B7010E946F
S1130C603D3644961F910F91FF90EF900895FC013B
S1130C7027813085C901A3E0880F991FAA95E1F760
S1130C80820F931F860F971F6AE070E00E943D3623
S1130C9070876783089580913107E82FFF27EE0F4F
S1130CA0FF1FE456F54F0190F081E02D20913307AA
S1130CB0222351F08F5F809331078D3011F410920D
S1130CC03107215020933307CF010895AC012091BF
S1130CD0D2082C3018F081E090E0089580918808C3
S1130CE0682F620F712D711DFB016C30710508F0C6
S1130CF03C97EE0FFF1FEE57F54F518340832F5F54
S1130D002093D20880E090E00895AC012091D108AE
S1130D102C3018F081E090E008958091240E682F23
S1130D20620F712D711DFB016C30710508F03C9749
S1130D30EE0FFF1FED50F14F518340832F5F20933F
S1130D40D10880E090E00895FC0180818D509927BE
S1130D500895685F0E946705009709F00896089552
S1130D60FC01635F608308959BE0899FF001112477
S1130D70E75EF64F7183608312821382148285E0EA
S1130D808583168210861782089580E090E0EEE154
S1130D90F9E09C01808180FF08C0C90101963B965F
S1130DA08A309105B1F72FEF30E0C9010895982FEB
S1130DB0AFEF60E070E040E050E0EEE1F9E0808108
S1130DC0282F332720FF0BC021FF09C023FD07C0B4
S1130DD0228133812617370710F0A42FB9014F5F02
S1130DE05F4F3B964A30510551F7892F9927681771
S1130DF0790718F48FEF90E008958A2F99270895C2
S1130E00AC01309153078FEF4F3F580711F020E0AA
S1130E1012C0832F99270895E22FFF2763E0EE0F76
S1130E20FF1F6A95E1F7E655F84F80819181841799
S1130E30950719F02F5F231779F7822F99270895C3
S1130E401F93CF93DF93162FC0E0D0E06AE10E9496
S1130E507205FC0180818123811711F4C1E0D0E087
S1130E60CE01DF91CF911F910895AC0120913307FA
S1130E702D3018F081E090E0089580913207E82F3A
S1130E80FF27EE0FFF1FE456F54F518340838F5F1A
S1130E90809332078D3011F4109232072F5F209324
S1130EA0330780E090E0089580917B0A8A3021F432
S1130EB080914508843021F081E0809319070895DA
S1130EC089E00E9458021092190708952FB7F894E8
S1130ED033278093C600E0ECF0E080818064808357
S1130EE02FBF0895FC016115710519F481E090E0AC
S1130EF0089580919C0890919D08892B19F085E0B4
S1130F0090E008957093030E6093020EF0939D0891
S1130F10E0939C08109276081092750881E0809303
S1130F2077088091C00080648093C0008091C100E4
S1130F3080648093C100808121E030E030937608A2
S1130F40209375080E94660780E090E008958FB7AB
S1130F50F894992720912A072E7F20932A072EE7B9
S1130F6020938C078FBF61E070E08CE897E00E94CB
S1130F707207992708951F93CF93DF938FB7F8943F
S1130F801092E90E20917B0A40E0283009F441E0F8
S1130F9030E0293009F431E0442311F4332351F0D3
S1130FA010927B0AE0918809FF27EE0FFF1FEB5593
S1130FB0F74F108299278FBF442311F4332331F163
S1130FC09FB7F8948091210E8F5F8093210E8091BA
S1130FD09508833479F420910809809107098217D0
S1130FE079F0822F8F5F80930809863048F0109241
S1130FF0080906C0A0E0442309F4A1E071E002C09E
S1131000A0E070E0892F99278FBF06C0222311F03A
S113101010E06CC0A0E070E08FB7F894992720919D
S113102019078FBF222341F08FB7F89499272AE03C
S113103020937B0A8FBF42C08FB7F89499276091A1
S1131040A5084091A7088FBF8FB7F894282F33279E
S113105050E09091070980910809981709F451E02C
S11310602FBF552341F5662331F55FB7F89482E02D
S11310708093A5088FB7F894282F332740E09091E8
S1131080070980910809981709F441E02FBF442308
S113109011F080E006C0E0910809FF27E95FF64FF0
S11310A082818093A60883E480939508109288092E
S11310B0852F99270EC04150423010F010E00BC02C
S11310C08FB7F894992725E42093950821E020937D
S11310D088098FBF11E0772349F08FB7F8949927D7
S11310E0A09322078FBF8BE00E9458028FB7F89419
S11310F0C82FDD2780917B0A8A3021F40E9454078F
S1131100CFBF1DC0CFBF1123D1F02FB7F894332721
S113111010920C0F10920B0F10928B0881E08093A9
S11311207B0A2FBF0E94A707882349F08FB7F89442
S1131130992729E020937B0A8FBF0E94CF03DF9178
S1131140CF911F910895AF92BF92CF92DF92EF9209
S1131150FF920F931F930E9490047B018C012091B6
S11311609608309197084091980850919908809179
S11311708E0890918F08A0919008B0919108820FE9
S1131180931FA41FB51FE216F3060407150730F0DA
S113119082179307A407B50758F005C08217930771
S11311A0A407B507E0F5E816F9060A071B07B8F522
S11311B09C01AD012E193F09400B510B213060E019
S11311C0360760E0460762E0560768F180E090E089
S11311D0A0E0B2E0E80EF91E0A1F1B1FE092960879
S11311E0F0929708009398081093990880E090E093
S11311F0A0E0BEEFE80EF91E0A1F1B1F205030406E
S11312004040524020938E0830938F0840939008BA
S11312105093910820E030E040E052E014C020E018
S113122030E040E050E08093960890939708A093B4
S11312309808B093990810928E0810928F08109213
S113124090081092910859016A0186E0AA0CBB1C0F
S1131250CC1CDD1C8A95D1F7B6E0EE0CFF1C001FF8
S1131260111FBA95D1F70E947F049B01AC012E5F38
S11312703F4F4F4F5F4FDA01C9018E199F09A00BF1
S1131280B10B8A159B05AC05BD0530F4A801970187
S11312902A0D3B1D4C1D5D1D5093F8004093F70033
S11312A03093F6002093F50081E08093E000809174
S11312B0DF0081608F718093DF008FEF8093BD0624
S11312C01F910F91FF90EF90DF90CF90BF90AF9060
S11312D008950F931F930FB7F894112760939608FE
S11312E070939708809398089093990820938E0898
S11312F030938F0840939008509391080E94A3085C
S11313000FBF1F910F9108951F920F920FB60F9266
S113131011248F93809113098F5F809313098F9108
S11313200F900FBE0F901F9018951F920F920FB63B
S11313300F9211242F933F934F935F936F937F9357
S11313408F939F93AF93BF93EF93FF930E943702C2
S113135080918E0890918F08A0919008B091910887
S11313600097A105B10521F483E00E94580202C050
S11313700E94A308FF91EF91BF91AF919F918F912C
S11313807F916F915F914F913F912F910F900FBE7D
S11313900F901F9018951F920F920FB60F92112461
S11313A00F900FBE0F901F901895E0E0F2E06927B0
S11313B0660FF11DE60FF11DC895982F802D31960B
S11313C0C89590250895982F80912507882389F53D
S11313D0992379F531E0309325078091C2068093F3
S11313E0260720911A07822F8170809352078091DB
S11313F0C7069091C8069093280780932707809189
S11314001B078093290732273170267EE32FFF279D
S1131410EE0FFF1FED53F94F808191819093C80621
S11314208093C706232B20931A078CE00E9458024E
S1131430089580911A0780FF02C08B7F01C08D7FC1
S113144080931A0708950F931F93082F162F8091E6
S113145045088130D9F0813038F0823009F44AC02F
S1131460833009F028C159C0002309F458C11092EF
S1131470F60D1092F50D1092810A10920F0E109233
S11314807908109215091092140939C1002309F042
S113149046C180911409909115090E94D509909331
S11314A015098093140982E08093450810930F0E68
S11314B0143409F000C125C18695869503C0809136
S11314C01A078695817009F0F6C080911A0799234E
S11314D011F0846001C0826080931A0780911A071A
S11314E0877E886080931A0710921B078FEF809382
S11314F0C20615C1002309F0DEC06093790880910B
S11315001409909115090E94D509909315098093A7
S1131510140983E08093450802C18091810A8F3FBA
S113152009F4C9C0002309F461C0823008F4C3C0BF
S1131530E091F50DEE2309F4EBC04E2F4150E42F5A
S1131540FF27EB50F24F82819927382F222744231B
S113155011F4E2E002C0E42FE150FF27EB50F24F18
S113156082819927282B392B809114099091150990
S11315702817390709F09FC080E00E94E3093091E1
S113158079088091070920910809982F9F5F963068
S113159008F090E0921771F0E82FFF27E95FF64F0B
S11315A032838F5F80930709863010F01092070909
S11315B00E94CF031092F60D1092F50D94E09093D3
S11315C045081092810A10920F0E10927908109219
S11315D015091092140980912A078D7F80932A0798
S11315E080911907882309F49AC084C0823008F4D2
S11315F04EC0E091F60DFF27EB50F24F8281482F49
S11316005527342F20911A07822F86958695869523
S1131610837099278130910519F00297F9F40EC06F
S1131620277E206120931A07442311F485E001C02A
S113163080E080931B073093C20610C080911B0783
S11316408F3260F4E091C706F091C806E80FF11DEF
S1131650408380911B078F5F80931B078091F60D59
S1131660E82FFF27EB50F24F62818F5F8093F60DD6
S1131670833010F01092F60D772780911409909121
S113168015090E94D5099093150980931409809136
S1131690F50DE82FFF27EB50F24F12838F5F8093F5
S11316A0F50D833010F01092F50D8091810A8F5F53
S11316B08093810A34C01092F60D1092F50D14E057
S11316C0109345081092810A10920F0E1092790817
S11316D0109215091092140980912A078D7F809326
S11316E02A0781E00E94E30980911907882329F0E1
S11316F0109345080E94540712C0002381F081E032
S113170009CF80911A07982F917080FDD5CED7CE3E
S11317108091F90D9927382F222742E01CCF1F9181
S11317200F9108951F920F920FB60F9211242F93C9
S11317303F934F935F936F937F938F939F93AF9355
S1131740BF93EF93FF938091C00087FF42C06091E5
S1131750C600E0911609F0911709309719F18091AC
S1131760E70E9091E80EE80FF91F608301969093BD
S1131770E80E8093E70E20910E0F30910F0F821721
S1131780930738F110921709109216098091490AAB
S11317908330F9F08091C1008F778093C10010925B
S11317A0490A17C06E3719F460E081E010C08091D7
S11317B02A076D3721F4826080932A070AC081FFCB
S11317C005C08D7F80932A0780E2682780E00E940D
S11317D0230AFF91EF91BF91AF919F918F917F91D8
S11317E06F915F914F913F912F910F900FBE0F908A
S11317F01F901895982F8D57823068F480912A078E
S1131800816080932A0780E289278093800A8DE78C
S113181080938C0702C090938C0761E070E08CE8A1
S113182097E00E9472079927089578941F920F9267
S11318300FB60F921124FF920F931F932F933F9390
S11318404F935F936F937F938F939F93AF93BF93C4
S1131850CF93DF93EF93FF9320917508309176082F
S11318608091020E9091030E2817390780F4E091BD
S11318709C08F0919D08E20FF31F80812F5F3F4F7A
S113188030937608209375080E946607D1C01092A1
S11318909D0810929C08109277088091C1008F7B5C
S11318A08093C100FFB6F89480912A0780FF0EC090
S11318B08E7F80932A078091800A80938C0761E051
S11318C070E08CE897E00E947207AFC080917B0AB9
S11318D0843009F48CC0853040F4823021F18330A7
S11318E0B8F5813009F09CC00DC0863009F48DC074
S11318F0863008F483C0873009F48EC0883009F03C
S11319008FC091C0809195080E94FA0B082F83E044
S113191080937B0A6091950880910B0F90910C0F36
S11319200E94D50910C08091210E0E94FA0B082F45
S113193083E080937B0A6091210E80910B0F90913C
S11319400C0F0E94D50990930C0F80930B0F66C067
S1131950E0918809FF27EE0FFF1FEA55F74F8081BA
S11319600E94FA0B082F10918809C12FDD27FE0170
S1131970EE0FFF1FEA55F74F608180910B0F909196
S11319800C0F0E94D50990930C0F80930B0F20919C
S11319908B082F5F20938B08113039F58091210734
S11319A0E0911C07F0911D07E80FF11DE0818F5FA6
S11319B08093210790912007981730F482E0809358
S11319C0A70840E050E002C04E2F5527DE01AA0FC1
S11319D0BB1FFD01EB55F74F8081823031F02F3F63
S11319E021F0AA55B74F4C9319C084E012C08091DE
S11319F00B0F0E94FA0B082F85E00BC080910C0F8F
S1131A000E94FA0B082F86E004C00E94A707082F43
S1131A1087E080937B0A02C088E003C0002329F09A
S1131A2089E080937B0A0E94CF038F2D99278FBF73
S1131A30FF91EF91DF91CF91BF91AF919F918F91E2
S1131A407F916F915F914F913F912F911F910F91D2
S1131A50FF900F900FBE0F901F9018951F920F923A
S1131A600FB60F9211248F938091C80087FF02C094
S1131A708091CE008F910F900FBE0F901F901895FC
S1131A8078941F920F920FB60F9211240F900FBEED
S1131A900F901F9018951F920F920FB60F9211245A
S1131AA08F939F938091250E8F5F8093250E809155
S1131AB08C0890918D08019690938D0880938C08E2
S1131AC0892B29F4809189088F5F809389089F91DD
S1131AD08F910F900FBE0F901F9018951F920F9229
S1131AE00FB60F9211240F900FBE0F901F901895F0
S1131AF01F920F920FB60F9211240F900FBE0F90EA
S1131B001F9018951F920F920FB60F9211240F90E9
S1131B100FBE0F901F9018951F920F920FB60F9241
S1131B2011240F900FBE0F901F901895863019F056
S1131B30873081F408C0EE988FEF8093BD0689E169
S1131B400E9458020895EF988FEF8093BD0688E1B4
S1131B500E94580208951F920F920FB60F921124FB
S1131B602F933F934F935F936F937F938F939F93A1
S1131B70AF93BF93EF93FF9380E00E94960DFF9184
S1131B80EF91BF91AF919F918F917F916F915F91F1
S1131B904F913F912F910F900FBE0F901F9018956A
S1131BA01F920F920FB60F9211242F933F934F93CE
S1131BB05F936F937F938F939F93AF93BF93EF93B1
S1131BC0FF9381E00E94960DFF91EF91BF91AF9139
S1131BD09F918F917F916F915F914F913F912F9141
S1131BE00F900FBE0F901F9018951F920F920FB673
S1131BF00F9211242F933F934F935F936F937F938F
S1131C008F939F93AF93BF93EF93FF9382E00E94D0
S1131C10960DFF91EF91BF91AF919F918F917F911D
S1131C206F915F914F913F912F910F900FBE0F9045
S1131C301F9018951F920F920FB60F9211242F9395
S1131C403F934F935F936F937F938F939F93AF9340
S1131C50BF93EF93FF9383E00E94960DFF91EF9162
S1131C60BF91AF919F918F917F916F915F914F91B0
S1131C703F912F910F900FBE0F901F9018951F92B8
S1131C800F920FB60F9211242F933F934F935F93AC
S1131C906F937F938F939F93AF93BF93EF93FF9330
S1131CA084E00E94960DFF91EF91BF91AF919F91B7
S1131CB08F917F916F915F914F913F912F910F90F1
S1131CC00FBE0F901F9018951F920F920FB60F9290
S1131CD011242F933F934F935F936F937F938F932D
S1131CE09F93AF93BF93EF93FF9385E00E94960D6C
S1131CF0FF91EF91BF91AF919F918F917F916F91E0
S1131D005F914F913F912F910F900FBE0F901F90B5
S1131D1018951F920F920FB60F9211242F933F9391
S1131D204F935F936F937F938F939F93AF93BF93DF
S1131D30EF93FF9386E00E94960DFF91EF91BF9180
S1131D40AF919F918F917F916F915F914F913F914F
S1131D502F910F900FBE0F901F9018951F920F9206
S1131D600FB60F9211242F933F934F935F936F936A
S1131D707F938F939F93AF93BF93EF93FF9387E0EA
S1131D800E94960DFF91EF91BF91AF919F918F911A
S1131D907F916F915F914F913F912F910F900FBE63
S1131DA00F901F901895CF93DF93882319F4CFEFEA
S1131DB0DFEF18C0682F772784EC99E00E94513632
S1131DC0EB016B3F710510F0CFEFDFEFDF93CF93A3
S1131DD080E092E09F938F930E94CD360F900F90F6
S1131DE00F900F90CE01DF91CF9108950F931F9321
S1131DF0CF93DF93C9E1D9E000E010E08D8180FF4B
S1131E0018C08F8198859F938F93888199819F9320
S1131E108F931F930F9385E192E09F938F930E947A
S1131E20CD368DB79EB708960FB6F8949EBF0FBEF9
S1131E308DBF0F5F1F4F2B960A301105F9F6DF9106
S1131E40CF911F910F9108950F931F93CF93DF9319
S1131E508C019F938F938091BB069091BC069F93B6
S1131E608F938EE292E09F938F930E94CD360E94CF
S1131E70F60EC8010E94B7032DB73EB72A5F3F4F45
S1131E800FB6F8943EBF0FBE2DBF8F3F59F48FE5B8
S1131E9092E09F938F930E94CD368FEF9FEF0F9028
S1131EA00F9022C099272BE030E0829FE001839FAE
S1131EB0D00D929FD00D1124C75ED64F8D8181FD28
S1131EC003C08FEF9FEF10C08F8198859F938F93EE
S1131ED084E792E09F938F930E94CD368F819885FB
S1131EE00F900F900F900F90DF91CF911F910F9152
S1131EF008950F931F93CF93DF93EC01892BE9F09F
S1131F002091FA0D3091FB0D8FEF2F3F3807A9F088
S1131F1080914707813019F4198218820BC000910F
S1131F20FC0D1091FD0DC9010E94240F080F191F0B
S1131F301983088380E090E002C081E090E0DF91A3
S1131F40CF911F910F910895CF92DF92FF920F933B
S1131F501F93CF93DF93282F062F482F55278BE00D
S1131F6090E0489FE001499FD00D589FD00D112467
S1131F70C75ED64F8D8182FF02C08B7F8D838A819D
S1131F80302F381B0A838B818F5F8B83332379F047
S1131F908C81830F81508C833B3048F06881798138
S1131FA0822F0E94B4060A8381E08B837AC08BE07F
S1131FB090E0489FF001499FF00D589FF00D1124C7
S1131FC0E75EF64F83812481820F912D911D039743
S1131FD01CF4333008F465C0C080D180DF92CF9206
S1131FE080E992E09F938F930E94CD36C9E1D9E0B6
S1131FF00F900F900F900F90888199818C159D05FB
S113200009F049C08D81282F332720FF44C06B81FC
S1132010FC80F60E21FD16C07727882799272AEF22
S113202030E040E050E00E9412362F2D3327442741
S113203055270E946436DA01C9012E830E94D30E0B
S113204098878F838D8182608D830E8189E0089FBC
S1132050800111246B817727882799272AEF30E0A4
S113206040E050E00E9412362F2D33274427552795
S11320700E946436C801820F911D6AE070E00E94DC
S11320805136CB016E831B821C820E94D30EBC018D
S1132090CE010E9437062B9689E0C738D80709F08D
S11320A0ABCFDF91CF911F910F91FF90DF90CF9035
S11320B008952F923F924F925F926F927F928F92E8
S11320C09F92AF92BF92CF92DF92EF92FF920F93C3
S11320D01F93CF93DF932C018091A107882309F0EC
S11320E01EC18091D308853009F019C18091EB0C91
S11320F0882309F014C1B20182E00E9409068823F2
S113210011F49AE003C0F20196A59F7080918709AB
S1132110981729F090938709906C909345011201C8
S11321200894211C311CF1018181F201218140E0DC
S11321309927982F88273327822B932B87749C7C8D
S11321408154984809F441E04423A9F08091460160
S113215099278F7190702091220E40915107240F7E
S1132160312D311D43E0359527954A95E1F7281720
S113217039070CF4D4C089E080934201B20184E0B1
S11321800E940906882319F4C0E0D0E006C0D201F9
S11321908C918550E201C80FD11DF20180819927ED
S11321A0282F80938001809141018F71893021F023
S11321B086E080934201B3C00EEFF02EF20E0FB70B
S11321C0F89411270E947F043B014C0182E0809324
S11321D042010FBF8BE090E0A0E0B0E0680E791EF2
S11321E08A1E9B1E6F2D7727209709F47EC02881B5
S11321F0E9808A81AB809927AA27BB27BA2FA92F08
S1132200982F8827332744275527522F44273327CD
S11322102227FF24002711278701FF24EE242E29DB
S11322203F29402B512BBB24CC24DD242A293B29D4
S11322304C295D29822B932BA42BB52B8619970946
S1132240A809B9098B83292F3A2F4B2F55272A83A5
S11322509D014427552729838B2F9927AA27BB271C
S11322608883AB01B10181E891E00E94BD3686E02C
S1132270809342012881E9808A81AB809927AA272B
S1132280BB27BA2FA92F982F8827332744275527F0
S1132290522F442733272227FF24002711278701A1
S11322A0FF24EE242E293F29402B512BBB24CC2480
S11322B0DD242A293B294C295D29822B932BA42B2D
S11322C0B52B860D971DA81DB91D8B83292F3A2F79
S11322D04B2F55272A839D014427552729838B2F6C
S11322E09927AA27BB27888309C0AB01B10181E8DC
S11322F091E00E94BD3686E080934201F20184A5FC
S1132300826084A760A671A682A693A686E08093C5
S1132310D30884E08093A10780E090E002C085E0C8
S113232090E0DF91CF911F910F91FF90EF90DF909C
S1132330CF90BF90AF909F908F907F906F905F9061
S11323404F903F902F900895CF93DF93EC018985B0
S1132350882351F48EEA92E00E94E4369A858AE05A
S1132360989FB001112420C099279F938F938A8549
S113237099279F938F9381EC92E09F938F930E9470
S1132380CD369A85698577278AE0989FC001112404
S11323900E94513619861A868DB79EB706960FB6D7
S11323A0F8949EBF0FBE8DBFCE010E943706DF9109
S11323B0CF91089521E02093A4082093440A0E9419
S11323C08C050895982F80914107833009F04AC005
S11323D08091D706891709F045C08091D50620E081
S11323E030E08F3F11F421E030E0232BF9F48F3FEC
S11323F019F42FEF30E00EC0282F3327F901EC56E3
S1132400F74F80818093D5068F3F11F48093D606D1
S11324108FEF80832093B60A8FEF8093D70681E0F5
S11324208093410781E30E94580219C081E08093A0
S1132430D7061092410780914207813081F40E94AF
S1132440440280E00E94CF028091430A8E768093FA
S1132450430A8093BC00589859981092420780E030
S113246090E0089581E090E008950F931F93FC019C
S113247000810D50112762E00E946705FC01208154
S113248033272F703070C901880F991F820F931F53
S1132490081B0250802F99271F910F9108951F93B5
S11324A0982F1FB7F89480912F07823099F5809167
S11324B0CE06891779F58091CC0620E030E08F3F75
S11324C011F421E030E0232BF1F49FEF9093CE063A
S11324D08F3F19F42FEF30E00DC0282F3327F90177
S11324E0E755F84F80818093CC068F3F11F4909389
S11324F0CD0690832093A60781E080932F078EE07A
S11325000E94580205C08FEF8093CE0610922F07C9
S113251021E001C020E0812F99278FBF90E0213076
S113252009F491E081E09827892F99271F91089554
S113253080E00E944F1299270895EF920F931F9302
S1132540AE2D99E0899FF0011124E757F64F40839F
S11325505183628373830483158326833783A17035
S113256080858E7F8A2B8260808784E00E94580257
S11325701F910F91EF900895AF92BF92CF92DF9287
S1132580EF92FF920F931F93F82E5A016B010E9452
S11325909004AB01BC01E1E0EE2E960185018F2D84
S11325A00E949D121F910F91FF90EF90DF90CF90AA
S11325B0BF90AF900895EF92FF920F931F93809175
S11325C0D1069091D206A091D306B091D406B695C7
S11325D0A7959795879580930E0890930F08A093DD
S11325E01008B09311080E94D904E0900E08F090EE
S11325F00F080091100810911108A80197010E947A
S11326006436AB01BC014E0D5F1D601F711F40930A
S11326100E0850930F0860931008709311081092DD
S1132620EE0D81E00E94BC121F910F91FF90EF907C
S1132630089580E890E0A0E0B0E08093D106909304
S1132640D206A093D306B093D4060E94DB12089559
S113265080912D078C3118F04CE150E002C0482FD6
S113266055278CE1E4ECFEE011928A95E9F790910C
S11326702D0780912B0720E030E0A4ECBEE00FC0D2
S1132680E82FFF27E451F34FE081992329F08F5F6E
S11326908A3F09F480E09150ED932F5F3F4F241758
S11326A0350771F790932D0780932B074CE168EB66
S11326B07EE08FEF9FEF0E943E04882319F08DE0A7
S11326C00E94580208958FB7F894282F33278091D9
S11326D02E07813021F42FBF80E090E0089590E030
S11326E080912D07882309F491E0992321F02FBFCD
S11326F081E090E0089581E080932E072FBF0E942F
S1132700281380E090E00895EF920F931F9388239D
S113271051F08AEE92E00E94E4360E94631380E056
S11327200E9458020CC00E949004AB01BC01EE242C
S113273000ED17E020E030E080E00E949D121F9140
S11327400F91EF9008951F93182F80912E078823DF
S113275049F480912D078D3728F081E080932E076E
S11327600E9428138FB7F894282F332790912D07B0
S11327709A3FA8F480912C07E82FFF27E451F34FE8
S113278010838F5F80932C078A3F11F410922C07DB
S11327909F5F90932D072FBF80E090E003C02FBF71
S11327A08FEF9FEF1F910895662351F480912D07B9
S11327B0882319F00E942813089510922E07089573
S11327C08DE00E9458020895EF92FF920F931F9399
S11327D0CF93DF93182F7B01042FE82FFF27EE0FF1
S11327E0FF1FEF5EF64F118210821092C106A09176
S11327F01109B0911209109721F08091230E80FFE6
S11328000EC081E08093C10603C086E00E94580296
S11328101123C9F4602FC7010E94D41314C0FD0111
S1132820359624813327ED016D817727762F66272E
S113283081819927682B792BAD0186810E94E3035E
S1132840882331F3E2CFDF91CF911F910F91FF9055
S1132850EF90089580911408823031F481E08093E0
S1132860140880E10E9458020895CF93DF93982FB3
S1132870E9018091D706882309F0B0C0809141070F
S1132880833009F0ABC0909340070E944D0280E072
S11328900E94E211982F20917808822F8251833070
S11328A018F0492F552707C089819927582F4427A5
S11328B08881480F511D2F3009F46EC02031B0F4C7
S11328C0233009F455C0243038F4213009F446C0CB
S11328D0223009F083C047C02D3009F458C02E308F
S11328E008F050C0243009F079C047C0223109F4FF
S11328F062C0233138F4203109F453C0213109F086
S11329006DC054C0243109F462C0243108F459C0A4
S1132910253109F063C089819927982F8827288158
S1132920820F911D90939F0880939E088B81992715
S1132930982F88272A81820F911D9093A108809354
S1132940A0088D819927982F88272C81820F911DAB
S11329509093A3088093A20884E23EC08881809368
S1132960890785E239C08881809382088DE234C06A
S11329708881809318098EE22FC088818093540740
S11329808FE22AC0888180933F078CE125C088812B
S1132990809383088DE120C0888180934A0A8FE167
S11329A01BC088818093180E8EE116C088818093A5
S11329B04E0780E211C05093F00D4093EF0D81E279
S11329C00BC05093270E4093260E82E205C050930D
S11329D0F20D4093F10D83E20E945802DF91CF91F2
S11329E008958093280E882311F484E001C081E0C7
S11329F08093140880E10E94580208958F929F9258
S1132A00AF92BF92CF92DF92EF92FF920F931F93F8
S1132A10CF93DF938091EB0C882309F42AC12FB75D
S1132A20F89433278091E900882E8091EA00982E4B
S1132A308091EB00A82E8091EC00B82E0091EB0C55
S1132A401092EB0C2FBF07FF0DC08091A1078330BC
S1132A5011F0873039F485E08093D30888E08093BF
S1132A60A10778C08091A107843009F073C001FFE9
S1132A7071C085E08093D3081092A1078091550717
S1132A80833019F41092550765C0C091F10ED091AE
S1132A90F20ECE010E947B05882309F454C08A817A
S1132AA029819927982F88273327822B932B877482
S1132AB09C7C8154984809F046C08F812E819927C7
S1132AC0982F88273327822B932B8F5F9F4FD9F121
S1132AD090E08091440A882309F491E0992399F1C4
S1132AE080E090E0AAE7B2E4BF93AF939F938F9303
S1132AF080E090E0A0E8BDE3BF93AF939F938F93F2
S1132B0088EE93E09F938F938CE093E09F938F9351
S1132B100E94CD360E94631312E01093A40881E052
S1132B208093440A6EE370E080E090E00E948C059C
S1132B30109355078DB79EB70C960FB6F8949EBFA9
S1132B400FBE8DBF07C0109255071092150880E084
S1132B500E94F114C02FDD27C5FF50C08091A1074A
S1132B60863019F41092A10703C0882309F046C0E7
S1132B70003361F4E0913F0FF091400F84A582602F
S1132B8084A780A691A6A2A6B3A634C0E0913F0F65
S1132B90F091400F003219F5F09046019FE1F922BF
S1132BA080915107982F969596952F2D291B820F6A
S1132BB08093510784A5826084A780A691A6A2A6CB
S1132BC0B3A600913F0F1091400FB80182E00E941C
S1132BD0C905F80184A5886084A7F6A60BC0BF01C7
S1132BE081E00E94C90560913F0F7091400F83E01E
S1132BF00E94C90585E08093A10704C08091A107C4
S1132C00853089F4C4FF0FC02091220E80914601C3
S1132C108F71922F96959695891B280F2093220EDB
S1132C2089E08093A107C0FF0CC08091D308823053
S1132C3041F48091A1078250823018F483E080939C
S1132C40D308C3FF16C08091A107863091F4809108
S1132C5055018F77809355011092A107809141010E
S1132C60992787709070892B09F436C280914101AD
S1132C7033C29091A107992309F42EC2993009F027
S1132C809CC140917B018091460187FF5EC0433027
S1132C9008F45BC0842F99278A970CF056C0E09102
S1132CA03F0FF091400F41934250552760E871E087
S1132CB0CF010E94BD36E0913F0FF091400F81811A
S1132CC090E08770823009F491E0992349F020E084
S1132CD030E080915507823081F421E030E00DC06E
S1132CE08FB7F894282F332790E08091E80D833034
S1132CF008F491E02FBF292F3327232B31F1E091E2
S1132D007B01FF27E058FE4F8081E0913F0FF09157
S1132D10400F85A785E08093D3081092A107E09027
S1132D203F0FF090400F67010894C11CD11CF701BC
S1132D30818190E0282F33272770307022303105AD
S1132D4009F491E0992339F42CC085E08093D308E9
S1132D501092A107BDC180915507823009F028C1A6
S1132D60F7018381E091F10EF091F20E93818917BE
S1132D7009F01EC12230310509F01AC10E942A024D
S1132D801092440AE091F10EF091F20E84A5816054
S1132D9084A7109255071092150880E00E94F11440
S1132DA007C1809155078823D1F4C7010E94D60535
S1132DB08823A9F085E08093D40882E08093D50825
S1132DC01092D608F60182818093D70884ED98E0AA
S1132DD00E945910882319F483E0809355070E94B8
S1132DE07F048B01C7010E94D605882311F00A5C79
S1132DF01F4F1093100900930F090E947F04061BB4
S1132E00170BB80110161106BCF48091150888231D
S1132E1081F490E08091440A882309F491E0992395
S1132E2059F0882777FD8095982F0E94DA1180E861
S1132E3001C0806880931508F60180852781992751
S1132E40582F44273327422B532B80915607282F82
S1132E503327F901EE0FFF1FEC5FF14F8081918161
S1132E607091470A8417950769F4F901E551F14F08
S1132E708081871709F467C0872F8F5F8093470A83
S1132E8080831DC000E010E080E090E0C4E0DEE05C
S1132E90EBEEFEE0DF01682F9C01888199818417A5
S1132EA0950779F4209356079091470A8C918917D6
S1132EB009F449C0892F8F5F8093470A8C9300E8F7
S1132EC029C08081972F981B091710F4092F122FFE
S1132ED06F5FC9010196119622963196853091054E
S1132EE0D1F66530B9F410935607A12FBB27FD0125
S1132EF0EE0FFF1FEC5FF14F518340838091470A2F
S1132F008F5F8093470AFD01E551F14F8083AF5BEA
S1132F10B04F1C929091470A892F8F778F3779F49D
S1132F200F3768F0EBEEFEE0292F207880818F6761
S1132F308913208331968EE0E03FF807B9F780913A
S1132F405607282F3327F6019281A22FBB27FD01B4
S1132F50EF5BF04F808180FF07C0FD01E751F24F26
S1132F608081981729F102C081608083A751B24FF4
S1132F709C93DFB6F8948091E80D8330B0F4E0912F
S1132F80200EE80FE33008F0E350FF27EE0FFF1F99
S1132F90E85BF84F00811181F182E0828F5F8093BA
S1132FA0E80D81E10E94580278018D2D99278FBF89
S1132FB0F092400FE0923F0F82C0292F215023301E
S1132FC008F068C0892F8250823098F48091D30829
S1132FD0813079F49FEF90934F0180E880934E0104
S1132FE0809139018D7F809339019093BD0682E0F1
S1132FF01AC09330D9F48091D3088330B9F4809106
S1133000EA0E8064809348018DE580934E018FEF32
S11330108093BD0686E080934201809144018068DC
S11330208093440184E08093D30817C02230A8F42D
S11330308091D308853089F4809144018F778093FF
S1133040440193E09093420110924E011092EB0CD4
S11330508FEF8093BD069093D3089091A107913090
S113306069F48091D308833009F050C0809139010C
S11330708260809339019093D3081DC09230F9F493
S11330808091D308833021F510924E018FEF809305
S1133090BD0611C0973099F49091D308913059F03E
S11330A08091EA0E806480934801953021F484E095
S11330B08093D30804C088E08093A10704C0809162
S11330C0A107883029F41092A1078FE00E945802CA
S11330D08091A1078823D1F48091D3088530B1F47D
S11330E08091EB0C882391F480915507882371F427
S11330F080911508882351F490E08091440A882334
S113310009F491E0992311F00E942A148091440A51
S1133110823009F077C01092440AF090A408F1E0DC
S1133120FF1629F022E0F21609F06CC064C0C091C9
S11331300F09D09110090E947F04209115082038AE
S113314029F4109215080E942A145CC08E01061BF3
S1133150170B27FF03C010161106ECF0C0911208DC
S1133160D0911308809155078823A9F4CE010E94B9
S113317059109927882351F4BE010E94C905F09281
S11331805507D093F20EC093F10E31C09927F82E53
S1133190882369F102C065E0F62E20911508822F7C
S11331A099278F77019779F4207822602093150866
S11331B08CE890E00E941506AA27BB27BC01CD012C
S11331C00E94DA111FC027FF0EC0101611065CF40E
S11331D080E880931508B801882777FD8095982F9B
S11331E00E94DA1102C0109215088F2D09C083E0E5
S11331F08093150807C0109255071092150880E0B7
S11332000E94F1148FB7F894282F33278091A307D5
S1133210813029F081E08093A3072FBFFBCB10926C
S1133220A3072FBFDF91CF911F910F91FF90EF90D4
S1133230DF90CF90BF90AF909F908F9008958FB7FD
S1133240F894282F33278091A307882329F08068D6
S11332508093A3072FBF089581E08093A3072FBF16
S11332600E94FE1408951F920F920FB60F9211241C
S11332702F933F934F935F936F937F938F939F937A
S1133280AF93BF93EF93FF930E942A028091440A65
S1133290813019F482E08093440A0E941F19FF913F
S11332A0EF91BF91AF919F918F917F916F915F91BA
S11332B04F913F912F910F900FBE0F901F90189533
S11332C01F920F920FB60F9211242F933F934F9397
S11332D05F936F937F938F939F93AF93BF93EF937A
S11332E0FF932FB7F89433278091EB0C8068809379
S11332F0EB0C2FBF78940E941F19FF91EF91BF919F
S1133300AF919F918F917F916F915F914F913F9179
S11333102F910F900FBE0F901F9018951F920F9230
S11333200FB60F9211242F933F934F935F936F9394
S11333307F938F939F93AF93BF93EF93FF932FB795
S1133340F89433278091EB0C80628093EB0C2FBFB1
S113335078940E941F19FF91EF91BF91AF919F91B3
S11333608F917F916F915F914F913F912F910F902A
S11333700FBE0F901F9018951F920F920FB60F92C9
S113338011242F933F934F935F936F937F938F9366
S11333909F93AF93BF93EF93FF932FB7F894332783
S11333A08091EB0C80618093EB0C2FBF78940E948A
S11333B01F19FF91EF91BF91AF919F918F917F91D1
S11333C06F915F914F913F912F910F900FBE0F908E
S11333D01F9018951F920F920FB60F9211242F93DE
S11333E03F934F935F936F937F938F939F93AF9389
S11333F0BF93EF93FF932FB7F89433278091EB0C8F
S113340082608093EB0C2FBF78940E941F19FF9168
S1133410EF91BF91AF919F918F917F916F915F9148
S11334204F913F912F910F900FBE0F901F901895C1
S11334301F920F920FB60F9211242F933F934F9325
S11334405F936F937F938F939F93AF93BF93EF9308
S1133450FF932FB7F89433278091EB0C8860809307
S1133460EB0C2FBF78940E941F19FF91EF91BF912D
S1133470AF919F918F917F916F915F914F913F9108
S11334802F910F900FBE0F901F9018951F920F92BF
S11334900FB60F9211242F933F934F935F936F9323
S11334A07F938F939F93AF93BF93EF93FF932FB724
S11334B0F89433278091EB0C81608093EB0C2FBF41
S11334C078940E941F19FF91EF91BF91AF919F9142
S11334D08F917F916F915F914F913F912F910F90B9
S11334E00FBE0F901F9018958FB7F894282F33278D
S11334F08091A30781508093A307803811F02FBFD8
S1133500089581E08093A3072FBF0E94FE140895BD
S11335101F93FC018FE38287809144078F5F809320
S1133520440783832FB7F89433278091A3078F5FD1
S11335308093A3072FBF80911408882311F015E00E
S11335400DC0F0937D0AE0937C0A81E08093140817
S11335501092480A80E10E94580210E00E94741AF6
S1133560812F99271F910895FF920F931F93CF9353
S1133570DF93F82E8B01EA01622F2D3118F086E0DB
S113358090E092C0FA0131968181298170E09927F7
S1133590582F44273327422B532BCA0187749C7C12
S11335A08154984809F471E0772349F4CA0180737F
S11335B09070816498688983892F99278183635FD8
S11335C068832FB7F89433278091C9069091CA066F
S11335D02FBF8887892F992789872FB7F894332796
S11335E08091CB062FBF99278C831D82CE010E9428
S11335F07905FC01F0820E83812F99278F838FB781
S1133600F894282F332780912F07882371F482E0C0
S113361080932F071092CE062FBFCE010E94881AE6
S11336209927182F882399F00FC02FBFD093A8078C
S1133630C093A7078FB7F894C82FDD272C2F80914C
S11336402F07882399F406C080E00E944F12812F2F
S113365099272AC081E080932F071092A6078EE055
S11336600E945802CFBF80E090E01EC08091A9075D
S11336708F3F89F4E091CD06EE2369F010C01092DB
S1133680CC0604C0FF27E755F84F10821092CD06F0
S113369080E090E002C085E090E02FBF05C08091FB
S11336A0CC068F3F79F7EBCFDF91CF911F910F912C
S11336B0FF900895EF92FF920F931F93CF93DF93A0
S11336C0E82E8B01F42E81E08E1518F481E090E051
S11336D03BC0CE2DDD27CC0FDD1FCC5ED14F8881C2
S11336E09981892B19F085E090E02EC07983688355
S11336F0EDE0FE0EFB01F082F3EFFF0E8091CF06AA
S1133700823018F480E090E01FC0CB010E9479055C
S1133710FC018081F80167817727762F662726814F
S11337203327622B732BE092CF062F2DA8010E9422
S1133730B41A9927282F882329F082E08093CF0692
S113374019821882822F9927DF91CF911F910F91AF
S1133750FF90EF90089580913D07882319F085E04C
S113376090E0089581E080933D0782E1809378089A
S113377080913F0783FD05C010923D0781E090E0F2
S1133780089580E00E9431039927882319F480E08A
S113379090E0089510923D0799270895CF92DF9203
S11337A0EF92FF920F931F936C017B010E94D90447
S11337B0DC01CB01B6010E943D36E80EF91E00275C
S11337C01127B801A70183E00E94BC121F910F9139
S11337D0FF90EF90DF90CF90089580913D0788236C
S11337E019F085E090E0089581E080933D0783E13E
S11337F08093780880913F0783FD05C010923D07B0
S113380081E090E0089580E00E94310399278823A5
S113381019F480E090E0089510923D0799270895E7
S113382080913D07882319F085E090E0089581E0B8
S113383080933D0784E18093780880913F0783FD5E
S113384005C010923D0781E090E0089580E00E9459
S113385031039927882319F480E090E008951092A9
S11338603D0799270895CF93DF9310923D07C091A8
S1133870260ED091270E80914007882339F089E2E3
S113388093E00E94E4360E94ED1B12C0DF93CF93B5
S113389086E593E09F938F930E94CD36D0931507CE
S11338A0C09314070E94101C0F900F900F900F905C
S11338B00E946313DF91CF910895CF93DF93EC01BE
S11338C00E940007282F809153072817D1F0382F22
S11338D031503093530713C0822F992743E0880F48
S11338E0991F4A95E1F7DC01A655B84FFC01EE5447
S11338F0F84F88E001900D928150E1F72F5F231774
S113390058F3DF93CF9380E793E09F938F930E94C4
S1133910CD360F900F900F900F908091FA0D9091EB
S1133920FB0D8C179D07A1F48FEF9FEF9093FB0D78
S11339308093FA0D1092FD0D1092FC0D1092FE0D65
S11339401092FF0D81E08093390786E10E945802AE
S1133950DF91CF910895AF92BF92CF92DF92EF9211
S1133960FF920F931F93CF93DF935B016C01C0E031
S1133970D0E0E9E8F9E0608561FFB7C020813181DA
S113398042815381E480F58006811781D601C50107
S1133990821B930BA40BB50B8E159F05A007B107D3
S11339A008F4A3C060FF03C06D7F608708C02E0DBC
S11339B03F1D401F511F2083318342835383C230F4
S11339C009F468C0C33030F4CC2359F0C13009F095
S11339D092C00AC0C33009F471C0C43009F08BC06E
S11339E076C00E94AB1B87C080913607882309F4F8
S11339F082C080913707882309F47DC08091EE0D41
S1133A00882301F586E10E94580287E10E9458024A
S1133A104091D1065091D2066091D3067091D4069C
S1133A2080910E0890910F08A0911008B091110890
S1133A30481B590B6A0B7B0B81E08093EE0D0E94AF
S1133A40BC1259C08091D1069091D206A091D306A0
S1133A50B091D406880F991FAA1FBB1F8093D1066B
S1133A609093D206A093D306B093D4068150904D80
S1133A70A740B04060F080E090EDA7E0B0E0809314
S1133A80D1069093D206A093D306B093D4060E9495
S1133A90DB1231C080913607882369F180913707A2
S1133AA0882349F18BE893E09F938F930E94CD364E
S1133AB086E10E9458020F900F901DC0809130073C
S1133AC08F7E8093300783E10E94580214C0809156
S1133AD03D07882381F080917808882361F410924F
S1133AE03D0784E00E94841306C021963996C530B0
S1133AF0D10509F040CF84E00E945802DF91CF91B4
S1133B001F910F91FF90EF90DF90CF90BF90AF90F7
S1133B100895AF92BF92CF92DF92EF92FF920F93EC
S1133B201F930E9490047B018C010E9437026FEF67
S1133B30A62E6FEFB62E6FEFC62E6FE7D62E60E07F
S1133B40E9E8F9E0808581FF1CC080819181A28130
S1133B50B381A8019701281B390B4A0B5B0BDA01CF
S1133B60C9012481358146815781281B390B4A0BB1
S1133B705B0B2A153B054C055D051CF459016A01D4
S1133B8061E0399639E0E63BF307E1F66623D9F0C4
S1133B901A141B041C041D042CF0C801B7010E9454
S1133BA0AB1C11C0A092100EB092110EC092120E56
S1133BB0D092130E81E08093A207A6019501C8015B
S1133BC0B7010E9469091F910F91FF90EF90DF9058
S1133BD0CF90BF90AF9008951F93809114081092D6
S1133BE01408853009F03DC081E080933607809148
S1133BF03707882311F00E94D9048091300784602C
S1133C008093300790E080913307882309F491E092
S1133C10992319F483E10E9458021092BF068FB7CA
S1133C20F89499272091A3072F5F2093A3078FBFB0
S1133C3080911408882391F48091A107882371F45A
S1133C408091EA0E8A3151F08AE18093EA0E17E0FE
S1133C501093A1070E941F19109314080E94741A4C
S1133C6016C0863041F410923607809130078B7F5E
S1133C70809330070CC0873041F483EA93E00E94BC
S1133C80E4360E9463135D9802C0809314081F9168
S1133C9008951F93182F8091D706882309F0DCC05C
S1133CA080914107833009F0D7C010934007809179
S1133CB07808853199F1813009F43FC0823009F4E4
S1133CC04EC0833009F455C0843009F45CC08F3091
S1133CD009F477C0803109F47EC0813109F484C0CD
S1133CE0823109F48AC0833109F490C0843109F423
S1133CF096C00E944D0280E00E94E21180917808F3
S1133D00E82FFF27EF31F10508F0A6C0E057FF4F79
S1133D10EE0FFF1F0590F491E02D0994112349F44F
S1133D208091D806882309F097C02AEF37E046E04F
S1133D300EC084E28FC08AE18DC0112371F480919A
S1133D40D806882309F088C02AEF37E041E063E50C
S1133D5070E083E00E94DC027FC085E27BC0112317
S1133D6031F48091D806882309F076C0EDCF8DE236
S1133D7071C0112331F48091D806882309F06CC0F6
S1133D80E3CF8EE267C0112331F48091D8068823F3
S1133D9009F062C0D9CF8FE25DC0112331F4809164
S1133DA0D806882309F058C0CFCF8CE153C0112323
S1133DB031F48091D806882309F04EC0C5CF8DE137
S1133DC049C0112331F48091D806882309F044C0F6
S1133DD0BBCF8FE13FC0112329F48091D8068823FB
S1133DE0D9F5B2CF8EE136C0112329F48091D806DB
S1133DF0882391F5A9CF80E22DC0112329F4809165
S1133E00D806882349F511C081E224C0112329F47E
S1133E108091D806882301F508C082E21BC01123D3
S1133E2041F48091D8068823B9F42AEF37E042E0C0
S1133E308ECF83E20FC087E20DC088E20BC086E21A
S1133E4009C08BE107C089E205C08AE203C08BE2A6
S1133E5001C08CE20E9458021F910895FF920F93B3
S1133E601F93082FF42E8FB7F894482F552780916D
S1133E70D806882311F04FBF93C04FBF8FB7F89473
S1133E80482F552780914207813041F582E0809385
S1133E9042074FBF8FB7F8949927709381086093B6
S1133EA080083093A5072093A407F0924507009358
S1133EB00D0F10920E0E109243078FBF0E94440202
S1133EC08FB7F894182F9091430A916C9F7E90932A
S1133ED0430A202F332720FD0BC011C0882321F46F
S1133EE04FBF84E090E066C04FBF85E090E062C0C1
S1133EF090629093430A84E08093420754C0FF2069
S1133F0009F440C083E08093420720910E0E409153
S1133F104507241778F4E091A407F091A507E20F70
S1133F20F11D80818093BB002F5F20930E0E909330
S1133F30BC003DC0292F2E7F2093430A80910D0F92
S1133F4081FF07C08D7F80930D0F20612093430A6A
S1133F5003C09E779093430A8091430A8093BC00E8
S1133F6081E0809342072091A4073091A5076091D6
S1133F708008709181088091D8068823C1F40E943A
S1133F80491E15C021FF08C085E0809342079F7B2E
S1133F9090619093430A07C081E0809342071FBF5A
S1133FA081E090E007C08091430A8093BC001FBF6A
S1133FB080E090E01F910F91FF9008951F93182FB8
S1133FC00E9444028091430A8E7F8093430A80E0DA
S1133FD00E94CF028091430A8093BC000E94440255
S1133FE081E00E94CF028091430A8093BC0081E06B
S1133FF080934207809143072091A4073091A5073D
S11340004091450760918008709181089091D8068D
S1134010882331F0992349F4812F0E94351405C077
S1134020992319F4812F0E94491E1F910895EF923C
S11340300F931F93809130078260809330078FB76E
S1134040F89499272091C9063091CA068FBF3093FE
S11340509B0A20939A0A809137078823E9F481E028
S11340608093370780E890E0A0E0B0E08093D10629
S11340709093D206A093D306B093D4060E94DB1289
S11340800E949004AB01BC01EE2400E010E220E0A9
S113409030E082E00E949D1280E090E01F910F9139
S11340A0EF9008958FB7F89499272091A3072F5F75
S11340B02093A3078FBF80911408882381F48091F3
S11340C0A107882361F48091D308853041F083E00F
S11340D08093A1070E941F1985E0809314080E9411
S11340E0741A0E9417208093C0060CC087EC93E0DA
S11340F09F938F930E94CD360E9463130E941720D2
S11341000F900F908091C006882381F7089568E08E
S11341100E946705FC0187819927089568E00E9441
S11341206705FC0181819927089568E00E9467056D
S1134130FC0186819927089568E00E946705FC01C7
S113414084819927982F882725813327822B932BC5
S11341500895BF92CF92DF92EF92FF920F931F9335
S1134160CF93DF937C01B0904607D0900309CC2411
S113417028C00D2D03701127C7010E949C20E8015F
S1134180CC0FDD1FCC0FDD1FC00FD11FC357D84F7D
S1134190288139818217930791F4C7010E949520E1
S11341A09A81981761F4C7010E948E209C81981708
S11341B031F4C7010E9487209B81981721F0C39492
S11341C0D394CB14B1F68C2D9927DF91CF911F9105
S11341D00F91FF90EF90DF90CF90BF90089568E02B
S11341E00E946705FC0184819927982F88272581DF
S11341F03327822B932B08958F929F92AF92BF9275
S1134200CF92DF92EF92FF921F93CF93DF934C01F3
S11342106B01FC018281882309F06CC09092B70E77
S11342208092B60E8281882309F05FC0109218072D
S11342305F9A86EF93E00E94E436F6018081218143
S11342409927982F88273327822B932B9F938F931B
S11342508DE094E09F938F930E94CD36F601828186
S113426023819927982F88273327822B932B9F9379
S11342708F9382E194E09F938F930E94CD36F60151
S1134280848125819927982F88273327822B932B84
S11342909F938F9387E194E09F938F930E94CD36F1
S11342A080913A0790913C072DB73EB7245F3F4F6A
S11342B00FB6F8943EBF0FBE2DBF9923A1F08F5FB8
S11342C080933A07843111F410923A07892F815070
S11342D080933C0790E0882309F491E0992319F432
S11342E082E00E9458020E94631368E0C6010E94A3
S11342F0670589C0442309F47AC0F401A080B18021
S113430080914607843009F046C0C5010E94A92067
S113431020914607622F0E943136492F9217D8F513
S1134320992359F4809103099927019664E070E078
S11343300E9451368093030929C080910309840F98
S1134340912D911D9C0123703070E901CC0FDD1F6C
S1134350CC0FDD1FC20FD31F019664E070E00E94F2
S11343605136FC01EE0FFF1FEE0FFF1FE80FF91F80
S1134370C357D84FE357F84F85E001900992815015
S1134380E1F74F5F809146074817B8F280914607DE
S11343908150809346071091460780910309810F4D
S11343A0912D911D837090707C01EE0CFF1CEE0C1E
S11343B0FF1CE80EF91E2DE837E0E20EF31EC501DE
S11343C00E949C20F70191838083C5010E9495205F
S11343D0F7018283C5010E948E20F7018483C50101
S11343E00E948720F70183831F5F1093460768E0CC
S11343F0C6010E946705F401808191810E946606CE
S1134400C4010E948506DF91CF911F91FF90EF9028
S1134410DF90CF90BF90AF909F908F900895AF9210
S1134420BF92CF92DF92EF92FF920F931F93CF939D
S1134430DF937C01162FE0913107FF27EE0FFF1F5A
S1134440E456F54FC080D18057010894A11CB11CDB
S1134450E7012696862F99279F938F938981992721
S1134460982F8827F70126813327822B932B9F933C
S11344708F9387EE96E09F938F938CE194E09F93C4
S11344808F9380E394E09F938F930E94CD368DB7F2
S11344909EB70A960FB6F8949EBF0FBE8DBF112328
S11344A029F060E870E080E890E048C0809130072F
S11344B083FF56C0B70180E00E940906882309F0F3
S11344C04FC089819927182F0027F70186819927E2
S11344D0082B192BC8010E94B703982F8F3F09F1AD
S11344E08BE0989FE0011124C75ED64F8A858F5FC9
S11344F08A878530B0F01F930F9399279F938F93EA
S11345008AE394E09F938F930E94CD36CE010E945C
S1134510A4118DB79EB706960FB6F8949EBF0FBE32
S11345208DBF86E10E945802F60183818150838306
S1134530882339F060E270E080E290E00E94CE1BB4
S113454052C00E944B06809130078F7E80933007C3
S113455060E270E080E290E00E94CE1B40E03FC049
S11345600E944B06809130078F7E8093300760E273
S113457070E080E290E00E94CE1BF50186819927CD
S1134580982F882725813327822B932B0E94B703EA
S1134590982F8F3F19F18BE0989FE0011124C75E9B
S11345A0D64F89858F5F89878A858F5F8A87992708
S11345B09F938F9388E694E09F938F930E94CD36C8
S11345C00F900F900F900F908A85853038F08AE80D
S11345D094E00E94E436CE010E94A41141E0B701A8
S11345E0C6010E94FC20DF91CF911F910F91FF9093
S11345F0EF90DF90CF90BF90AF900895BF92CF928D
S1134600DF92EF92FF920F931F93CF93DF93CDB777
S1134610DEB722970FB6F894DEBF0FBECDBF8091F0
S1134620300784FDCFC090E080913307882309F4DC
S113463091E0992309F0C6C080914707882359F473
S113464020E08091FA0D9091FB0D8F5F9F4F09F050
S113465021E0222331F0CE0101960E94790F8823B4
S113466041F040E157E260E070E083E00E94BC1258
S1134670A9C0E0913107FF27EE0FFF1FE456F54F65
S1134680E080F180D7010D911C91C8010E94A4061D
S1134690B82EC090FA0DD090FB0DC8010E94A9203D
S11346A020E090914607891708F421E0222359F06D
S11346B00E944B06F701808191810E946606C70122
S11346C00E9485067CC080914707D7012D913C91BB
S11346D0882389F0A0919A08B0919B08F9018FE290
S11346E001900D928150E1F760E0F70180819181A2
S11346F00E940F2267C009811A8168E0C9010E94E3
S11347006705FC010383012F1127028368E0D701A9
S11347108D919C910E946705FC0180818F73808339
S1134720F70140815181DA011196FD01218133277E
S1134730322F2227FA01818199278062282B392B75
S11347402183232F3327FD01218380913007886043
S11347508093300780FF0FC068E0D7018D919C9152
S11347600E946705FC01808180648083809130070A
S11347708E7F80933007F70100811181F801C68292
S11347808D2D99278783C8010E947905FC0181E753
S113479080834B2DB80180E00E945A1B99278823FF
S11347A031F4809130078061809330070BC08230F0
S11347B049F46CE1D7018D919C910E94B00683E18C
S11347C00E94580222960FB6F894DEBF0FBECDBFEA
S11347D0DF91CF911F910F91FF90EF90DF90CF90D9
S11347E0BF900895282FCB01222319F0213071F4B2
S11347F004C0642F0E940F2208956654784031F457
S113480080913807882311F0109238070895AF92E9
S1134810BF92CF92DF92EF92FF920F931F93CF93A9
S1134820DF93D82E5B01C42EE82FFF27EE0FFF1F66
S1134830EC5EF14F118210828091CF069927019688
S113484062E070E00E945136682F8093CF0600E04A
S1134850462F5527FA01EE0FFF1FEC5EF14FC08182
S1134860D181209799F0E62FE695E695E695FF2706
S1134870E657F74F808199279A012770307002C05C
S1134880959587952A95E2F780FF0DC0CA01019698
S113489062E070E00E945136682F0F5F0230C1F66B
S11348A00093CF061FC06093CF066230D8F4E8802F
S11348B083EFE80EFF240F811127102F00278E812C
S11348C09927082B192BCE010E947905FC012E2D66
S11348D0AE01B80180810E94B41A882319F085E1E1
S11348E00E945802DD2021F081E0D81689F405C029
S11348F06C2DC5010E940F220BC086E4A81688E027
S1134900B80631F480913807882311F010923807E3
S1134910DF91CF911F910F91FF90EF90DF90CF9097
S1134920BF90AF900895462F2091CF06223070F4A7
S1134930E22FFF27EE0FFF1FEC5EF14F60817181C4
S11349406817790719F4822F0E94072408950F939A
S11349501F93CF93DF932FB7F89433278091A60743
S11349608093CE0682E080932F072FBF8091CE06DE
S1134970882331F58091A7079091A8070E94881A8F
S1134980082F11270023E1F080E00E944F12C0910C
S1134990A707D091A807CE010E9479058091CF0680
S11349A0823070F4E82FFF27EE0FFF1FEC5EF14F0B
S11349B0608171816C177D0719F4402F0E940724D0
S11349C0DF91CF911F910F9108952F923F924F92B3
S11349D05F926F927F928F929F92AF92BF92CF928B
S11349E0DF92EF92FF920F931F93CF93DF93CDB794
S11349F0DEB723970FB6F894DEBF0FBECDBF8FB7D7
S1134A00F894282F33278091E80D882309F41EC3D6
S1134A10E091200EFF27EE0FFF1FE85BF84FC080E8
S1134A20D1802FBFF6018285178106818F3309F06B
S1134A30CFC2C6010E947905FC01E081D6016D91C7
S1134A404D01812F9927582F4427802F9927482BD0
S1134A50592B8FB7F89499272091C9063091CA062B
S1134A608FBF4217530721F04F5F5F4F09F0E6C233
S1134A70062F0D50E03721F0E13709F0C3C288C199
S1134A80F601878126819927982F88273327822B3F
S1134A90932B8F5F9F4F09F063C062E0C6010E94B1
S1134AA067055C01F601818520859927F82EEE249F
S1134AB03327E22AF32A0E94F60EC7010E94B703A5
S1134AC08F3F21F0F501618177271CC00E94C50644
S1134AD0182F8F3FD1F0B7010E94B406F501418130
S1134AE0212F33278BE090E0289FF001299FF00DC0
S1134AF0389FF00D1124E75EF64F4283F501618182
S1134B007727812F0E94A40F2BC081E40E94D7062F
S1134B10B82EFFEF8F1721F1282F33278BE090E079
S1134B20289FF001299FF00D389FF00D1124E75EB6
S1134B30F64F00811181C8010E945D1C1F930F93E1
S1134B408FE994E09F938F930E94CD360E94631364
S1134B50B7018B2D0E94B4060F900F900F900F9009
S1134B60C6010E943512853009F04CC2F4018085DB
S1134B7027819927F82EEE243327E22AF32AFF927D
S1134B80EF928091BB069091BC069F938F9383EB29
S1134B9094E09F938F930E94CD3665E0C6010E94F6
S1134BA072058C0160E4C6010E9420078B834801D2
S1134BB00894811C911CF801818114010894211C22
S1134BC0311CF40121819927982F88273327822BC0
S1134BD0932B2DB73EB72A5F3F4F0FB6F8943EBFD5
S1134BE00FBE2DBF8F5F9F4F09F4CAC063E0462EEE
S1134BF0512C400E511EF801838154E0652E712C16
S1134C00600E711E24819927982F88273327822BC1
S1134C10932B892BD9F5C7010E94B7038F3F99F5D0
S1134C200E94C5068F3F21F0B7010E94B4062BC035
S1134C308AE00E94D706B82EFFEF8F1721F1282FA4
S1134C4033278BE090E0289FF001299FF00D389FD7
S1134C50F00D1124E75EF64F00811181C8010E9416
S1134C605D1C1F930F938FE994E09F938F930E9491
S1134C70CD360E946313B7018B2D0E94B4060F90AA
S1134C800F900F900F90C7010E94BF04D201BC90F7
S1134C90F301A080D4019C90F1018080C7010E949F
S1134CA0240F8C01C7010E940007482F8A30F1F1BC
S1134CB08B2D9927782F66278A2D9927682B792B96
S1134CC0892D9927382F2227882D9927282B392B8E
S1134CD0809153074817C9F40233110538F5E42FBE
S1134CE0FF2793E0EE0FFF1F9A95E1F7E655F84F83
S1134CF0F182E082338322837583648381E0868337
S1134D0017824F5F4093530711C0E42FFF2783E0BE
S1134D10EE0FFF1F8A95E1F7E655F84FF182E08226
S1134D20338322837583648381E086838091D006F4
S1134D30882331F5C7010E940007E82F80915307AB
S1134D40E81750F4FF2703E0EE0FFF1F0A95E1F781
S1134D50E655F84F2B8127838091FF0D882319F0A6
S1134D603B81332351F08091FA0D9091FB0D8E1508
S1134D709F0531F48B81882319F086E10E94580243
S1134D8060E8C6010E942007882309F43BC111C1D1
S1134D90C6010E948E20182F1F5F68E0C6010E9482
S1134DA067054C01FC0111830D3108F02BC1C601CC
S1134DB00E94A92020E090914607891708F421E079
S1134DC0222309F01FC110913307812F9927B82E90
S1134DD0882309F43FC0C6010E949C203C01009135
S1134DE03107010F0150BA940D3010F4E02F02C0C6
S1134DF0E02FED50FF27EE0FFF1FE456F54F019013
S1134E00F081E02DE080F180C7010E949C2086158E
S1134E10970509F016C1C7010E949520182FC601F5
S1134E200E949520181709F00CC1C7010E948E201A
S1134E30182FC6010E948E20181709F002C1C7015D
S1134E400E948720182FC6010E948720181709F096
S1134E50F8C0D8C080914707882309F0D3C02091B7
S1134E60D208222309F481E0882309F0CBC0909171
S1134E70D108992309F481E0882309F0C3C0992358
S1134E8009F4C0C08091240EE82FFF27EE0FFF1F06
S1134E90ED50F14F00811181118210829150909355
S1134EA0D1088F5F8093240E8C3011F41092240E5D
S1134EB00115110509F4A6C0222309F4A3C08091A9
S1134EC08808E82FFF27EE0FFF1FEE57F54FE0800D
S1134ED0F1801182108221502093D2088F5F809339
S1134EE088088C3011F410928808E114F10409F454
S1134EF089C08FE2D7011D928A95E9F7E8E2F0E0D4
S1134F00CE0EDF1E87E0D6011D928A95E9F7E8ED03
S1134F10FFEFCE0EDF1ED801CD92DC928FEFF801A9
S1134F2082838EE18383C8010E943507882389F533
S1134F30CE0101960E94790F882311F5F401828134
S1134F4023819927982F88273327822B932B298114
S1134F503A8128173907A0F080E890E0A0E0B0E09B
S1134F608093D1069093D206A093D306B093D4062F
S1134F700E94DB1260E870E080E890E00E94CE1BA3
S1134F808091AC0981FD03C083E10E94580267014E
S1134F9039C0C7010E946606C8010E94850632C056
S1134FA068E0C6010E946705FC0180818078803832
S1134FB049F580E890E0A0E0B0E08093D1069093BA
S1134FC0D206A093D306B093D4060E94DB121AC073
S1134FD0812F9927582F4427802F9927482B592B05
S1134FE08FB7F89499272091C9063091CA068FBFCC
S1134FF04217530719F04F5F5F4F21F48FB7F894AE
S113500099278FBF9FB7F8948091200EE82FFF2730
S1135010EE0FFF1FE85BF84FD182C0828F5F809351
S1135020200E833010F01092200E8091E80D8150F4
S11350308093E80D892F99278FBFE1CCE13711F7D1
S1135040AFCF0150BB2009F0CECE04CF2FBF2396A3
S11350500FB6F894DEBF0FBECDBFDF91CF911F9185
S11350600F91FF90EF90DF90CF90BF90AF909F9003
S11350708F907F906F905F904F903F902F90089506
S11350804F925F926F927F928F929F92AF92BF9254
S1135090CF92DF92EF92FF920F931F93CF93DF9300
S11350A0CDB7DEB7E8970FB6F894DEBF0FBECDBF1D
S11350B0E82FFF27E233F10510F00C942B30E15573
S11350C0FF4FEE0FFF1F0590F491E02D099480919E
S11350D0230E882309F4BFC790E011E090C08091AB
S11350E08A08882309F0BEC1B6C780913D0788238A
S11350F009F0B1C781E080933D07109278080E94BF
S1135100B203882341F440ED57E060E070E084E0AE
S11351100E94BC12A0C710923D079DC70E94522056
S11351209AC75E9A8091BF06882371F58091EA0E32
S11351308A3151F580911807882309F08CC768E3F8
S113514086E198E00E94A90690937F0880937E08E8
S1135150009709F480C7E0913A07FF27EE0FFF1F7D
S1135160E755F74F0190F081E02DF093E70DE093C0
S1135170E60D309709F46FC7DC0188E301900D92C6
S1135180815009F468C7FACF0E94840264C78091F1
S1135190A207882361F52091100E3091110E4091E1
S11351A0120E5091130EEFB7F894FF2760919608F2
S11351B0709197088091980890919908E0908E08D2
S11351C0F0908F0800919008109191086E0D7F1D4A
S11351D0801F911FEFBF2093100E3093110E409348
S11351E0120E5093130E1092A2070E9469090E9496
S11351F090040E94AB1C2FC70E94891D2CC72091CC
S1135200230E812F8223C1F0E92FFF27EE0FFF1F0A
S1135210EF5EF64F4081518111821082812F80957B
S113522028232093230E992339F463E0CA010E94B2
S1135230D413110F91E0E3CF9F5F983008F00BC7B0
S1135240110FDDCF8091C106E82FFF27EE0FFF1F5E
S1135250EF5EF64F6081718141E00E94E413FBC66A
S11352600E94BB07F8C68091C1008F7B8093C10068
S11352708091C1008F778093C1001092490A1092E7
S113528077088091C10088608093C1008091C1003B
S113529080618093C1008FEF8093BD068091C1002F
S11352A080688093C1008FB7F894992710927B0A85
S11352B0109245088FBFCFC68AE00E945802CBC621
S11352C08091C100877F8093C1008091C1008F7E4F
S11352D08093C1008FEF8093BD06BDC610921F0757
S11352E010921E078FB7F8949927409122078FBF19
S11352F080912307811143E020911C0730911D0701
S113530080912407882309F0A6C68091C1068823CA
S113531009F0A1C66091110970911209621773070F
S113532009F099C60E94E41396C68FB7F89499279A
S11353302091270730912807409152078FBF8FB7DC
S1135340F894E42FFF27EE0FFF1FED53F94F31833D
S1135350208320911A07442311F02B7F01C02D7F55
S113536020931A071092250799278FBF74C64CE122
S113537068EB7EE08FEF9FEF0E943E04882309F4E0
S11353806AC60E947F0267C60E94A72464C60E9460
S1135390EC1D61C62FB7F89433278091A3078F5F64
S11353A08093A3072FBF409114084130A1F5809149
S11353B0480A8F5F8093480A863068F520917C0AFA
S11353C030917D0A809115088823E1F490E0809162
S11353D0440A882309F491E09923A1F03093130837
S11353E0209312084093150886E391E00E94150665
S11353F0AA27BB27BC01CD010E94DA111092280E06
S113540083E004C085E08093280E82E08093140832
S11354100E94741A20C6109214080E94741AF09004
S1135420280E00917C0A10917D0AF80182858F3341
S113543009F011C60E9498126F2DC8010E9493248E
S11354400AC60E94E52407C60E9462052FB7F89495
S1135450332790937F0A80937E0A2FBFFCC50E9456
S1135460FE22F9C541E0D42EEE24FF2404E11EE01F
S113547090918A088D2D892371F0F80160817181E2
S1135480118210828D2D8095982390938A0843E091
S11354908E2D0E94F2230894E11CF11C0E5F1F4F15
S11354A0F8E0EF16F10409F4D6C5DD0CE1CF8091E4
S11354B0CF06E82FFF27EE0FFF1FEC5EF14F608150
S11354C0718141E00E940724C6C580914707882363
S11354D059F4AA24BB242FEF822E922E9FEF492E3B
S11354E0592E662477249BC082ED94E00E94E43612
S11354F0B2C5022F112783E0000F111F8A95E1F72F
S11355000655184FF801828193819F938F9384816C
S113551095819F938F93808191819F938F938091A5
S1135520BB069091BC069F938F938CEE94E09F935F
S11355308F930E94CD36F801228133818DB79EB7B7
S11355400A960FB6F8949EBF0FBE8DBF9FEF2F3FF4
S1135550390739F080919A0A90919B0A28173907E4
S113556029F48FE095E00E94E43656C0F80180816A
S113557091810E94240F6C01F801848195819F938D
S11355808F93DF92CF92808191819F938F938CE24E
S113559095E09F938F930E94CD36F801E480F580C7
S11355A0EC0CFD1C8091FA0D9091FB0D9F938F9351
S11355B0FF92EF928DE495E09F938F930E94CD36F6
S11355C08DB79EB70E960FB6F8949EBF0FBE8DBFD3
S11355D0F801208131818091FA0D9091FB0D478172
S11355E02817390771F4848195819093FD0D809378
S11355F0FC0D4093FF0D8EE695E00E94E4362701F2
S11356000BC0442349F4F2E3CF16D10428F4E81480
S1135610F90410F4580147010894611C711C262DEB
S113562080915307681608F464CF2FEF82162FEF8A
S1135630920609F48CC08FEF48168FEF580691F04C
S11356408091FF0D882341F08091FC0D9091FD0D18
S11356500A968816990630F0C4010F9684159505AC
S113566008F075C080911C0E90911D0EA0911E0E25
S1135670B0911F0E0196A11DB11D80931C0E909335
S11356801D0EA0931E0EB0931F0E8FE795E09F93FF
S11356908F930E94CD368091FA0D9091FB0D0E945C
S11356A0B7030F900F908F3F81F0282F33278BE0A3
S11356B090E0289FF001299FF00D389FF00D1124F0
S11356C0E75EF64F8581877F8583F501808191812F
S11356D00E94BF04F501808191810E94B7038F3F2E
S11356E041F0EBE08E9FF0011124E75EF64F128645
S11356F01186F501808191819F938F9386E895E0CF
S11357009F938F930E94CD36F50180819181909370
S1135710FB0D8093FA0D848195819093FD0D809308
S1135720FC0D87818093FF0DC201881999090F90A0
S11357300F900F900F90459750F08CE995E09F9350
S11357408F930E94CD360E9419130F900F90809171
S11357503907882361F4FFEF4F16FFEF5F0639F432
S11357602FEF82162FEF920611F00E9489021092F9
S1135770390771C480913807882309F06CC4E0911B
S11357809208F091930810828091FA0D9091FB0D8C
S1135790E0919208F09193088283892F992781835D
S11357A080914707882329F08091FC0D9091FD0D8D
S11357B020C08091FA0D9091FB0D0091FC0D109189
S11357C0FD0DEFEF8F3F9E0781F4E0919208F09179
S11357D093080483812F99278383E0919208F091A1
S11357E093088081806880830CC00E94240F800FFE
S11357F0911FE0919208F09193088483892F99274F
S11358008383E0919208F0919308838144812181FC
S113581062819927982F88275527842B952B9F934E
S11358208F933327322F22277727262B372B3F932B
S11358302F938091BB069091BC069F938F9384EA2B
S113584095E09F938F930E94CD3662E086E498E0C2
S11358500E9467056C0168E086E498E00E94720586
S113586075E0A72EB12CA80EB91E40E0FF2400E07D
S113587010E08DB79EB708960FB6F8949EBF0FBE82
S11358808DBF6BE0862E912C53E0E52E8091350779
S113589099270196800F911F6AE070E00E945136AB
S11358A09C019927889DD001899DB00D989DB00DCC
S11358B01124A75EB64FFD018581992780FF15C08D
S11358C081FF13C08D919C911197FE9CA00111241E
S11358D04A0D5B1DFA018183892F99278083FD017D
S11358E08681FA018283F394422F0930110529F04D
S11358F00F5F1F4FF6E0FF1548F640933507809180
S113590034078F5F809334078150F60181838F2D94
S11359108F7080838FEF80934C0880934D0886E4CA
S113592098E00E947905FC0180E7808383E0F89E7B
S1135930C0011124895F482F552766E478E081E08F
S11359400E945A1B9927882341F481E080933807E9
S11359508AEB95E00E94E4367EC3843009F07BC371
S11359601092360778C32FB7F894332780916A00D2
S11359708F73806C80936A00EF9A8FEF8093BD06DB
S113598080E88CBB2FBF67C32FB7F894332780916F
S11359906A008F7C806380936A00EE9A8FEF809315
S11359A0BD0680E48CBB2FBF56C38091B50981FF2F
S11359B003C08D7F8093B50910923D078091400705
S11359C00E94841348C310923D0745C310923D07BB
S11359D042C310923D073FC310923D073CC310924F
S11359E03D0739C310923D0736C310923D0700911D
S11359F0EF0D1091F00D80914007882339F085EC6C
S1135A0095E00E94E4360E94AB1B12C01F930F93D3
S1135A1082EF95E09F938F930E94CD3610931307E6
S1135A20009312070E94ED1B0F900F900F900F90A0
S1135A300E94631310C30E94331C0DC310923D07D0
S1135A400091F10D1091F20D80914007882339F0F7
S1135A508CE096E00E94E4360E94101CA0C01F93C4
S1135A600F9389E396E09F938F930E94CD36109312
S1135A70170700931607CE01019690938B07809326
S1135A808A0780911207909113078A83892F992797
S1135A90898380911407909115078C83892F992706
S1135AA08B830E83812F99278D8311E018AB1FA65A
S1135AB08091BB069091BC068887292F33272F83BA
S1135AC08AAB29AB8091FA0D9091FB0D0F900F904A
S1135AD00F900F90FFEF8F3F9F0781F0909306097F
S1135AE0809305099F938F9384E596E09F938F930A
S1135AF00E94CD360F900F900F900F908091050962
S1135B0090910609E0918A07F0918B0787AB892F62
S1135B10992786AB83EF9DE00E94790F8091F30D66
S1135B209091F40DE0918A07F0918B0783AB892F54
S1135B30992782ABE0918A07F0918B0786A927A960
S1135B409927982F88273327822B932B0E94240F81
S1135B50E0918A07F0918B0785AB892F992784AB55
S1135B6020918A0730918B0790913C07943108F07B
S1135B7069C280913B07E82FFF27EE0FFF1FE7550F
S1135B80F74F318320838F5F80933B07843111F477
S1135B9010923B079F5F90933C071092BE0682E0F1
S1135BA00E9458020E94631356C210923D0753C2CA
S1135BB010923D0750C210923D074DC210923D070E
S1135BC04AC210923D0747C210923D0744C2109248
S1135BD03D0741C210923D073EC210923D073BC2B1
S1135BE010923D0738C210923D0735C210923D070E
S1135BF032C210923D072FC22FB7F89433278091F9
S1135C00B60A8093D70683E0809341072FBF209183
S1135C10D7068FB7F89499272093D8068FBF2223ED
S1135C2009F019C280917808E82FFF27EF31F105B8
S1135C3008F011C2EF51FF4FEE0FFF1F0590F491D2
S1135C40E02D099482E38093040924E039E041E0E3
S1135C5063E570E083E00E942E1F882309F4FBC1F2
S1135C60809340070E948E02F6C120913F0728606E
S1135C7020933F078DE18093FA0780E48093FB072C
S1135C801092FC071092FD071092FE079FE7909375
S1135C90FF0780E3809300089093010882E08093DB
S1135CA0020881E0809303088FEF809304088093B7
S1135CB0050885E08093060884E18093070887E05F
S1135CC080930808109209088AE080930A082093B8
S1135CD00B0810920C082AEF37E043E163E570E00B
S1135CE083E00E942E1F882309F4B5C180934007E6
