S01B00006275696C642F6D61676F6E6F64652F6D61696E2E73726563AC
S11300000C9403020C94F20D0C94170E0C943C0EF9
S11300100C94610E0C94860E0C94AB0E0C94D00EC2
S11300200C94F50E0C9422020C9422020C942202DD
S11300300C9422020C9422020C9422020C942202AC
S11300400C94D30D0C94B50D0C94BF0D0C94C90DE8
S11300500C94920D0C9422020C9422020C94220211
S11300600C9422020C94D90B0C9422020C945C0C78
S11300700C9422020C9422020C9422020C9422026C
S11300800C9422020C9422020C9422020C9422025C
S11300900C94750D0C9422020C94870D0C945C3214
S11300A00C9422020C9422020C9422020C9422023C
S11300B00C9422020C9422020C9422020C9422022C
S11300C00C9422020C9422020C9422020C9422021C
S11300D00C9422020C9422020C9422020C9422020C
S11300E00C9422020C94121A0C9422020C946E1A90
S11300F00C94F81A0C949C1A0C9422020C94401A36
S11301000C94CA1A0C94DC090C94E5190C94120A88
S11301100C94CB090C9422020C9422020C9422021B
S11301200B220D221F22292233229C229C229C2254
S11301309C229C229C229C229C2247223D225122CA
S11301405B2264226D2276227F22FE218F2291225D
S11301509C2293228B229522972299228D22672416
S11301608A25AE24C224D62461266126612661260E
S11301706126612661266126FE24EA2412252625AD
S11301803A254E25622576255324D025E825612677
S113019003269F251B2632264926B825522A552A8E
S11301A0582A5B2A5E2A612A642A672A6A2A922AC2
S11301B0962AA42AA72AC92ACC2ACF2AD22A3B2B98
S11301C01B2E262EEB2EEE2EF12EF42EF72E062FBE
S11301D0162F502F502F502F502F502F502F242F89
S11301E04A2F4D2F502F502F502F502F502F502F1C
S11301F0502F502F502F502F502F502F502F532F00
S113020000002110422063308440A550C660E7708E
S1130210088129914AA16BB18CC1ADD1CEE1EFF136
S11302203112100273325222B5529442F772D662DE
S1130230399318837BB35AA3BDD39CC3FFF3DEE386
S11302406224433420040114E664C774A44485542E
S11302506AA54BB528850995EEE5CFF5ACC58DD5D6
S11302605336722611163006D776F6669556B4467E
S11302705BB77AA719973887DFF7FEE79DD7BCC726
S1130280C448E5588668A7784008611802282338CE
S1130290CCC9EDD98EE9AFF9488969990AA92BB976
S11302A0F55AD44AB77A966A711A500A333A122A1E
S11302B0FDDBDCCBBFFB9EEB799B588B3BBB1AABC6
S11302C0A66C877CE44CC55C222C033C600C411C6E
S11302D0AEED8FFDECCDCDDD2AAD0BBD688D499D16
S11302E0977EB66ED55EF44E133E322E511E700EBE
S11302F09FFFBEEFDDDFFCCF1BBF3AAF599F788F66
S11303008891A981CAB1EBA10CD12DC14EF16FE145
S11303108010A100C230E32004502540467067607D
S1130320B9839893FBA3DAB33DC31CD37FE35EF395
S1130330B1029012F322D2323542145277625672CD
S1130340EAB5CBA5A89589856EF54FE52CD50DC5E5
S1130350E234C324A014810466744764245405441D
S1130360DBA7FAB79987B8975FE77EF71DC73CD735
S1130370D326F2369106B01657667676154634566D
S11303804CD96DC90EF92FE9C899E9898AB9ABA985
S11303904458654806782768C018E1088238A328BD
S11303A07DCB5CDB3FEB1EFBF98BD89BBBAB9ABBD5
S11303B0754A545A376A167AF10AD01AB32A923A0D
S11303C02EFD0FED6CDD4DCDAABD8BADE89DC98D25
S11303D0267C076C645C454CA23C832CE01CC10C5D
S11303E01FEF3EFF5DCF7CDF9BAFBABFD98FF89F75
S11303F0176E367E554E745E932EB23ED10EF01EAD
S113040000020E060C0411241FBECFEFD1E4DEBFA0
S1130410CDBF16E0A0E0B2E0ECEBF1E700E00BBFEB
S113042002C007900D92A43EB107D9F71FE0A4EED5
S1130430B6E001C01D92AC31B107E1F70E94942FE0
S11304400C94DD380C9400008FB7F8949927089524
S11304508FBF08952FB7F8943327EFEDF0E0808134
S11304608D7180832FBF8FEF80938E0608952FB7F1
S1130470F8943327EFEDF0E080818E7180832FBFF5
S11304808FEF80938E0608958FB7F8949927209163
S1130490BC002093150A8FBF08950E9444028091E6
S11304A0150A8E7F80698093150A8093BC00089595
S11304B0282F9FB7F894E82FFF27E75DF84F808136
S11304C08F3F81F4E091C00EE21771F40BC02093CA
S11304D0E90D04C0FF27E75DF84F20832093C00E89
S11304E020E007C025E005C08091E90D8F3F91F71A
S11304F0EECF892F99278FBF822F9927089586E100
S11305000E9458029927089583E10E94580299276E
S113051008959091150A882311F0946001C09B7F7F
S11305209093150A8FEF80938E0608950F931F936F
S1130530082F142F90911407913001F582E08093D5
S113054014077093530860935208309377072093ED
S11305507607409317070093DD0E1092DE0D9093FB
S113056015070E9444029091150A91689F7A90930E
S1130570150A202F332720FD09C00DC0992319F433
S113058084E090E025C085E090E022C090629093E2
S1130590150A84E00AC0123020F4112359F022FF16
S11305A007C090649093150A83E0809314070AC0EF
S11305B01130D1F321FF06C085E0809314079061C8
S11305C09093150A8091150A8093BC0080E090E016
S11305D01F910F9108951F93CF93DF93982F8FB797
S11305E0F894282F3327422F80911307882309F08A
S11305F046C011E0109313079093880A2FBF8FB75A
S1130600F894C82FDD27809114078823C9F4589AD9
S1130610599A1092B90088E98093B8001092BA00F0
S11306201092BC000E94440281E00E9489028091E1
S1130630150A8E7F8093150A8093BC0010931407CB
S1130640CFBF8FB7F894C82FDD279C2F8091A806C1
S1130650813099F480911307813021F481E30E9461
S1130660580209C0823049F48091880A8093A80610
S113067083E080931307CFBF07C09FBF05C080915D
S1130680880A891721F42FBF80E090E021C0E92F68
S1130690FF27EA59F74F80818F3F89F4E091A7063D
S11306A0E91789F40CC09093A60604C0FF27EA5901
S11306B0F74F90839093A70680E090E002C085E016
S11306C090E04FBF05C08091A6068F3F79F7EBCF2E
S11306D0DF91CF911F91089580910F07882319F01E
S11306E085E090E0089581E080930F0784E1809392
S11306F04A088091110783FD05C010920F0781E01D
S113070090E0089580E00E94EB029927882319F471
S113071080E090E0089510920F0799270895AC01A6
S1130720EBEEF8E080E090E09C01858180FF05C05D
S1130730808191818417950741F0C90101963B9608
S11307408A30910589F72FEF30E0C90108951F938E
S11307501FB7F8948091B90E882341F487E00E9472
S11307605802882319F481E08093B90E812F9927C8
S11307708FBF1F910895382FFA01422F2D3118F0A1
S113078082E090E008956683872F992785833387D5
S113079021878091F0069091F106892B19F085E06C
S11307A090E008952FB7F894332785E08093F306FB
S11307B01092F406F093EF06E093EE0682E090E0E8
S11307C09093F1068093F0061092F6061092F506C7
S11307D0445F4093F2062FBF8FB7F894282F332736
S11307E080914D0A8A3011F42FBF19C02FBF9FB7D3
S11307F0F89480917908882311F020E006C081E004
S11308008093790810927A0821E0892F99278FBF65
S1130810222329F00E94A70380E090E0089510921B
S1130820F1061092F00681E090E00895CF93DF93F3
S1130830DB01FB0135968183892F9927EB018D8399
S113084084E686838091E3089091E408892B19F06B
S113085085E090E029C07093E4086093E308448342
S113086080919206882319F480E090E01DC086816F
S1130870EB016D817727762F662721813327622B41
S1130880732B10929206242FAD010E94BB0399276B
S1130890282F882339F081E0809392061092E4088F
S11308A01092E308822F9927DF91CF910895EF9258
S11308B00F931F93AE2D99E0899FF0011124E55AFF
S11308C0F64F4083518362837383048315832683A5
S11308D03783A17080858E7F8A2B8260808784E035
S11308E00E9458021F910F91EF9008954FB7F8940A
S11308F055272091E100622F2091E200722F209170
S1130900E300822F2091E400922F4FBF08950F93AC
S11309101F930FB7F8941091E5080E9476049B0189
S1130920AC018091E00083FF05C01F5F0E94760444
S11309309B01AC01802F99278FBF612F77278827D0
S11309409927FAE1660F771F881F991FFA95D1F747
S1130950E6E05695479537952795EA95D1F7622BAA
S1130960732B842B952B1F910F9108950E948F0355
S11309708F3F19F481E090E00895282F33278BE00E
S113098090E0289FF001299FF00D389FF00D11246D
S1130990E551F74F85818860858380E090E0089574
S11309A02F923F924F925F926F927F928F929F927B
S11309B0AF92BF92CF92DF92EF92FF920F931F9369
S11309C0CF93DF93CDB7DEB729970FB6F894DEBF88
S11309D00FBECDBF6FB76983F8942090560830904E
S11309E05708409058085090590866247724882462
S11309F01EE4A12EB3E8BB2ECC24DD24EE24FF2478
S1130A0000E010E0222D332D442D552D662D772D39
S1130A10882D90E00E94C6332A833B834C835D83F8
S1130A206E837F8388879987822E932EA42EB52E7A
S1130A302401350100E20E94C434A22EB32EC42E38
S1130A40D52EA301920156954795379527952A0DE2
S1130A503B1D4C1D5D1D57FF05C05F772F5F3F4F4A
S1130A604F4F5F4F209356083093570840935808D0
S1130A7050935908E9818E2F99278FBFCA01B90174
S1130A8029960FB6F894DEBF0FBECDBFDF91CF918C
S1130A901F910F91FF90EF90DF90CF90BF90AF9098
S1130AA09F908F907F906F905F904F903F902F908A
S1130AB008950E94D004DC01CB010895AF92BF9247
S1130AC0CF92DF92EF92FF920F931F93F82E5A0169
S1130AD06B010E948704AB01BC0101E0E02E96018A
S1130AE085018F2D0E9457041F910F91FF90EF9065
S1130AF0DF90CF90BF90AF9008956D3118F080E0F3
S1130B0090E008950C96089568E00E947D0508958C
S1130B106E5F0E947D05009709F0029608950B967A
S1130B200895FC0182819927982F882721813327F2
S1130B30822B932B25E0969587952A95E1F7817072
S1130B4090700895EF92FF920F931F93CF93DF93CA
S1130B507B018C018FB7F894C82FDD270E9476049F
S1130B609B01AC01C801B701623071058105910593
S1130B7020F462E070E080E090E0260F371F481F09
S1130B80591FDA01C901B093F400A093F3009093C4
S1130B90F2002093F10082E08093E0008091DF0076
S1130BA082608F718093DF008FEF80938E06CFBFBA
S1130BB0DF91CF911F910F91FF90EF900895FB016A
S1130BC021E030E002C0220F331F8A95E2F720951E
S1130BD084A5822384A70895CF93DF93EC010E9418
S1130BE09105882339F18A8129819927982F8827AB
S1130BF03327822B932B87749C7C81549848D1F49F
S1130C008F814E812FB7F894332760919A067091A3
S1130C109B062FBF20E09927982F88275527842BE0
S1130C20952B8617970709F021E081E02827822F6A
S1130C30992702C080E090E0DF91CF910895FB01F5
S1130C4021E030E002C0220F331F8A95E2F784A529
S1130C50822399270895EF92FF920F931F937C01AB
S1130C608FB7F89499270091500A1091510A0F5E9A
S1130C701E4F1093510A0093500A015111408FBF27
S1130C8082E10E945802C801B7010E94723544965D
S1130C901F910F91FF90EF900895FC0127813085FB
S1130CA0C901A3E0880F991FAA95E1F7820F931F4A
S1130CB0860F971F6AE070E00E9472357087678321
S1130CC0089580910307E82FFF27EE0FFF1FE259D5
S1130CD0F54F0190F081E02D20910507222351F07A
S1130CE08F5F809303078D3011F410920307215016
S1130CF020930507CF010895AC012091A4082C305E
S1130D0018F081E090E0089580915A08682F620FEE
S1130D10712D711DFB016C30710508F03C97EE0FCD
S1130D20FF1FEC5AF54F518340832F5F2093A40893
S1130D3080E090E00895AC012091A3082C3018F0D5
S1130D4081E090E008958091F40D682F620F712D79
S1130D50711DFB016C30710508F03C97EE0FFF1F0D
S1130D60ED53F14F518340832F5F2093A30880E01C
S1130D7090E00895FC0180818D50992708950E9488
S1130D80BA06885099270895685F0E947D050097E8
S1130D9009F008960895FC01635F608308959BE061
S1130DA0899FF0011124E551F74F7183608312820A
S1130DB01382148285E08583168210861782089533
S1130DC080E090E0E0EFF8E09C01808180FF08C0C3
S1130DD0C90101963B968A309105B1F72FEF30E0B7
S1130DE0C9010895982FAFEF60E070E040E050E053
S1130DF0E0EFF8E08081282F332720FF0BC021FF8C
S1130E0009C023FD07C0228133812617370710F05C
S1130E10A42FB9014F5F5F4F3B964A30510551F7FC
S1130E20892F99276817790718F48FEF90E00895B0
S1130E308A2F99270895AC01309125078FEF4F3FF2
S1130E40580711F020E012C0832F99270895E22F4C
S1130E50FF2763E0EE0FFF1F6A95E1F7E458F84FB0
S1130E60808191818417950719F02F5F231779F7F3
S1130E70822F992708951F93CF93DF93162FC0E0F5
S1130E80D0E06AE10E948805FC01808181238117FA
S1130E9011F4C1E0D0E0CE01DF91CF911F9108950C
S1130EA0AC01209105072D3018F081E090E0089501
S1130EB080910407E82FFF27EE0FFF1FE259F54F3B
S1130EC0518340838F5F809304078D3011F4109217
S1130ED004072F5F2093050780E090E00895CF93E7
S1130EE0DF9310929206A091E308B091E408109762
S1130EF021F08091F30D80FF08C081E08093920679
S1130F0017C086E00E94580213C0FD013596248163
S1130F103327ED016D817727762F66278181992705
S1130F20682B792BAD0186810E94BB03882349F786
S1130F30DF91CF91089580914D0A8A3021F48091F8
S1130F401708843021F081E08093EB06089589E04E
S1130F500E9458021092EB0608952FB7F894332795
S1130F608093C600E0ECF0E08081806480832FBF32
S1130F700895FC016115710519F481E090E008956C
S1130F8080916E0890916F08892B19F085E090E0AC
S1130F9008957093D30D6093D20DF0936F08E0938E
S1130FA06E08109248081092470881E0809349081F
S1130FB08091C00080648093C0008091C1008064EF
S1130FC08093C100808121E030E030934808209371
S1130FD047080E94AD0780E090E008958FB7F89429
S1130FE099272091FC062E7F2093FC062EE7209360
S1130FF05E078FBF61E070E08EE597E00E94B9075D
S1131000992708951F93CF93DF938FB7F894109285
S1131010B90E20914D0A40E0283009F441E030E057
S1131020293009F431E0442311F4332351F01092B0
S11310304D0AE0915A09FF27EE0FFF1FE958F74FB9
S1131040108299278FBF442311F4332331F19FB7C2
S1131050F8948091F10D8F5F8093F10D8091670872
S1131060833479F42091DA088091D908821779F0D1
S1131070822F8F5F8093DA08863048F01092DA0866
S113108006C0A0E0442309F4A1E071E002C0A0E09E
S113109070E0892F99278FBF06C0222311F010E03A
S11310A06CC0A0E070E08FB7F89499272091EB060C
S11310B08FBF222341F08FB7F89499272AE0209319
S11310C04D0A8FBF42C08FB7F89499276091770873
S11310D0409179088FBF8FB7F894282F332750E0B9
S11310E09091D9088091DA08981709F451E02FBF3C
S11310F0552341F5662331F55FB7F89482E0809378
S113110077088FB7F894282F332740E09091D908B7
S11311108091DA08981709F441E02FBF442311F0B5
S113112080E006C0E091DA08FF27E752F74F82819A
S11311308093780883E48093670810925A09852F76
S113114099270EC04150423010F010E00BC08FB709
S1131150F894992725E42093670821E020935A09FD
S11311608FBF11E0772349F08FB7F8949927A093A4
S1131170F4068FBF8BE00E9458028FB7F894C82FF3
S1131180DD2780914D0A8A3021F40E949B07CFBF4E
S11311901DC0CFBF1123D1F02FB7F894332710927D
S11311A0DC0E1092DB0E10925D0881E080934D0AF4
S11311B02FBF0E94EE07882349F08FB7F894992730
S11311C029E020934D0A8FBF0E94A703DF91CF919E
S11311D01F910895AF92BF92CF92DF92EF92FF9248
S11311E00F931F930E9487047B018C012091680850
S11311F03091690840916A0850916B0880916008A9
S113120090916108A0916208B0916308820F931FC6
S1131210A41FB51FE216F3060407150730F0821762
S11312209307A407B50758F005C082179307A407CE
S1131230B507E0F5E816F9060A071B07B8F59C019F
S1131240AD012E193F09400B510B213060E03607E8
S113125060E0460762E0560768F180E090E0A0E0B5
S1131260B2E0E80EF91E0A1F1B1FE0926808F09214
S1131270690800936A0810936B0880E090E0A0E08E
S1131280BEEFE80EF91E0A1F1B1F205030404040DD
S11312905240209360083093610840936208509351
S11312A0630820E030E040E052E014C020E030E089
S11312B040E050E08093680890936908A0936A081E
S11312C0B0936B0810926008109261081092620843
S11312D01092630859016A0136E0AA0CBB1CCC1CAD
S11312E0DD1C3A95D1F726E0EE0CFF1C001F111F00
S11312F02A95D1F70E9476049B01AC012E5F3F4FE3
S11313004F4F5F4FDA01C9018E199F09A00BB10B32
S11313108A159B05AC05BD0530F4A80197012A0D7B
S11313203B1D4C1D5D1D5093F8004093F700309316
S1131330F6002093F50081E08093E0008091DF00C7
S113134081608F718093DF008FEF80938E061F91F1
S11313500F91FF90EF90DF90CF90BF90AF900895E2
S11313600F931F930FB7F894112760936808709335
S1131370690880936A0890936B08209360083093FF
S1131380610840936208509363080E94EA080FBF03
S11313901F910F9108951F920F920FB60F9211246F
S11313A08F938091E5088F5F8093E5088F910F906C
S11313B00FBE0F901F9018951F920F920FB60F92A9
S11313C011242F933F934F935F936F937F938F9346
S11313D09F93AF93BF93EF93FF930E943702809143
S11313E0600890916108A0916208B0916308009729
S11313F0A105B10521F483E00E94580202C00E94B5
S1131400EA08FF91EF91BF91AF919F918F917F91E6
S11314106F915F914F913F912F910F900FBE0F905D
S11314201F9018951F920F920FB60F9211240F90D0
S11314300FBE0F901F901895E0E0F2E06927660F49
S1131440F11DE60FF11DC895982F802D3196C89592
S113145090250895982F8091F706882389F599237C
S113146079F531E03093F706809193068093F8067E
S11314702091EC06822F8170809324078091980636
S1131480909199069093FA068093F9068091ED065F
S11314908093FB0632273170267EE32FFF27EE0F61
S11314A0FF1FEC56F94F80819181909399068093A8
S11314B09806232B2093EC068CE00E945802089592
S11314C08091EC0680FF02C08B7F01C08D7F8093EA
S11314D0EC0608950F931F93082F162F8091170879
S11314E08130D9F0813038F0823009F44AC0833039
S11314F009F028C159C0002309F458C11092C60D3F
S11315001092C50D1092530A1092DF0D10924B08E1
S11315101092E7081092E60839C1002309F046C189
S11315208091E6089091E7080E941C0A9093E708CE
S11315308093E60882E0809317081093DF0D14343B
S113154009F000C125C18695869503C08091EC06FB
S11315508695817009F0F6C08091EC06992311F00C
S1131560846001C082608093EC068091EC06877EE3
S113157088608093EC061092ED068FEF80939306BB
S113158015C1002309F0DEC060934B088091E60882
S11315909091E7080E941C0A9093E7088093E6085C
S11315A083E08093170802C18091530A8F3F09F4A6
S11315B0C9C0002309F461C0823008F4C3C0E091BB
S11315C0C50DEE2309F4EBC04E2F4150E42FFF2745
S11315D0EB53F24F82819927382F2227442311F4A9
S11315E0E2E002C0E42FE150FF27EB53F24F828187
S11315F09927282B392B8091E6089091E708281722
S1131600390709F09FC080E00E942A0A30914B08F4
S11316108091D9082091DA08982F9F5F963008F0BE
S113162090E0921771F0E82FFF27E752F74F3283CB
S11316308F5F8093D908863010F01092D9080E94E9
S1131640A7031092C60D1092C50D94E0909317084D
S11316501092530A1092DF0D10924B081092E70873
S11316601092E6088091FC068D7F8093FC068091A1
S1131670EB06882309F49AC084C0823008F44EC073
S1131680E091C60DFF27EB53F24F8281482F552777
S1131690342F2091EC06822F86958695869583704B
S11316A099278130910519F00297F9F40EC0277E2D
S11316B020612093EC06442311F485E001C080E00E
S11316C08093ED063093930610C08091ED068F321F
S11316D060F4E0919806F0919906E80FF11D4083BB
S11316E08091ED068F5F8093ED068091C60DE82F03
S11316F0FF27EB53F24F62818F5F8093C60D8330D7
S113170010F01092C60D77278091E6089091E708B3
S11317100E941C0A9093E7088093E6088091C50D07
S1131720E82FFF27EB53F24F12838F5F8093C50D91
S1131730833010F01092C50D8091530A8F5F80930F
S1131740530A34C01092C60D1092C50D14E01093C4
S113175017081092530A1092DF0D10924B08109242
S1131760E7081092E6088091FC068D7F8093FC06C2
S113177081E00E942A0A8091EB06882329F01093C5
S113178017080E949B0712C0002381F081E009CF53
S11317908091EC06982F917080FDD5CED7CE8091A4
S11317A0C90D9927382F222742E01CCF1F910F9192
S11317B008951F920F920FB60F9211242F933F9307
S11317C04F935F936F937F938F939F93AF93BF9345
S11317D0EF93FF938091C00087FF42C06091C600E1
S11317E0E091E808F091E908309719F18091B70E7B
S11317F09091B80EE80FF91F608301969093B80E8C
S11318008093B70E2091DE0E3091DF0E821793077E
S113181038F11092E9081092E80880911B0A83308D
S1131820F9F08091C1008F778093C10010921B0A58
S113183017C06E3719F460E081E010C08091FC0697
S11318406D3721F482608093FC060AC081FF05C0D5
S11318508D7F8093FC0680E2682780E00E946A0AFC
S1131860FF91EF91BF91AF919F918F917F916F9174
S11318705F914F913F912F910F900FBE0F901F904A
S11318801895982F8D57823068F48091FC068160FA
S11318908093FC0680E289278093520A8DE7809327
S11318A05E0702C090935E0761E070E08EE597E00A
S11318B00E94B9079927089578941F920F920FB642
S11318C00F921124FF920F931F932F933F934F93E3
S11318D05F936F937F938F939F93AF93BF93CF93B4
S11318E0DF93EF93FF93209147083091480880914C
S11318F0D20D9091D30D2817390780F4E0916E082A
S1131900F0916F08E20FF31F80812F5F3F4F3093F8
S11319104808209347080E94AD07D1C010926F0871
S113192010926E08109249088091C1008F7B8093B9
S1131930C100FFB6F8948091FC0680FF0EC08E7F34
S11319408093FC068091520A80935E0761E070E008
S11319508EE597E00E94B907AFC080914D0A8430AC
S113196009F48CC0853040F4823021F18330B8F51D
S1131970813009F09CC00DC0863009F48DC08630DA
S113198008F483C0873009F48EC0883009F08FC012
S113199091C0809167080E94410C082F83E08093D6
S11319A04D0A609167088091DB0E9091DC0E0E94D5
S11319B01C0A10C08091F10D0E94410C082F83E095
S11319C080934D0A6091F10D8091DB0E9091DC0EB5
S11319D00E941C0A9093DC0E8093DB0E66C0E0919B
S11319E05A09FF27EE0FFF1FE858F74F80810E9426
S11319F0410C082F10915A09C12FDD27FE01EE0F6B
S1131A00FF1FE858F74F60818091DB0E9091DC0E48
S1131A100E941C0A9093DC0E8093DB0E20915D08DB
S1131A202F5F20935D08113039F58091F306E09122
S1131A30EE06F091EF06E80FF11DE0818F5F8093D1
S1131A40F3069091F206981730F482E080937908B7
S1131A5040E050E002C04E2F5527DE01AA0FBB1F05
S1131A60FD01E958F74F8081823031F02F3F21F09A
S1131A70A858B74F4C9319C084E012C08091DB0E74
S1131A800E94410C082F85E00BC08091DC0E0E945F
S1131A90410C082F86E004C00E94EE07082F87E05F
S1131AA080934D0A02C088E003C0002329F089E036
S1131AB080934D0A0E94A7038F2D99278FBFFF9112
S1131AC0EF91DF91CF91BF91AF919F918F917F91D2
S1131AD06F915F914F913F912F911F910F91FF90C3
S1131AE00F900FBE0F901F9018951F920F920FB674
S1131AF00F9211248F938091C80087FF02C08091B8
S1131B00CE008F910F900FBE0F901F901895789470
S1131B101F920F920FB60F9211240F900FBE0F90C9
S1131B201F9018951F920F920FB60F9211248F9346
S1131B309F938091F50D8F5F8093F50D80915E08E2
S1131B4090915F08019690935F0880935E08892BBB
S1131B5029F480915B088F5F80935B089F918F913C
S1131B600F900FBE0F901F9018951F920F920FB6F3
S1131B700F9211240F900FBE0F901F9018951F9273
S1131B800F920FB60F9211240F900FBE0F901F905B
S1131B9018951F920F920FB60F9211240F900FBE3B
S1131BA00F901F9018951F920F920FB60F92112449
S1131BB00F900FBE0F901F901895863019F0873044
S1131BC081F408C0EE988FEF80938E0689E10E941D
S1131BD058020895EF988FEF80938E0688E10E9453
S1131BE0580208951F920F920FB60F9211242F934B
S1131BF03F934F935F936F937F938F939F93AF9391
S1131C00BF93EF93FF9380E00E94DD0DFF91EF916E
S1131C10BF91AF919F918F917F916F915F914F9100
S1131C203F912F910F900FBE0F901F9018951F9208
S1131C300F920FB60F9211242F933F934F935F93FC
S1131C406F937F938F939F93AF93BF93EF93FF9380
S1131C5081E00E94DD0DFF91EF91BF91AF919F91C3
S1131C608F917F916F915F914F913F912F910F9041
S1131C700FBE0F901F9018951F920F920FB60F92E0
S1131C8011242F933F934F935F936F937F938F937D
S1131C909F93AF93BF93EF93FF9382E00E94DD0D78
S1131CA0FF91EF91BF91AF919F918F917F916F9130
S1131CB05F914F913F912F910F900FBE0F901F9006
S1131CC018951F920F920FB60F9211242F933F93E2
S1131CD04F935F936F937F938F939F93AF93BF9330
S1131CE0EF93FF9383E00E94DD0DFF91EF91BF918D
S1131CF0AF919F918F917F916F915F914F913F91A0
S1131D002F910F900FBE0F901F9018951F920F9256
S1131D100FB60F9211242F933F934F935F936F93BA
S1131D207F938F939F93AF93BF93EF93FF9384E03D
S1131D300E94DD0DFF91EF91BF91AF919F918F9123
S1131D407F916F915F914F913F912F910F900FBEB3
S1131D500F901F9018951F920F920FB60F92112497
S1131D602F933F934F935F936F937F938F939F939F
S1131D70AF93BF93EF93FF9385E00E94DD0DFF9136
S1131D80EF91BF91AF919F918F917F916F915F91EF
S1131D904F913F912F910F900FBE0F901F90189568
S1131DA01F920F920FB60F9211242F933F934F93CC
S1131DB05F936F937F938F939F93AF93BF93EF93AF
S1131DC0FF9386E00E94DD0DFF91EF91BF91AF91EB
S1131DD09F918F917F916F915F914F913F912F913F
S1131DE00F900FBE0F901F9018951F920F920FB671
S1131DF00F9211242F933F934F935F936F937F938D
S1131E008F939F93AF93BF93EF93FF9387E00E94C9
S1131E10DD0DFF91EF91BF91AF919F918F917F91D4
S1131E206F915F914F913F912F910F900FBE0F9043
S1131E301F901895CF93DF93882319F4CFEFDFEF2A
S1131E4018C0682F772784EC99E00E948635EB014F
S1131E506B3F710510F0CFEFDFEFDF93CF9380E09E
S1131E6092E09F938F930E9402360F900F900F90F1
S1131E700F90CE01DF91CF9108950F931F93CF93CD
S1131E80DF93CBEED8E000E010E08D8180FF18C036
S1131E908F8198859F938F93888199819F938F9346
S1131EA01F930F9385E192E09F938F930E940236D4
S1131EB08DB79EB708960FB6F8949EBF0FBE8DBF20
S1131EC00F5F1F4F2B960A301105F9F6DF91CF9162
S1131ED01F910F9108950F931F93CF93DF938C015C
S1131EE09F938F9380918C0690918D069F938F93EF
S1131EF08EE292E09F938F930E9402360E943D0FE0
S1131F00C8010E948F032DB73EB72A5F3F4F0FB61B
S1131F10F8943EBF0FBE2DBF8F3F59F48FE592E07A
S1131F209F938F930E9402368FEF9FEF0F900F9035
S1131F3022C099272BE030E0829FE001839FD00DDF
S1131F40929FD00D1124C551D74F8D8181FD03C0BF
S1131F508FEF9FEF10C08F8198859F938F9384E7B5
S1131F6092E09F938F930E9402368F8198850F9001
S1131F700F900F900F90DF91CF911F910F910895C3
S1131F800F931F93CF93DF93EC01892BE9F02091FA
S1131F90CA0D3091CB0D8FEF2F3F3807A9F08091F8
S1131FA01907813019F4198218820BC00091CC0DE5
S1131FB01091CD0DC9010E946B0F080F191F1983D1
S1131FC0088380E090E002C081E090E0DF91CF914F
S1131FD01F910F910895CF92DF92FF920F931F9359
S1131FE0CF93DF93282F062F482F55278BE090E0BF
S1131FF0489FE001499FD00D589FD00D1124C55131
S1132000D74F8D8182FF02C08B7F8D838A81302FD1
S1132010381B0A838B818F5F8B83332379F08C8108
S1132020830F81508C833B3048F068817981822F03
S11320300E94CF060A8381E08B837AC08BE090E014
S1132040489FF001499FF00D589FF00D1124E55170
S1132050F74F83812481820F912D911D03971CF4E6
S1132060333008F465C0C080D180DF92CF9280E91C
S113207092E09F938F930E940236CBEED8E00F90AC
S11320800F900F900F90888199818C159D0509F010
S113209049C08D81282F332720FF44C06B81FC80E9
S11320A0F60E21FD16C07727882799272AEF30E0FE
S11320B040E050E00E9447352F2D33274427552711
S11320C00E949935DA01C9012E830E941A0F98875C
S11320D08F838D8182608D830E8189E0089F8001CA
S11320E011246B817727882799272AEF30E040E075
S11320F050E00E9447352F2D3327442755270E944F
S11321009935C801820F911D6AE070E00E948635FE
S1132110CB016E831B821C820E941A0FBC01CE016C
S11321200E944D062B9689E0C935D80709F0ABCF3C
S1132130DF91CF911F910F91FF90DF90CF90089581
S11321402F923F924F925F926F927F928F929F92C3
S1132150AF92BF92CF92DF92EF92FF920F931F93B1
S1132160CF93DF932C0180917307882309F01EC15C
S11321708091A508853009F019C18091BD0C882390
S113218009F014C1B20182E00E941F06882311F4F1
S11321909AE003C0F20196A59F708091590998179F
S11321A029F090935909906C909345011201089479
S11321B0211C311CF1018181F201218140E0992728
S11321C0982F88273327822B932B87749C7C8154E8
S11321D0984809F441E04423A9F0809146019927E5
S11321E08F7190702091F20D40912307240F312DAF
S11321F0311D43E0359527954A95E1F728173907AE
S11322000CF4D4C089E080934201B20184E00E94BE
S11322101F06882319F4C0E0D0E006C0D2018C91D7
S11322208550E201C80FD11DF20180819927282F22
S113223080938001809141018F71893021F086E083
S113224080934201B3C00EEFF02EF20E0FB7F89454
S113225011270E9476043B014C0182E080934201E5
S11322600FBF8BE090E0A0E0B0E0680E791E8A1EFC
S11322709B1E6F2D7727209709F47EC02881E98063
S11322808A81AB809927AA27BB27BA2FA92F982F19
S11322908827332744275527522F442733272227BB
S11322A0FF24002711278701FF24EE242E293F292C
S11322B0402B512BBB24CC24DD242A293B294C2937
S11322C05D29822B932BA42BB52B86199709A8097A
S11322D0B9098B83292F3A2F4B2F55272A839D0128
S11322E04427552729838B2F9927AA27BB2788831F
S11322F0AB01B10181E891E00E94F23586E0809360
S113230042012881E9808A81AB809927AA27BB27CB
S1132310BA2FA92F982F8827332744275527522FC0
S1132320442733272227FF24002711278701FF246E
S1132330EE242E293F29402B512BBB24CC24DD2411
S11323402A293B294C295D29822B932BA42BB52BBD
S1132350860D971DA81DB91D8B83292F3A2F4B2F4E
S113236055272A839D014427552729838B2F992795
S1132370AA27BB27888309C0AB01B10181E891E09A
S11323800E94F23586E080934201F20184A58260C6
S113239084A760A671A682A693A686E08093A5086A
S11323A084E08093730780E090E002C085E090E0D1
S11323B0DF91CF911F910F91FF90EF90DF90CF901D
S11323C0BF90AF909F908F907F906F905F904F9051
S11323D03F902F900895CF93DF93EC018985882354
S11323E051F48EEA92E00E9419369A858AE0989F09
S11323F0B001112420C099279F938F938A85992730
S11324009F938F9381EC92E09F938F930E94023667
S11324109A85698577278AE0989FC00111240E94D4
S1132420863519861A868DB79EB706960FB6F89428
S11324309EBF0FBE8DBFCE010E944D06DF91CF918E
S1132440089521E0209376082093160A0E94A2059D
S11324500895EF92FF920F931F938091A20690919B
S1132460A306A091A406B091A506B695A795979545
S113247087958093E0079093E107A093E207B093D8
S1132480E3070E94D004E090E007F090E107009198
S1132490E2071091E307A80197010E949935AB0167
S11324A0BC014E0D5F1D601F711F4093E0075093E8
S11324B0E1076093E2077093E3071092C00D81E097
S11324C00E945E051F910F91FF90EF90089580E8A0
S11324D090E0A0E0B0E08093A2069093A306A093BE
S11324E0A406B093A5060E94291208951F93982F5D
S11324F01FB7F89480910107823099F580919F0667
S1132500891779F580919D0620E030E08F3F11F422
S113251021E030E0232BF1F49FEF90939F068F3F4F
S113252019F42FEF30E00DC0282F3327F901E558B7
S1132530F84F808180939D068F3F11F490939E06FF
S113254090832093780781E0809301078EE00E94B6
S1132550580205C08FEF80939F061092010721E077
S113256001C020E0812F99278FBF90E0213009F42A
S113257091E081E09827892F99271F910895982F3A
S113258080911307833009F04AC08091A806891707
S113259009F045C08091A60620E030E08F3F11F499
S11325A021E030E0232BF9F48F3F19F42FEF30E0D2
S11325B00EC0282F3327F901EA59F74F8081809301
S11325C0A6068F3F11F48093A7068FEF8083209394
S11325D0880A8FEF8093A80681E08093130781E334
S11325E00E94580219C081E08093A8061092130734
S11325F080911407813081F40E94440280E00E949B
S113260089028091150A8E768093150A8093BC0006
S1132610589859981092140780E090E0089581E04A
S113262090E008950F931F93FC0100810D50112732
S113263062E00E947D05FC01208133272F703070F9
S1132640C901880F991F820F931F081B0250802F06
S113265099271F910F9108958091FF068C3118F0EE
S11326604CE150E002C0482F55278CE1E4E9FEE03C
S113267011928A95E9F79091FF068091FD0620E07A
S113268030E0A4E9BEE00FC0E82FFF27E254F34F87
S1132690E081992329F08F5F8A3F09F480E091500B
S11326A0ED932F5F3F4F2417350771F79093FF0683
S11326B08093FD064CE168E87EE08FEF9FEF0E9477
S11326C01604882319F08DE00E94580208956623A9
S11326D051F48091FF06882319F00E942C13089569
S11326E01092000708958DE00E94580208951F93E8
S11326F08091F30D882321F190E011E02091F30DF6
S1132700822F8123C1F0E92FFF27EE0FFF1FED5128
S1132710F74F4081518111821082812F80952823A7
S11327202093F30D992339F463E0CA010E946713DF
S1132730110F91E0E3CF9F5F983010F4110FDECFBB
S11327401F9108951F93CF93DF9310919206E12F69
S1132750FF27EE0FFF1FED51F74FC081D18111828A
S113276010820E946F07112321F461E0CE010E94C0
S11327706713DF91CF911F9108958FB7F894282F95
S1132780332780910007813021F42FBF80E090E04F
S1132790089590E08091FF06882309F491E099233D
S11327A021F02FBF81E090E0089581E0809300073D
S11327B02FBF0E942C1380E090E00895EF920F93B6
S11327C01F93882351F08AEE92E00E9419360E94EA
S11327D0BD1380E00E9458020CC00E948704AB0124
S11327E0BC01EE2400ED17E020E030E080E00E9420
S11327F057041F910F91EF9008951F93CF93DF9388
S1132800CDB7DEB768970FB6F894DEBF0FBECDBF65
S113281010920F072091C30D3091C40D80911207BF
S1132820882339F08CE093E00E9419360E946C03EF
S113283076C03093E9062093E806CE010196909382
S11328405D0780935C078091E4069091E5068A8396
S1132850892F992789838091E6069091E7068C83D6
S1132860892F99278B832E83832F99278D8311E0BA
S1132870188F1F8A80918C0690918D068887892FE6
S113288099278F838091CA0D9091CB0D2FEF8F3FA5
S1132890920781F09093D8088093D7089F938F93E1
S11328A089E393E09F938F930E9402360F900F90D9
S11328B00F900F908091D7089091D8080E946B0FC9
S11328C0E0915C07F0915D078787892F99278687B8
S11328D020915C0730915D0790910E079431B8F414
S11328E080910D07E82FFF27EE0FFF1FE558F74FE4
S11328F0318320838F5F80930D07843111F410920C
S11329000D079F5F90930E0710928F0608C01093D7
S11329108F068DE493E00E9419360E94BD1382E075
S11329200E9458020E94BD1368960FB6F894DEBF49
S11329300FBECDBFDF91CF911F9108951F93182F24
S113294080910007882349F48091FF068D3728F091
S113295081E0809300070E942C138FB7F894282FEE
S113296033279091FF069A3FA8F48091FE06E82F42
S1132970FF27E254F34F10838F5F8093FE068A3F54
S113298011F41092FE069F5F9093FF062FBF80E024
S113299090E003C02FBF8FEF9FEF1F9108954CE18C
S11329A068E87EE08FEF9FEF0E941604882319F0F9
S11329B08DE00E9458020895CF93DF93982FE90188
S11329C08091A806882309F0B0C080911307833052
S11329D009F0ABC0909312070E944D0280E00E9460
S11329E0BF12982F20914A08822F8251833018F009
S11329F0492F552707C089819927582F4427888153
S1132A00480F511D2F3009F46EC02031B0F423302B
S1132A1009F455C0243038F4213009F446C022307A
S1132A2009F083C047C02D3009F458C02E3008F097
S1132A3050C0243009F079C047C0223109F462C083
S1132A40233138F4203109F453C0213109F06DC029
S1132A5054C0243109F462C0243108F459C025312A
S1132A6009F063C089819927982F88272881820FCC
S1132A70911D90937108809370088B819927982FEA
S1132A8088272A81820F911D90937308809372087E
S1132A908D819927982F88272C81820F911D9093DF
S1132AA075088093740884E23EC0888180935B0734
S1132AB085E239C08881809354088DE234C08881CE
S1132AC08093EA088EE22FC08881809326078FE2E4
S1132AD02AC08881809311078CE125C08881809366
S1132AE055088DE120C0888180931C0A8FE11BC0AA
S1132AF088818093E80D8EE116C088818093200739
S1132B0080E211C05093C20D4093C10D81E20BC00D
S1132B105093F70D4093F60D82E205C05093C40D17
S1132B204093C30D83E20E945802DF91CF91089530
S1132B308091E607823031F481E08093E60780E1FA
S1132B400E94580208958093F80D882311F484E0BC
S1132B5001C081E08093E60780E10E945802089555
S1132B608F929F92AF92BF92CF92DF92EF92FF9299
S1132B700F931F93CF93DF938091BD0C882309F4A7
S1132B802AC12FB7F89433278091E900882E8091C9
S1132B90EA00982E8091EB00A82E8091EC00B82ECC
S1132BA00091BD0C1092BD0C2FBF07FF0DC080918A
S1132BB07307833011F0873039F485E08093A508DA
S1132BC088E08093730778C080917307843009F09C
S1132BD073C001FF71C085E08093A508109273074C
S1132BE080912707833019F41092270765C0C0919C
S1132BF0C10ED091C20ECE010E949105882309F422
S1132C0054C08A8129819927982F88273327822BBA
S1132C10932B87749C7C8154984809F046C08F811B
S1132C202E819927982F88273327822B932B8F5F08
S1132C309F4FD9F190E08091160A882309F491E01E
S1132C40992399F180E090E0AAE7B2E4BF93AF93AF
S1132C509F938F9380E090E0A0E8BDE3BF93AF9390
S1132C609F938F9388EE93E09F938F9380EA93E0F2
S1132C709F938F930E9402360E94BD1312E010931B
S1132C80760881E08093160A6EE370E080E090E0BD
S1132C900E94A205109327078DB79EB70C960FB616
S1132CA0F8949EBF0FBE8DBF07C0109227071092E5
S1132CB0E70780E00E94A315C02FDD27C5FF50C0A1
S1132CC080917307863019F41092730703C0882328
S1132CD009F046C0003361F4E0910F0FF091100F3A
S1132CE084A5826084A780A691A6A2A6B3A634C0B8
S1132CF0E0910F0FF091100F003219F5F09046019A
S1132D009FE1F92280912307982F969596952F2D70
S1132D10291B820F8093230784A5826084A780A641
S1132D2091A6A2A6B3A600910F0F1091100FB8019F
S1132D3082E00E94DF05F80184A5886084A7F6A6D6
S1132D400BC0BF0181E00E94DF0560910F0F7091FD
S1132D50100F83E00E94DF0585E08093730704C0B1
S1132D6080917307853089F4C4FF0FC02091F20D60
S1132D70809146018F71922F96959695891B280F05
S1132D802093F20D89E080937307C0FF0CC08091FB
S1132D90A508823041F4809173078250823018F480
S1132DA083E08093A508C3FF16C080917307863023
S1132DB091F4809155018F77809355011092730798
S1132DC080914101992787709070892B09F436C24C
S1132DD08091410133C290917307992309F42EC263
S1132DE0993009F09CC140917B018091460187FF95
S1132DF05EC0433008F45BC0842F99278A970CF097
S1132E0056C0E0910F0FF091100F41934250552797
S1132E1060E871E0CF010E94F235E0910F0FF0916C
S1132E20100F818190E08770823009F491E099233A
S1132E3049F020E030E080912707823081F421E0DE
S1132E4030E00DC08FB7F894282F332790E080919D
S1132E50BA0D833008F491E02FBF292F3327232B99
S1132E6031F1E0917B01FF27E058FE4F8081E09132
S1132E700F0FF091100F85A785E08093A50810929D
S1132E807307E0900F0FF090100F67010894C11CB6
S1132E90D11CF701818190E0282F332727703070EF
S1132EA02230310509F491E0992339F42CC085E0EE
S1132EB08093A50810927307BDC1809127078230C3
S1132EC009F028C1F7018381E091C10EF091C20E8F
S1132ED09381891709F01EC12230310509F01AC106
S1132EE00E942A021092160AE091C10EF091C20EBD
S1132EF084A5816084A7109227071092E70780E0D9
S1132F000E94A31507C1809127078823D1F4C70124
S1132F100E94EC058823A9F085E08093A60882E04E
S1132F208093A7081092A808F60182818093A908CB
S1132F3086EA98E00E94A010882319F483E0809325
S1132F4027070E9476048B01C7010E94EC058823A1
S1132F5011F00A5C1F4F1093E2080093E1080E94ED
S1132F607604061B170BB80110161106BCF48091E9
S1132F70E707882381F490E08091160A882309F4F6
S1132F8091E0992359F0882777FD8095982F0E9426
S1132F90211280E801C080688093E707F6018085EC
S1132FA027819927582F44273327422B532B80916D
S1132FB02807282F3327F901EE0FFF1FEC52F24F99
S1132FC0808191817091190A8417950769F4F90138
S1132FD0E554F14F8081871709F467C0872F8F5F0D
S1132FE08093190A80831DC000E010E080E090E027
S1132FF0C4EDDDE0EBEBFEE0DF01682F9C0188818E
S113300099818417950779F4209328079091190AD8
S11330108C91891709F449C0892F8F5F8093190A0D
S11330208C9300E829C08081972F981B091710F40E
S1133030092F122F6F5FC9010196119622963196BE
S113304085309105D1F66530B9F410932807A12F86
S1133050BB27FD01EE0FFF1FEC52F24F518340835B
S11330608091190A8F5F8093190AFD01E554F14F8D
S11330708083AF5EB04F1C929091190A892F8F778D
S11330808F3779F40F3768F0EBEBFEE0292F2078C7
S113309080818F678913208331968EE0E03CF807A6
S11330A0B9F780912807282F3327F6019281A22FA0
S11330B0BB27FD01EF5EF04F808180FF07C0FD015B
S11330C0E554F24F8081981729F102C08160808312
S11330D0A554B24F9C93DFB6F8948091BA0D833017
S11330E0B0F4E091F00DE80FE33008F0E350FF276F
S11330F0EE0FFF1FE65EF84F00811181F182E0823E
S11331008F5F8093BA0D81E10E94580278018D2D62
S113311099278FBFF092100FE0920F0F82C0292FD2
S11331202150233008F068C0892F8250823098F4EF
S11331308091A508813079F49FEF90934F0180E846
S113314080934E01809139018D7F80933901909352
S11331508E0682E01AC09330D9F48091A50883309A
S1133160B9F48091BA0E8064809348018DE5809310
S11331704E018FEF80938E0686E08093420180910A
S1133180440180688093440184E08093A50817C0BB
S11331902230A8F48091A508853089F480914401F7
S11331A08F778093440193E09093420110924E01F3
S11331B01092BD0C8FEF80938E069093A50890918A
S11331C07307913069F48091A508833009F050C0E9
S11331D0809139018260809339019093A5081DC0C4
S11331E09230F9F48091A508833021F510924E01B4
S11331F08FEF80938E0611C0973099F49091A508B3
S1133200913059F08091BA0E8064809348019530D2
S113321021F484E08093A50804C088E080937307B8
S113322004C080917307883029F4109273078FE0EB
S11332300E945802809173078823D1F48091A508D5
S11332408530B1F48091BD0C882391F480912707D7
S1133250882371F48091E707882351F490E08091EA
S1133260160A882309F491E0992311F00E94981515
S11332708091160A823009F077C01092160AF090F5
S11332807608F1E0FF1629F022E0F21609F06CC08E
S113329064C0C091E108D091E2080E9476042091B4
S11332A0E707203829F41092E7070E9498155CC0BC
S11332B08E01061B170B27FF03C010161106ECF036
S11332C0C091E407D091E507809127078823A9F4EA
S11332D0CE010E94A0109927882351F4BE010E94B8
S11332E0DF05F0922707D093C20EC093C10E31C000
S11332F09927F82E882369F102C0B5E0FB2E2091AE
S1133300E707822F99278F77019779F42078226035
S11333102093E7078CE890E00E942B06AA27BB279E
S1133320BC01CD010E9421121FC027FF0EC0101640
S113333011065CF480E88093E707B801882777FDDD
S11333408095982F0E94211202C01092E7078F2DBA
S113335009C083E08093E70707C010922707109203
S1133360E70780E00E94A3158FB7F894282F33272E
S113337080917507813029F081E0809375072FBF14
S1133380FBCB109275072FBFDF91CF911F910F9147
S1133390FF90EF90DF90CF90BF90AF909F908F9071
S11333A008958FB7F894282F3327809175078823C1
S11333B029F08068809375072FBF089581E080937A
S11333C075072FBF0E94B01508951F920F920FB674
S11333D00F9211242F933F934F935F936F937F9397
S11333E08F939F93AF93BF93EF93FF930E942A020F
S11333F08091160A813019F482E08093160A0E94A3
S1133400D119FF91EF91BF91AF919F918F917F91CE
S11334106F915F914F913F912F910F900FBE0F903D
S11334201F9018951F920F920FB60F9211242F938D
S11334303F934F935F936F937F938F939F93AF9338
S1133440BF93EF93FF932FB7F89433278091BD0C6C
S113345080688093BD0C2FBF78940E94D119FF918E
S1133460EF91BF91AF919F918F917F916F915F91F8
S11334704F913F912F910F900FBE0F901F90189571
S11334801F920F920FB60F9211242F933F934F93D5
S11334905F936F937F938F939F93AF93BF93EF93B8
S11334A0FF932FB7F89433278091BD0C82608093EB
S11334B0BD0C2FBF78940E94D119FF91EF91BF9159
S11334C0AF919F918F917F916F915F914F913F91B8
S11334D02F910F900FBE0F901F9018951F920F926F
S11334E00FB60F9211242F933F934F935F936F93D3
S11334F07F938F939F93AF93BF93EF93FF932FB7D4
S1133500F89433278091BD0C80628093BD0C2FBF4B
S113351078940E94D119FF91EF91BF91AF919F913F
S11335208F917F916F915F914F913F912F910F9068
S11335300FBE0F901F9018951F920F920FB60F9207
S113354011242F933F934F935F936F937F938F93A4
S11335509F93AF93BF93EF93FF932FB7F8943327C1
S11335608091BD0C88608093BD0C2FBF78940E941D
S1133570D119FF91EF91BF91AF919F918F917F915D
S11335806F915F914F913F912F910F900FBE0F90CC
S11335901F9018951F920F920FB60F9211242F931C
S11335A03F934F935F936F937F938F939F93AF93C7
S11335B0BF93EF93FF932FB7F89433278091BD0CFB
S11335C081608093BD0C2FBF78940E94D119FF9124
S11335D0EF91BF91AF919F918F917F916F915F9187
S11335E04F913F912F910F900FBE0F901F90189500
S11335F01F920F920FB60F9211242F933F934F9364
S11336005F936F937F938F939F93AF93BF93EF9346
S1133610FF932FB7F89433278091BD0C806180937A
S1133620BD0C2FBF78940E94D119FF91EF91BF91E7
S1133630AF919F918F917F916F915F914F913F9146
S11336402F910F900FBE0F901F9018958FB7F8947D
S1133650282F332780917507815080937507803810
S113366011F02FBF089581E0809375072FBF0E944A
S1133670B01508951F93FC018FE38287809116078C
S11336808F5F8093160783832FB7F8943327809135
S113369075078F5F809375072FBF8091E607882396
S11336A011F015E00DC0F0934F0AE0934E0A81E04B
S11336B08093E60710921A0A80E10E94580210E0F3
S11336C00E94261B812F99271F910895FF920F9323
S11336D01F93CF93DF93F82E8B01EA01622F2D31D4
S11336E018F086E090E092C0FA0131968181298138
S11336F070E09927582F44273327422B532BCA01B4
S113370087749C7C8154984809F471E0772349F4C8
S1133710CA0180739070816498688983892F99277E
S11337208183635F68832FB7F894332780919A0667
S113373090919B062FBF8887892F992789872FB758
S1133740F894332780919C062FBF99278C831D8280
S1133750CE010E948F05FC01F0820E83812F9927F0
S11337608F838FB7F894282F3327809101078823FC
S113377071F482E08093010710929F062FBFCE015F
S11337800E943A1B9927182F882399F00FC02FBF46
S1133790D0937A07C09379078FB7F894C82FDD27A1
S11337A02C2F80910107882399F406C080E00E94A1
S11337B07612812F99272AC081E080930107109205
S11337C078078EE00E945802CFBF80E090E01EC0D0
S11337D080917B078F3F89F4E0919E06EE2369F088
S11337E010C010929D0604C0FF27E558F84F1082C0
S11337F010929E0680E090E002C085E090E02FBF2A
S113380005C080919D068F3F79F7EBCFDF91CF9173
S11338101F910F91FF900895EF92FF920F931F93C2
S1133820CF93DF93E82E8B01F42E81E08E1518F4EC
S113383081E090E03BC0CE2DDD27CC0FDD1FCC51C5
S1133840D24F88819981892B19F085E090E02EC0B0
S113385079836883EDE0FE0EFB01F082F3EFFF0E47
S11338608091A006823018F480E090E01FC0CB0164
S11338700E948F05FC018081F80167817727762FEC
S1133880662726813327622B732BE092A0062F2D07
S1133890A8010E94661B9927282F882329F082E01B
S11338A08093A00619821882822F9927DF91CF91E5
S11338B01F910F91FF90EF9008958F929F92AF9276
S11338C0BF92CF92DF92EF92FF920F931F93CF9309
S11338D0DF9380910A07882309F0EEC0E091640821
S11338E0F091650810828091CA0D9091CB0DE09102
S11338F06408F09165088283892F992781838091D8
S11339001907882329F08091CC0D9091CD0D20C00A
S11339108091CA0D9091CB0DC091CC0DD091CD0D5D
S11339202FEF8F3F920781F4E0916408F0916508CE
S1133930C4838D2F99278383E0916408F0916508EF
S11339408081806880830CC00E946B0F8C0F9D1F48
S1133950E0916408F09165088483892F9927838313
S1133960E0916408F091650883819927982F88274E
S113397024813327822B932B9F938F9381819927C3
S1133980982F882722813327822B932B9F938F9301
S113399080918C0690918D069F938F938DEB93E08D
S11339A09F938F930E94023662E088E198E00E9420
S11339B07D057C0168E088E198E00E94880565E067
S11339C0C62ED12CC80ED91E40E010E088249924BC
S11339D08DB79EB708960FB6F8949EBF0FBE8DBFE5
S11339E05BE0A52EB12C03E080910707992701968F
S11339F0880D991D6AE070E00E9486359C01992724
S1133A008A9DD0018B9DB00D9A9DB00D1124A551B6
S1133A10B74FED018D81992780FF11C081FF0FC041
S1133A208D919C91109FF0011124EC0DFD1D81835B
S1133A30892F992780838E8182831F5F422FE9E03B
S1133A408E16910429F00894811C911C173060F2A1
S1133A5040930707809106078F5F80930607815084
S1133A60E7018983812F8F7088838FEF80931E08ED
S1133A7080931F0888E198E00E948F05FC0180E78D
S1133A80808383E0189FC0011124895F482F552744
S1133A9068E178E081E00E940C1C9927882341F4B6
S1133AA081E080930A0783ED93E00E94193604C0F5
S1133AB0843011F410920807DF91CF911F910F9178
S1133AC0FF90EF90DF90CF90BF90AF909F908F903A
S1133AD00895CF92DF92EF92FF920F931F936C01A0
S1133AE07B010E94D004DC01CB01B6010E94723537
S1133AF0E80EF91E00271127B801A70183E00E94F0
S1133B005E051F910F91FF90EF90DF90CF90089585
S1133B1080910F07882319F085E090E0089581E0F3
S1133B2080930F0782E180934A088091110783FDF7
S1133B3005C010920F0781E090E0089580E00E9494
S1133B40EB029927882319F480E090E008951092FD
S1133B500F079927089580910F07882319F085E0AE
S1133B6090E0089581E080930F0710924A0880E066
S1133B700E94EB029927882351F440ED57E060E05E
S1133B8070E084E00E945E0580E090E00895109269
S1133B900F079927089580910F07882319F085E06E
S1133BA090E0089581E080930F0783E180934A08B1
S1133BB08091110783FD05C010920F0781E090E00A
S1133BC0089580E00E94EB029927882319F480E08D
S1133BD090E0089510920F0799270895CF93DF93EB
S1133BE010920F07C091F60DD091F70D8091120736
S1133BF0882339F08EED93E00E9419360E94CB1D84
S1133C0012C0DF93CF938BE094E09F938F930E9435
S1133C100236D093E706C093E6060E946C030F9029
S1133C200F900F900F900E94BD13DF91CF910895D4
S1133C30CF93DF93EC010E941B07282F8091250767
S1133C402817D1F0382F31503093250713C0822F15
S1133C50992743E0880F991F4A95E1F7DC01A4589E
S1133C60B84FFC01EC57F84F88E001900D92815059
S1133C70E1F72F5F231758F3DF93CF9385E294E0A6
S1133C809F938F930E9402360F900F900F900F9086
S1133C908091CA0D9091CB0D8C179D07A1F48FEFE5
S1133CA09FEF9093CB0D8093CA0D1092CD0D10927F
S1133CB0CC0D1092CE0D1092CF0D81E080930B07A6
S1133CC086E10E945802DF91CF9108956F927F920E
S1133CD08F929F92AF92BF92CF92DF92EF92FF9218
S1133CE00F931F93CF93DF9380911907882359F47F
S1133CF07FEF672E772ECC24DD246FEFA62EB62E11
S1133D008824992495C080E494E00E94193647C120
S1133D10C22FDD2753E0CC0FDD1F5A95E1F7C458BD
S1133D20D84F8A819B819F938F938C819D819F9390
S1133D308F93888199819F938F9380918C06909122
S1133D408D069F938F938AE594E09F938F930E94AF
S1133D5002362A813B818DB79EB70A960FB6F89436
S1133D609EBF0FBE8DBF9FEF2F3F390739F0809163
S1133D706C0A90916D0A2817390729F48DE794E0AD
S1133D800E94193652C0888199810E946B0F7C0170
S1133D908C819D819F938F93FF92EF92888199816B
S1133DA09F938F938AE994E09F938F930E940236A6
S1133DB00C811D810E0D1F1D8091CA0D9091CB0D9C
S1133DC09F938F931F930F938BEB94E09F938F9309
S1133DD00E940236EDB7FEB73E960FB6F894FEBFCA
S1133DE00FBEEDBF288139818091CA0D9091CB0D12
S1133DF04F812817390771F48C819D819093CD0DE3
S1133E008093CC0D4093CF0D8CED94E00E94193635
S1133E1038010BC0442349F4F2E3EF16F10428F40B
S1133E200A151B0510F46E0158010894811C911C9D
S1133E30282D80912507881608F46ACF8FEFA816DD
S1133E408FEFB80609F498C09FEF69169FEF7906C3
S1133E5091F08091CF0D882341F08091CC0D909109
S1133E60CD0D0A96A816B90630F0C5010F96861531
S1133E70970508F081C08091EC0D9091ED0DA09113
S1133E80EE0DB091EF0D0196A11DB11D8093EC0DC7
S1133E909093ED0DA093EE0DB093EF0D8DEE94E0A5
S1133EA09F938F930E9402368091CA0D9091CB0DFF
S1133EB00E948F030F900F908F3F81F0282F33279C
S1133EC08BE090E0289FF001299FF00D389FF00DC2
S1133ED01124E551F74F8581877F8583F601808121
S1133EE091810E94B604F601808191810E948F0322
S1133EF08F3F41F0EBE08E9FF0011124E551F74F25
S1133F0012861186F601808191819F938F9384EFAD
S1133F1094E09F938F930E940236F60180819181F1
S1133F209093CB0D8093CA0D848195819093CD0D90
S1133F308093CC0D87818093CF0DC3018A199B098F
S1133F400F900F900F900F904597B0F08AE095E096
S1133F509F938F930E94023680E890E0A0E0B0E047
S1133F608093A2069093A306A093A406B093A506FB
S1133F700E9429120F900F9080910B07882369F4F7
S1133F80FFEF6F16FFEF7F0641F48FEFA8168FEF58
S1133F90B80619F083E10E94580210920B07DF91D2
S1133FA0CF911F910F91FF90EF90DF90CF90BF9032
S1133FB0AF909F908F907F906F900895AF92BF9233
S1133FC0CF92DF92EF92FF920F931F93CF93DF93E1
S1133FD05B016C01C0E0D0E0EBE5F9E0608561FFD6
S1133FE0B7C02081318142815381E480F58006810C
S1133FF01781D601C501821B930BA40BB50B8E153B
S11340009F05A007B10708F4A3C060FF03C06D7F3C
S1134010608708C02E0D3F1D401F511F2083318330
S113402042835383C23009F468C0C33030F4CC23D4
S113403059F0C13009F092C00AC0C33009F471C00C
S1134040C43009F08BC076C00E94881D87C080915F
S11340500807882309F482C080910907882309F49A
S11340607DC08091C00D882301F586E10E9458022D
S113407087E10E9458024091A2065091A3066091E4
S1134080A4067091A5068091E0079091E107A091A4
S1134090E207B091E307481B590B6A0B7B0B81E0E5
S11340A08093C00D0E945E0559C08091A206909134
S11340B0A306A091A406B091A506880F991FAA1F74
S11340C0BB1F8093A2069093A306A093A406B0936B
S11340D0A5068150904DA740B04060F080E090ED7F
S11340E0A7E0B0E08093A2069093A306A093A40651
S11340F0B093A5060E94291231C080910807882335
S113410069F180910907882349F182E195E09F9341
S11341108F930E94023686E10E9458020F900F90FE
S11341201DC0809102078F7E8093020783E10E9465
S1134130580214C080910F07882381F080914A08A7
S1134140882361F410920F0784E00E94DE1306C0F6
S113415021963996C530D10509F040CF84E00E94FC
S11341605802DF91CF911F910F91FF90EF90DF9054
S1134170CF90BF90AF900895EF92FF920F931F934B
S113418080917407882361F52091E00D3091E10D51
S11341904091E20D5091E30DEFB7F894FF27609141
S11341A068087091690880916A0890916B08E090A2
S11341B06008F090610800916208109163086E0D28
S11341C07F1D801F911FEFBF2093E00D3093E10D01
S11341D04093E20D5093E30D109274070E94B009CE
S11341E00E9487040E94DE1F1F910F91FF90EF90A1
S11341F00895AF92BF92CF92DF92EF92FF920F9306
S11342001F930E9487047B018C010E94370260E0A7
S1134210FFEFAF2EFFEFBF2EFFEFCF2EFFE7DF2E16
S1134220EBE5F9E0808581FF1CC080819181A2814A
S1134230B381A8019701281B390B4A0B5B0BDA01E8
S1134240C9012481358146815781281B390B4A0BCA
S11342505B0B2A153B054C055D051CF459016A01ED
S113426061E0399639E0E838F307E1F66623D9F0DE
S11342701A141B041C041D042CF0C801B7010E946D
S1134280DE1F11C0A092E00DB092E10DC092E20DCC
S1134290D092E30D81E080937407A6019501C801D3
S11342A0B7010E94B0091F910F91FF90EF90DF902A
S11342B0CF90BF90AF9008951F938091E60710921E
S11342C0E607853009F03DC081E0809308078091BE
S11342D00907882311F00E94D004809102078460AA
S11342E08093020790E080910507882309F491E008
S11342F0992319F483E10E945802109290068FB713
S1134300F8949927209175072F5F209375078FBF25
S11343108091E607882391F480917307882371F4D0
S11343208091BA0E8A3151F08AE18093BA0E17E077
S1134330109373070E94D1191093E6070E94261B5D
S113434016C0863041F410920807809102078B7FD3
S1134350809302070CC0873041F48AE295E00E9402
S113436019360E94BD135D9802C08093E6071F9121
S113437008951F93182F8091A806882309F0DCC0A4
S113438080911307833009F0D7C0109312078091EE
S11343904A08853199F1813009F43FC0823009F42B
S11343A04EC0833009F455C0843009F45CC08F30AA
S11343B009F477C0803109F47EC0813109F484C0E6
S11343C0823109F48AC0833109F490C0843109F43C
S11343D096C00E944D0280E00E94BF1280914A085C
S11343E0E82FFF27EF31F10508F0A6C0E057FF4F93
S11343F0EE0FFF1F0590F491E02D0994112349F469
S11344008091A906882309F097C02CEC37E046E098
S11344100EC084E28FC08AE18DC0112371F48091B3
S1134420A906882309F088C02CEC37E041E063E555
S113443070E083E00E9496027FC085E27BC0112376
S113444031F48091A906882309F076C0EDCF8DE27E
S113445071C0112331F48091A906882309F06CC03E
S1134460E3CF8EE267C0112331F48091A90688233B
S113447009F062C0D9CF8FE25DC0112331F480917D
S1134480A906882309F058C0CFCF8CE153C011236B
S113449031F48091A906882309F04EC0C5CF8DE17F
S11344A049C0112331F48091A906882309F044C03E
S11344B0BBCF8FE13FC0112329F48091A906882343
S11344C0D9F5B2CF8EE136C0112329F48091A90623
S11344D0882391F5A9CF80E22DC0112329F480917E
S11344E0A906882349F511C081E224C0112329F4C7
S11344F08091A906882301F508C082E21BC011231C
S113450041F48091A9068823B9F42CEC37E042E009
S11345108ECF83E20FC087E20DC088E20BC086E233
S113452009C08BE107C089E205C08AE203C08BE2BF
S113453001C08CE20E9458021F910895EF92FF92ED
S11345400F931F93F62EE22E9FB7F894292F33274B
S11345509091A906981711F02FBF93C02FBF8FB762
S1134560F894282F332780911407813041F582E095
S1134570809314072FBF8FB7F8949927509353084B
S1134580409352081093770700937607E092170739
S11345906093DD0E1092DE0D109215078FBF0E94FE
S11345A044028FB7F894182F9091150A916C9F7E4E
S11345B09093150A6F2D772760FD0BC011C08823D7
S11345C021F42FBF84E090E066C02FBF85E090E027
S11345D062C090629093150A84E08093140754C0DB
S11345E0EE2009F440C083E0809314072091DE0D8F
S11345F040911707241778F4E0917607F091770734
S1134600E20FF11D80818093BB002F5F2093DE0DAC
S11346109093BC003DC0292F2E7F2093150A8091D2
S1134620DD0E81FF07C08D7F8093DD0E2061209316
S1134630150A03C09E779093150A8091150A8093FA
S1134640BC0081E0809314072091760730917707AE
S113465060915208709153088091A9068823C1F48F
S11346600E94B92115C061FF08C085E0809314073A
S11346709F7B90619093150A07C081E08093140793
S11346801FBF81E090E007C08091150A8093BC00B1
S11346901FBF80E090E01F910F91FF90EF9008956D
S11346A01F93182F0E9444028091150A8E7F8093D5
S11346B0150A80E00E9489028091150A8093BC004B
S11346C00E94440281E00E9489028091150A80932D
S11346D0BC0081E080931407809115072091760730
S11346E030917707409117076091520870915308F1
S11346F09091A906882331F0992349F4812F0E94CF
S1134700DC1405C0992319F4812F0E94B9211F914B
S113471008951F93CF93DF931092F1061092F00641
S11347208FB7F89499271091F4068FBF8091F506FE
S1134730811113E02091EE063091EF068091F60688
S11347408823A9F480919206882389F4C091E30810
S1134750D091E408C217D30751F41092E4081092E0
S1134760E3080E946F07612FCE010E946713DF9157
S1134770CF911F910895EF920F931F938091020799
S11347808260809302078FB7F894992720919A0644
S113479030919B068FBF30936D0A20936C0A8091F1
S11347A009078823E9F481E08093090780E890E011
S11347B0A0E0B0E08093A2069093A306A093A40681
S11347C0B093A5060E9429120E948704AB01BC0184
S11347D0EE2400E010E220E030E082E00E94570482
S11347E080E090E01F910F91EF9008958FB7F894B7
S11347F09927209175072F5F209375078FBF8091AC
S1134800E607882381F480917307882361F48091FB
S1134810A508853041F083E0809373070E94D11985
S113482085E08093E6070E94261B0E94BB238093A9
S113483091060CC08EE495E09F938F930E940236FC
S11348400E94BD130E94BB230F900F90809191068C
S1134850882381F708950F931F932FB7F894332774
S11348608091880A8093A80683E0809313072FBF62
S11348702091A8068FB7F89499272093A9068FBF93
S1134880222309F01EC280914A08E82FFF27EF3146
S1134890F10508F016C2E155FF4FEE0FFF1F05901A
S11348A0F491E02D099482E38093D60806ED18E094
S11348B021E043E550E063E080E00E949E229927D6
S11348C0882309F4FEC18093120784E2F8C1209181
S11348D011072860209311078DE18093CC0780E4B1
S11348E08093CD071092CE071092CF071092D00775
S11348F09FE79093D10780E38093D2079093D307E7
S113490082E08093D40781E08093D5078FEF809372
S1134910D6078093D70785E08093D80784E18093F6
S1134920D90787E08093DA071092DB078AE0809347
S1134930DC072093DD071092DE070CEC17E023E17F
S113494043E550E063E080E00E949E22992788239B
S113495009F4B7C1809312078AE1B1C181E280935F
S1134960D60806ED18E021E043E550E063E080E07E
S11349700E949E229927882309F4A3C180931207D9
S11349808DE29DC182E28093D60806ED18E021E015
S113499043E550E063E080E00E949E22992788234B
S11349A009F48FC1809312078EE289C183E2809358
S11349B0D60806ED18E021E043E550E063E080E02E
S11349C00E949E229927882309F47BC180931207B1
S11349D08FE275C18DE28093D60806ED18E021E0E0
S11349E043E550E063E080E00E949E2299278823FB
S11349F009F467C1809312078CE161C18CE2809352
S1134A00D60806ED18E021E043E550E063E080E0DD
S1134A100E949E229927882309F453C18093120788
S1134A208DE14DC18EE28093D60806ED18E021E0B9
S1134A3043E550E063E080E00E949E2299278823AA
S1134A4009F43FC1809312078FE139C18FE280934B
S1134A50D60806ED18E021E043E550E063E080E08D
S1134A600E949E229927882309F42BC18093120760
S1134A708EE125C180E38093D60806ED18E021E09D
S1134A8043E550E063E080E00E949E22992788235A
S1134A9009F417C18093120780E211C182E3809365
S1134AA0D60806ED18E021E043E550E063E080E03D
S1134AB00E949E229927882309F403C18093120738
S1134AC081E2FDC084E38093D60806ED18E021E07E
S1134AD043E550E063E080E00E949E22992788230A
S1134AE009F4EFC08093120782E2E9C086E3809361
S1134AF0D60806ED18E021E043E550E063E080E0ED
S1134B000E949E229927882309F4DBC08093120710
S1134B1083E2D5C0809110078093D60806ED18E093
S1134B2021E043E550E063E080E00E949E22992763
S1134B30882309F4C6C08093120785E2C0C080911F
S1134B40170A8093CC078091180A8093CD070CEC48
S1134B5017E022E043E550E063E080E00E949E22FB
S1134B609927882309F4ADC08093120787E2A7C070
S1134B708FE28093CC078091E80D8093CD070CECF5
S1134B8017E022E043E550E063E080E00E949E22CB
S1134B909927882309F495C08093120788E28FC06F
S1134BA081E38093CC07809122078093CD070CEC9E
S1134BB017E022E043E550E063E080E00E949E229B
S1134BC09927882309F47DC08093120786E277C071
S1134BD080911107877F809311079DE29093CC0702
S1134BE08093CD070CEC17E022E043E550E063E04E
S1134BF080E00E949E229927882309F462C0809352
S1134C0012078BE15CC08EE28093CC0780911C0A72
S1134C108093CD070CEC17E022E043E550E063E01D
S1134C2080E00E949E229927882309F44AC0809339
S1134C30120789E244C081E28093CC078091540832
S1134C408093CD070CEC17E022E043E550E063E0ED
S1134C5080E00E949E229927882399F1809312076D
S1134C608AE22DC082E28093CC078091EA08809387
S1134C70CD070CEC17E022E043E550E063E080E070
S1134C800E949E2299278823E1F0809312078BE2E9
S1134C9016C083E28093CC07809126078093CD07CA
S1134CA00CEC17E022E043E550E063E080E00E9472
S1134CB09E229927882329F0809312078CE20E9470
S1134CC058021F910F91089568E00E947D05FC0130
S1134CD084819927982F882725813327822B932B2A
S1134CE008955E9A80919006882351F58091BA0EBA
S1134CF08A3131F58091EA06882329F568E188EE46
S1134D0097E00E94C406909351088093500800973E
S1134D10D1F0E0910C07FF27EE0FFF1FE558F74F86
S1134D200190F081E02DF093B90DE093B80D309728
S1134D3051F0DC0188E101900D92815021F0FBCF0C
S1134D4081E00E945802089568E00E947D05FC01FC
S1134D5087819927089568E00E947D05FC0181817F
S1134D609927089568E00E947D05FC0186819927B2
S1134D70089568E00E947D05FC0184819927982F9D
S1134D80882725813327822B932B0895BF92CF92B6
S1134D90DF92EF92FF920F931F93CF93DF937C01E7
S1134DA0B0901807D090D508CC2428C00D2D0370DE
S1134DB01127C7010E94B926E801CC0FDD1FCC0FD3
S1134DC0DD1FC00FD11FC15AD84F288139818217E6
S1134DD0930791F4C7010E94B2269A81981761F44F
S1134DE0C7010E94AB269C81981731F4C7010E9429
S1134DF0A4269B81981721F0C394D394CB14B1F6C5
S1134E008C2D9927DF91CF911F910F91FF90EF90F7
S1134E10DF90CF90BF9008958F929F92AF92BF92F0
S1134E20CF92DF92EF92FF921F93CF93DF934C01C7
S1134E306B01FC018281882309F062C09092870E85
S1134E408092860E8281882309F055C01092EA066A
S1134E505F9A8DE795E00E941936F60180812181E1
S1134E609927982F88273327822B932B9F938F93EF
S1134E7084E995E09F938F930E940236F601828124
S1134E8023819927982F88273327822B932B9F934D
S1134E908F9389E995E09F938F930E940236F601E0
S1134EA0848125819927982F88273327822B932B58
S1134EB09F938F938EE995E09F938F930E94023680
S1134EC080910C0790910E072DB73EB7245F3F4F9A
S1134ED00FB6F8943EBF0FBE2DBF992351F08F5FDC
S1134EE080930C07843111F410920C079150909325
S1134EF00E070E94BD1368E0C6010E947D0589C0AB
S1134F00442309F47AC0F401A080B1808091180789
S1134F10843009F046C0C5010E94C62620911807B6
S1134F20622F0E946635492F9217D8F5992359F4B8
S1134F308091D5089927019664E070E00E94863537
S1134F408093D50829C08091D508840F912D911D97
S1134F509C0123703070E901CC0FDD1FCC0FDD1FE5
S1134F60C20FD31F019664E070E00E948635FC01F5
S1134F70EE0FFF1FEE0FFF1FE80FF91FC15AD84FA6
S1134F80E15AF84F85E0019009928150E1F74F5FB3
S1134F90809118074817B8F28091180781508093C0
S1134FA01807109118078091D508810F912D911D34
S1134FB0837090707C01EE0CFF1CEE0CFF1CE80E5D
S1134FC0F91E2FE537E0E20EF31EC5010E94B92653
S1134FD0F70191838083C5010E94B226F701828381
S1134FE0C5010E94AB26F7018483C5010E94A42653
S1134FF0F70183831F5F1093180768E0C6010E94BE
S11350007D05F401808191810E947C06C4010E9487
S11350109B06DF91CF911F91FF90EF90DF90CF908F
S1135020BF90AF909F908F900895AF92BF92CF9210
S1135030DF92EF92FF920F931F93CF93DF937C0144
S1135040162FE0910307FF27EE0FFF1FE259F54FDC
S1135050C080D18057010894A11CB11CE701269699
S1135060862F99279F938F9389819927982F882733
S1135070F70126813327822B932B9F938F9388EB01
S113508096E09F938F9383EA95E09F938F9387EBAA
S113509095E09F938F930E9402368DB79EB70A9630
S11350A00FB6F8949EBF0FBE8DBF112329F060E8A0
S11350B070E080E890E048C08091020783FF56C00A
S11350C0B70180E00E941F06882309F04FC0898140
S11350D09927182F0027F70186819927082B192B68
S11350E0C8010E948F03982F8F3F09F18BE0989F8E
S11350F0E0011124C551D74F8A858F5F8A87853097
S1135100B0F01F930F9399279F938F9381EC95E0B1
S11351109F938F930E940236CE010E94EB118DB7AC
S11351209EB706960FB6F8949EBF0FBE8DBF86E15C
S11351300E945802F601838181508383882339F0C9
S113514060E270E080E290E00E94691D52C00E941B
S11351506106809102078F7E8093020760E270E00F
S113516080E290E00E94691D40E03FC00E94610619
S1135170809102078F7E8093020760E270E080E2F4
S113518090E00E94691DF50186819927982F882750
S113519025813327822B932B0E948F03982F8F3FD7
S11351A019F18BE0989FE0011124C551D74F8985EF
S11351B08F5F89878A858F5F8A8799279F938F93CB
S11351C08FEE95E09F938F930E9402360F900F907D
S11351D00F900F908A85853038F081E196E00E9427
S11351E01936CE010E94EB1141E0B701C6010E94BD
S11351F00C27DF91CF911F910F91FF90EF90DF90DB
S1135200CF90BF90AF9008950F931F9380915C0847
S1135210882391F110E001E020915C08822F802323
S113522019F1E12FFF27EE0FFF1FEC51F24F4081E0
S1135230518111821082802F8095282320935C084D
S1135240112319F0113081F405C063E0CA010E94F2
S113525015280FC04851584061F480910A078823EB
S113526041F010920A0705C01F5F183028F4000FA0
S1135270D3CF000F1F5FD0CF1F910F910895AF922E
S1135280BF92CF92DF92EF92FF920F931F93CF932F
S1135290DF93D82E5B01C42EE82FFF27EE0FFF1FEC
S11352A0EC51F24F118210828091A0069927019649
S11352B062E070E00E948635682F8093A00600E0CB
S11352C0462F5527FA01EE0FFF1FEC51F24FC08114
S11352D0D181209799F0E62FE695E695E695FF278C
S11352E0E45AF74F808199279A012770307002C0E1
S11352F0959587952A95E2F780FF0DC0CA0101961E
S113530062E070E00E948635682F0F5F0230C1F6BC
S11353100093A0061FC06093A0066230D8F4E88012
S113532083EFE80EFF240F811127102F00278E81B1
S11353309927082B192BCE010E948F05FC012E2DD5
S1135340AE01B80180810E94661B882319F085E1B3
S11353500E945802DD2021F081E0D81689F405C0AE
S11353606C2DC5010E9415280BC088E1A81688E0A1
S1135370B80631F480910A07882311F010920A07C5
S1135380DF91CF911F910F91FF90EF90DF90CF901D
S1135390BF90AF900895462F2091A006223070F45C
S11353A0E22FFF27EE0FFF1FEC51F24F6081718156
S11353B06817790719F4822F0E943F290895809174
S11353C0A006E82FFF27EE0FFF1FEC51F24F60817C
S11353D0718141E00E943F2908950F931F93CF9359
S11353E0DF932FB7F89433278091780780939F0633
S11353F082E0809301072FBF80919F06882331F5B7
S11354008091790790917A070E943A1B082F1127FF
S11354100023E1F080E00E947612C0917907D091D8
S11354207A07CE010E948F058091A006823070F425
S1135430E82FFF27EE0FFF1FEC51F24F60817181BF
S11354406C177D0719F4402F0E943F29DF91CF91FB
S11354501F910F9108953F924F925F926F927F92A6
S11354608F929F92AF92BF92CF92DF92EF92FF9270
S11354700F931F93CF93DF93CDB7DEB722970FB669
S1135480F894DEBF0FBECDBFE82FFF27E233F1054E
S113549008F015C5E253FF4FEE0FFF1F0590F4917E
S11354A0E02D09940E94AB1D0AC50E94F62307C58E
S11354B00E94712604C50E94BC2001C50E94F920E7
S11354C0FEC40E947713FBC40E94A213F8C40E9476
S11354D00208F5C48091C1008F7B8093C100809144
S11354E0C1008F778093C10010921B0A1092490863
S11354F08091C10088608093C1008091C100806167
S11355008093C1008FEF80938E068091C1008068E4
S11355108093C1008FB7F894992710924D0A109286
S1135520170835C08AE00E945802C9C48091C1009E
S1135530877F8093C1008091C1008F7E8093C100DA
S11355408FEF80938E06BBC40E948923B8C48FB7A3
S1135550F89499272091F9063091FA06409124078E
S11355608FBF8FB7F894E42FFF27EE0FFF1FEC5681
S1135570F94F318320832091EC06442311F02B7FD3
S113558001C02D7F2093EC061092F70699278FBF58
S113559096C40E94CF1493C40E94ED2990C40E9423
S11355A05C218DC42FB7F8943327809175078F5FE2
S11355B0809375072FBF4091E6074130A1F5809194
S11355C01A0A8F5F80931A0A863068F520914E0A72
S11355D030914F0A8091E7078823E1F490E08091AD
S11355E0160A882309F491E09923A1F03093E50782
S11355F02093E4074093E70786E391E00E942B069B
S1135600AA27BB27BC01CD010E9421121092F80DDC
S113561083E004C085E08093F80D82E08093E60780
S11356200E94261B4CC41092E6070E94261BF09091
S1135630F80D00914E0A10914F0AF80182858F33BC
S113564009F03DC480E00E9476126F2DC8010E94CB
S1135650CB2935C40E946106D6018D919C910E948C
S11356607C06C6010E949B06B3C380910207806139
S11356708093020724C48FB7F894282F332780918E
S1135680BA0D882309F4E0C2E091F00DFF27EE0F74
S1135690FF1FE65EF84FC080D1802FBFF6018285E0
S11356A0178106818F3309F090C2C6010E948F05CD
S11356B0FC01E081D6016D914D01812F9927582F6E
S11356C04427802F9927482B592B8FB7F894992773
S11356D020919A0630919B068FBF4217530721F001
S11356E04F5F5F4F09F0E2C3062F0D50E03721F002
S11356F0E13709F084C264C1F601878126819927C4
S1135700982F88273327822B932B8F5F9F4F09F085
S113571055C062E0C6010E947D055C01F6018185E9
S113572020859927182F00273327022B132B0E943B
S11357303D0FC8010E948F038F3F21F0F501618165
S113574077271DC00E94E006F82EFFEF8F17D1F0D7
S1135750B8010E94CF06F50141812F2D33278BE03C
S113576090E0289FF001299FF00D389FF00D11243F
S1135770E551F74F4283F501618177278F2D0E9410
S1135780EB0F1CC081E40E94F206F82EFFEF8F1786
S1135790A9F0282F33278BE090E0289FF001299F60
S11357A0F00D389FF00D1124E551F74F8081918160
S11357B00E94181EB8018F2D0E94CF06C6010E94B8
S11357C01213853009F01BC2F401808527819927C3
S11357D0F82EEE243327E22AF32AFF92EF928091E7
S11357E08C0690918D069F938F9386E296E09F930B
S11357F08F930E94023665E0C6010E9488058C01E1
S113580060E4C6010E943B07382E58010894A11C8D
S1135810B11CF801818125010894411C511CF5013A
S113582021819927982F88273327822B932B2DB7F3
S11358303EB72A5F3F4F0FB6F8943EBF0FBE2DBF51
S11358408F5F9F4F09F4B4C063E0862E912C800EC5
S1135850911EF801838154E0652E712C600E711E37
S113586024819927982F88273327822B932B892BE0
S113587049F5C7010E948F038F3F09F50E94E00696
S11358808F3F11F0B70119C08AE00E94F206182F69
S11358908F3FA9F0282F33278BE090E0289FF00159
S11358A0299FF00D389FF00D1124E551F74F8081A9
S11358B091810E94181EB701812F0E94CF06C70153
S11358C00E94B604D4019C90F3018080D501BC9061
S11358D0F201A080C7010E946B0F8C01C7010E94D6
S11358E01B07482F8A30F1F1892D9927782F6627D5
S11358F0882D9927682B792B8B2D9927382F2227D0
S11359008A2D9927282B392B809125074817C9F40C
S11359100233110538F5E42FFF2713E0EE0FFF1FC4
S11359201A95E1F7E458F84FF182E0823383228339
S11359307583648381E0868317824F5F40932507D4
S113594011C0E42FFF27B3E0EE0FFF1FBA95E1F774
S1135950E458F84FF182E0823383228375836483B1
S113596081E086838091A106882311F5C7010E94F6
S11359701B07E82F80912507E81748F4FF27A3E0C9
S1135980EE0FFF1FAA95E1F7E458F84F3782809194
S1135990CF0D882311F0332049F08091CA0D9091E6
S11359A0CB0D8E159F0521F4332011F00E947F0248
S11359B060E8C6010E943B07882309F420C102C1A4
S11359C0C6010E94AB26182F1F5FC6010E948405E2
S11359D04C01FC0111830D3108F011C1C6010E9474
S11359E0C62620E090911807891708F421E02223A5
S11359F009F005C110910507812F9927B82E882336
S1135A0009F43FC0C6010E94B9263C010091030776
S1135A10010F0150BA940D3010F4E02F02C0E02FB2
S1135A20ED50FF27EE0FFF1FE259F54F0190F08173
S1135A30E02DE080F180C7010E94B9268615970504
S1135A4009F038C2C7010E94B226182FC6010E946D
S1135A50B226181709F02EC2C7010E94AB26182FD0
S1135A60C6010E94AB26181709F024C2C7010E9480
S1135A70A426182FC6010E94A426181709F01AC2DA
S1135A80BEC080911907882309F0B9C02091A408E9
S1135A90222309F481E0882309F0B1C09091A3087E
S1135AA0992309F481E0882309F0A9C0992309F412
S1135AB0A6C08091F40DE82FFF27EE0FFF1FED53D2
S1135AC0F14F008111811182108291509093A308AB
S1135AD08F5F8093F40D8C3011F41092F40D011546
S1135AE0110509F48CC0222309F489C080915A0855
S1135AF0E82FFF27EE0FFF1FEC5AF54FE080F180EF
S1135B001182108221502093A4088F5F80935A0839
S1135B108C3011F410925A08E114F10409F46FC0A6
S1135B208FE2D7011D928A95E9F7E8E2F0E0CE0E04
S1135B30DF1E87E0D6011D928A95E9F7E8EDFFEFB5
S1135B40CE0EDF1ED801CD92DC928FEFF801828356
S1135B508EE18383C8010E945007882321F5CE017A
S1135B6001960E94C00F8823B1F4F401828123813D
S1135B709927982F88273327822B932B29813A81C1
S1135B802817390740F00E94671260E870E080E847
S1135B9090E00E94691D80917E0981FD02C00E94EF
S1135BA0840267012CC0C7010E947C06C8010E94C0
S1135BB09B0625C0C6010E948405FC018081807873
S1135BC08038E9F40E9467121AC0812F9927582F50
S1135BD04427802F9927482B592B8FB7F89499275E
S1135BE020919A0630919B068FBF4217530719F0F4
S1135BF04F5F5F4F21F48FB7F89499278FBF9FB7FA
S1135C00F8948091F00DE82FFF27EE0FFF1FE65E5A
S1135C10F84FD182C0828F5F8093F00D833010F0F3
S1135C201092F00D8091BA0D81508093BA0D892F96
S1135C3099278FBF20CD0E9459052FB7F894332799
S1135C409093510A8093500A2FBF39C18091020763
S1135C5084FD35C190E080910507882309F491E023
S1135C60992309F02CC180911907882359F420E065
S1135C708091CA0D9091CB0D8F5F9F4F09F021E069
S1135C80222331F0CE0101960E94C00F882341F0F7
S1135C9040E157E260E070E083E00E945E050FC1DE
S1135CA0E0910307FF27EE0FFF1FE259F54FC08075
S1135CB0D180D6010D911C91C8010E94BA06982E7C
S1135CC0A090CA0DB090CB0DC8010E94C62620E05A
S1135CD090911807891708F421E0222309F0BACC1F
S1135CE080911907F601E080F1808823A1F0C701B3
