:100000000C9402020C94700D0C94950D0C94BA0D86
:100010000C94DF0D0C94040E0C94290E0C944E0ECF
:100020000C94730E0C9421020C9421020C94210266
:100030000C9421020C9421020C9421020C942102B4
:100040000C94510D0C94330D0C943D0D0C94470DF4
:100050000C94100D0C9421020C9421020C9421029A
:100060000C9421020C94570B0C9421020C94DA0B83
:100070000C9421020C9421020C9421020C94210274
:100080000C9421020C9421020C9421020C94210264
:100090000C94F30C0C9421020C94050D0C94353344
:1000A0000C9421020C9421020C9421020C94210244
:1000B0000C9421020C9421020C9421020C94210234
:1000C0000C9421020C9421020C9421020C94210224
:1000D0000C9421020C9421020C9421020C94210214
:1000E0000C9421020C94C8180C9421020C9424192D
:1000F0000C9452190C9480190C9421020C94F6184B
:100100000C94AE190C945A090C949B180C949009F9
:100110000C9449090C9421020C9421020C942102A4
:100120003A203C204E2058206220CB20CB20CB20F0
:10013000CB20CB20CB20CB20CB2076206C20802066
:100140008A2093209C20A520AE202D20BE20C020F8
:10015000CB20C220BA20C420C620C820BC2027281B
:100160002B282F28332837283B283F2823292629C6
:10017000292937293A293D29402943299829A529A0
:10018000AA2CAD2CB02CB32CB62CB92CAA2DBB2D7F
:10019000CC2DCF2DD22DD52DD82DDB2DDE2DE12D43
:1001A000E42DE72DEA2DED2DF02DF32DF62DF92D73
:1001B000FC2DFF2D022E052E082E0B2E0E2E112E9D
:1001C0004A2E612F902EA32EB62E3730373037307F
:1001D00037303730373037303730DC2EC92EEF2EFE
:1001E000022F152F282F3B2F4E2F372EA42FBB2F3A
:1001F0003730D52F752FEC2F023018308D2F00009F
:100200002110422063308440A550C660E770088109
:1002100029914AA16BB18CC1ADD1CEE1EFF1311280
:10022000100273325222B5529442F772D662399359
:1002300018837BB35AA3BDD39CC3FFF3DEE36224D0
:10024000433420040114E664C774A44485546AA5A9
:100250004BB528850995EEE5CFF5ACC58DD5533660
:10026000722611163006D776F6669556B4465BB7F9
:100270007AA719973887DFF7FEE79DD7BCC7C44830
:10028000E5588668A7784008611802282338CCC949
:10029000EDD98EE9AFF9488969990AA92BB9F55AC0
:1002A000D44AB77A966A711A500A333A122AFDDB99
:1002B000DCCBBFFB9EEB799B588B3BBB1AABA66C90
:1002C000877CE44CC55C222C033C600C411CAEEDE9
:1002D0008FFDECCDCDDD2AAD0BBD688D499D977EA0
:1002E000B66ED55EF44E133E322E511E700E9FFF39
:1002F000BEEFDDDFFCCF1BBF3AAF599F788F8891EF
:10030000A981CAB1EBA10CD12DC14EF16FE18010D2
:10031000A100C230E3200450254046706760B983D5
:100320009893FBA3DAB33DC31CD37FE35EF3B10222
:100330009012F322D2323542145277625672EAB5E5
:10034000CBA5A89589856EF54FE52CD50DC5E23472
:10035000C324A01481046674476424540544DBA7B5
:10036000FAB79987B8975FE77EF71DC73CD7D326C2
:10037000F2369106B01657667676154634564CD945
:100380006DC90EF92FE9C899E9898AB9ABA9445812
:10039000654806782768C018E1088238A3287DCB15
:1003A0005CDB3FEB1EFBF98BD89BBBAB9ABB754A62
:1003B000545A376A167AF10AD01AB32A923A2EFDA5
:1003C0000FED6CDD4DCDAABD8BADE89DC98D267CB2
:1003D000076C645C454CA23C832CE01CC10C1FEFF5
:1003E0003EFF5DCF7CDF9BAFBABFD98FF89F176E02
:1003F000367E554E745E932EB23ED10EF01E000234
:100400000E060C0411241FBECFEFD1E4DEBFCDBF1A
:1004100015E0A0E0B2E0EEE6F3E700E00BBF02C0BB
:1004200007900D92AC3CB107D9F71DE0ACECB5E0FC
:1004300001C01D92AB3DB107E1F70E946C300C94F6
:10044000B6390C9400008FB7F894992708958FBFA0
:1004500008958FB7F89499272091DF053091E00532
:10046000409107068FBF8FB7F894E42FFF27EE0F58
:10047000FF1FE358FA4F318320832091D205442394
:1004800011F02B7F01C02D7F2093D2051092DD0546
:1004900099278FBF0895E1ECF0E080818F7B808306
:1004A00080818F7780831092DA08109229078081EB
:1004B000886080838081806180838FEF809379055D
:1004C0008081806880838FB7F894992710920C09F7
:1004D0001092F7068FBF08952FB7F8943327EFEDEA
:1004E000F0E080818D7180832FBF8FEF809379053D
:1004F00008952FB7F8943327EFEDF0E080818E71E7
:1005000080832FBF8FEF8093790508958FB7F8947C
:1005100099272091BC002093D4088FBF08950E9492
:1005200086028091D4088E7F80698093D40880935E
:10053000BC000895282F9FB7F894E82FFF27E45FA9
:10054000F94F80818F3F81F4E0917F0DE21771F4C4
:100550000BC02093A80C04C0FF27E45FF94F208351
:1005600020937F0D20E007C025E005C08091A80CF6
:100570008F3F91F7EECF892F99278FBF822F992731
:1005800008958AE00E949A029927089589E00E94BE
:100590009A029927089585E10E949A029927089561
:1005A00082E10E949A029927089583E20E949A02AA
:1005B0009927089589E10E949A02992708958CE26B
:1005C0000E949A02992708958DE20E949A02992723
:1005D00008958EE20E949A02992708958BE10E9465
:1005E0009A02992708958CE10E949A02992708950A
:1005F0008EE10E949A02992708958DE10E949A0245
:10060000992708958FE10E949A029927089580E220
:100610000E949A029927089581E20E949A029927DE
:10062000089582E20E949A029927089584E20E9426
:100630009A029927089586E20E949A0299270895BE
:1006400087E20E949A029927089585E20E949A0201
:10065000992708958AE10E949A029927089588E2CD
:100660000E949A029927089589E20E949A02992786
:1006700008958AE20E949A02992708958BE20E94C7
:100680009A02992708959091D408882311F09460D4
:1006900001C09B7F9093D4088FEF809379050895D4
:1006A0000F931F93082F142F9091F705913001F5A8
:1006B00082E08093F70570933107609330073093A1
:1006C0005706209356064093FA0500939C0D10920E
:1006D0009D0C9093F8050E9486029091D408916831
:1006E0009F7A9093D408202F332720FD09C00DC096
:1006F000992319F484E090E025C085E090E022C0C1
:1007000090629093D40884E00AC0123020F4112340
:1007100059F022FF07C090649093D40883E080933F
:10072000F7050AC01130D1F321FF06C085E08093A0
:10073000F70590619093D4088091D4088093BC0011
:1007400080E090E01F910F9108956D3118F080E0E6
:1007500090E008950C960895685F0E94A5030097A5
:1007600009F00896089562E00E94A503089568E0E4
:100770000E94A5030895AC01E1EAF7E080E090E073
:100780009C01858180FF05C0808191818417950738
:1007900041F0C90101963B968A30910589F72FEF08
:1007A00030E0C90108951F931FB7F8948091780D28
:1007B000882341F486E00E949A02882319F481E09C
:1007C0008093780D812F99278FBF1F910895382F1F
:1007D000FA01422F2D3118F082E090E008956683EF
:1007E000872F99278583338741878091D6059091FC
:1007F000D705892B19F085E090E008952FB7F8947C
:10080000332785E08093D9051092DA05F093D5055A
:10081000E093D40582E090E09093D7058093D605CD
:100820001092DC051092DB05445F4093D8052FBF82
:100830008FB7F894282F332780910C098A3011F450
:100840002FBF19C02FBF9FB7F894809157078823F7
:1008500011F020E006C081E08093570710925807FE
:1008600021E0892F99278FBF222329F00E94D303EB
:1008700080E090E008951092D7051092D60581E0AF
:1008800090E00895CF93DF93DB01FB0135968183E0
:10089000892F9927EB018D8384E6868380919907C0
:1008A00090919A07892B19F085E090E029C0709308
:1008B0009A0760939907448380917B05882319F4F4
:1008C00080E090E01DC08681EB016D817727762F57
:1008D000662721813327622B732B10927B05242FEF
:1008E000AD010E94E7039927282F882339F081E082
:1008F00080937B0510929A0710929907822F99276F
:10090000DF91CF9108954CE167E47DE08FEF9FEF99
:100910000E944204882319F08CE00E949A020895F4
:10092000AC012091EB052D3018F081E090E00895A6
:100930008091EA05E82FFF27EE0FFF1FE35DF64FDA
:10094000518340838F5F8093EA058D3011F41092BC
:10095000EA052F5F2093EB0580E090E008951F9358
:10096000CF93DF93982F8FB7F894282F3327422FF8
:100970008091F605882309F046C011E01093F60532
:10098000909347092FBF8FB7F894C82FDD27809128
:10099000F7058823C9F4589A599A1092B90088E942
:1009A0008093B8001092BA001092BC000E94860298
:1009B00081E00E9443038091D4088E7F8093D40805
:1009C0008093BC001093F705CFBF8FB7F894C82F62
:1009D000DD279C2F80919105813099F48091F60557
:1009E000813021F480E30E949A0209C0823049F4E8
:1009F000809147098093910583E08093F605CFBFEE
:100A000007C09FBF05C080914709891721F42FBFF8
:100A100080E090E021C0E92FFF27EC5BF84F808158
:100A20008F3F89F4E0919005E91789F40CC0909309
:100A30008F0504C0FF27EC5BF84F908390939005DF
:100A400080E090E002C085E090E04FBF05C080915B
:100A50008F058F3F79F7EBCFDF91CF911F910895ED
:100A60004FB7F89455272091E100622F2091E200C2
:100A7000722F2091E300822F2091E400922F4FBF2C
:100A800008950F931F930FB7F89410919B070E943E
:100A900030059B01AC018091E00083FF05C01F5F22
:100AA0000E9430059B01AC01802F99278FBF612FD9
:100AB000772788279927FAE1660F771F881F991FE4
:100AC000FA95D1F7E6E05695479537952795EA953B
:100AD000D1F7622B732B842B952B1F910F910895C7
:100AE0000E94BB038F3F19F481E090E00895282F06
:100AF00033278BE090E0289FF001299FF00D389F6D
:100B0000F00D1124EF55F84F85818860858380E0D2
:100B100090E008952F923F924F925F926F927F9252
:100B20008F929F92AF92BF92CF92DF92EF92FF92FD
:100B30000F931F93CF93DF93CDB7DEB729970FB6EF
:100B4000F894DEBF0FBECDBF6FB76983F8942090D5
:100B500034073090350740903607509037076624A9
:100B6000772488241EE4A12EB3E8BB2ECC24DD24F8
:100B7000EE24FF2400E010E0222D332D442D552DCE
:100B8000662D772D882D90E00E949F342A833B8329
:100B90004C835D836E837F8388879987822E932E13
:100BA000A42EB52E2401350100E20E949D35A22E0F
:100BB000B32EC42ED52EA301920156954795379595
:100BC00027952A0D3B1D4C1D5D1D57FF05C05F7706
:100BD0002F5F3F4F4F4F5F4F2093340730933507C0
:100BE0004093360750933707E9818E2F99278FBF9F
:100BF000CA01B90129960FB6F894DEBF0FBECDBF6A
:100C0000DF91CF911F910F91FF90EF90DF90CF90E8
:100C1000BF90AF909F908F907F906F905F904F901C
:100C20003F902F9008950E948A05DC01CB01089522
:100C30006E5F0E94A503009709F0029608950B9637
:100C40000895FC0182819927982F882721813327D5
:100C5000822B932B25E0969587952A95E1F7817055
:100C600090700895EF92FF920F931F93CF93DF93AD
:100C70007B018C018FB7F894C82FDD270E943005C7
:100C80009B01AC01C801B701623071058105910576
:100C900020F462E070E080E090E0260F371F481FEC
:100CA000591FDA01C901B093F400A093F3009093A7
:100CB000F2002093F10082E08093E0008091DF0059
:100CC00082608F718093DF008FEF80937905CFBFB3
:100CD000DF91CF911F910F91FF90EF900895FB014D
:100CE00021E030E002C0220F331F8A95E2F7209501
:100CF00084A5822384A70895CF93DF93EC010E94FB
:100D00002106882339F18A8129819927982F8827FC
:100D10003327822B932B87749C7C81549848D1F481
:100D20008F814E812FB7F89433276091830570919E
:100D300084052FBF20E09927982F88275527842BDB
:100D4000952B8617970709F021E081E02827822F4D
:100D5000992702C080E090E0DF91CF910895FB01D8
:100D600021E030E002C0220F331F8A95E2F784A50C
:100D7000822399270895EF92FF920F931F937C018E
:100D80008FB7F894992700910F09109110090F5E01
:100D90001E4F1093100900930F09015111408FBF8E
:100DA00081E10E949A02C801B7010E944B36449625
:100DB0001F910F91FF90EF900895FC0127813085DE
:100DC000C901A3E0880F991FAA95E1F7820F931F2D
:100DD000860F971F6AE070E00E944B36708767832A
:100DE00008958091E905E82FFF27EE0FFF1FE35DCF
:100DF000F64F0190F081E02D2091EB05222351F078
:100E00008F5F8093E9058D3011F41092E905215030
:100E10002093EB05CF010895AC0120915A072C30A7
:100E200018F081E090E0089580913807682F620FF4
:100E3000712D711DFB016C30710508F03C97EE0FB0
:100E4000FF1FED5EF64F518340832F5F20935A07BB
:100E500080E090E00895AC01209159072C3018F003
:100E600081E090E008958091B30C682F620F712D9E
:100E7000711DFB016C30710508F03C97EE0FFF1FF0
:100E8000EE57F24F518340832F5F2093590780E044
:100E900090E00895FC0180818D50992708950E946B
:100EA0004A078850992708959BE0899FF0011124F3
:100EB000EF55F84F7183608312821382148285E0AC
:100EC0008583168210861782089580E090E0E6EA16
:100ED000F7E09C01808180FF08C0C90101963B9624
:100EE0008A309105B1F72FEF30E0C9010895982FAE
:100EF000AFEF60E070E040E050E0E6EAF7E08081CC
:100F0000282F332720FF0BC021FF09C023FD07C076
:100F1000228133812617370710F0A42FB9014F5FC4
:100F20005F4F3B964A30510551F7892F9927681733
:100F3000790718F48FEF90E008958A2F9927089584
:100F4000AC01309108068FEF4F3F580711F020E0B9
:100F500012C0832F99270895E22FFF2763E0EE0F39
:100F6000FF1F6A95E1F7E45AF94F80819181841758
:100F7000950719F02F5F231779F7822F9927089586
:100F80001F93CF93DF93162FC0E0D0E06AE10E9459
:100F90001806FC0180818123811711F4C1E0D0E0A3
:100FA000CE01DF91CF911F910895CF93DF931092DF
:100FB0007B05A0919907B0919A07109721F0809135
:100FC000B20C80FF08C081E080937B0517C085E0EC
:100FD0000E949A0213C0FD01359624813327ED014A
:100FE0006D817727762F662781819927682B792B4A
:100FF000AD0186810E94E703882349F7DF91CF91F5
:10100000089580910C098A3021F48091F70684308C
:1010100021F081E08093D105089588E00E949A0232
:101020001092D10508952FB7F89433278093C60006
:10103000E0ECF0E08081806480832FBF0895FC01A4
:101040006115710519F481E090E0089580914C07D5
:1010500090914D07892B19F085E090E008957093E9
:10106000920C6093910CF0934D07E0934C07109213
:1010700028071092270781E0809329078091C000FC
:1010800080648093C0008091C10080648093C1001F
:10109000808121E030E030932807209327070E94C9
:1010A000130880E090E008958FB7F8949927209175
:1010B000E2052E7F2093E2052EE720933E068FBFA8
:1010C00061E070E08EE396E00E941F089927089582
:1010D000AF92BF92CF92DF92EF92FF920F931F9346
:1010E0000E9441057B018C01209146073091470702
:1010F000409148075091490780913E0790913F07E2
:10110000A0914007B0914107820F931FA41FB51F04
:10111000E216F3060407150730F082179307A407B9
:10112000B50758F005C082179307A407B507E0F587
:10113000E816F9060A071B07B8F59C01AD012E1940
:101140003F09400B510B213060E0360760E0460755
:1011500062E0560768F180E090E0A0E0B2E0E80EBF
:10116000F91E0A1F1B1FE0924607F09247070093E3
:1011700048071093490780E090E0A0E0BEEFE80E3A
:10118000F91E0A1F1B1F2050304040405240209340
:101190003E0730933F07409340075093410720E0BC
:1011A00030E040E052E014C020E030E040E050E0A9
:1011B0008093460790934707A0934807B093490749
:1011C00010923E0710923F0710924007109241077D
:1011D00059016A0126E0AA0CBB1CCC1CDD1C2A9517
:1011E000D1F796E0EE0CFF1C001F111F9A95D1F766
:1011F0000E9430059B01AC012E5F3F4F4F4F5F4F68
:10120000DA01C9018E199F09A00BB10B8A159B0544
:10121000AC05BD0530F4A80197012A0D3B1D4C1DFE
:101220005D1D5093F8004093F7003093F600209333
:10123000F50081E08093E0008091DF0081608F7194
:101240008093DF008FEF809379051F910F91FF90BE
:10125000EF90DF90CF90BF90AF9008950F931F93C2
:101260000FB7F89411276093460770934707809350
:1012700048079093490720933E0730933F074093D8
:101280004007509341070E9468080FBF1F910F91BC
:1012900008951F920F920FB60F9211248F93809191
:1012A0009B078F5F80939B078F910F900FBE0F90CE
:1012B0001F9018951F920F920FB60F9211242F9323
:1012C0003F934F935F936F937F938F939F93AF93CE
:1012D000BF93EF93FF930E94790280913E07909114
:1012E0003F07A0914007B09141070097A105B105C4
:1012F00021F482E00E949A0202C00E946808FF91D5
:10130000EF91BF91AF919F918F917F916F915F917D
:101310004F913F912F910F900FBE0F901F901895F6
:101320001F920F920FB60F9211240F900FBE0F90C5
:101330001F901895EEEFF1E06927660FF11DE60F9B
:10134000F11DC895982F802D3196C8959025089548
:10135000982F8091DD05882389F5992379F531E06F
:101360003093DD0580917C058093DE052091D205C8
:10137000822F81708093070680918105909182056C
:101380009093E0058093DF058091D3058093E1057C
:1013900032273170267EE32FFF27EE0FFF1FE35821
:1013A000FA4F808191819093820580938105232B50
:1013B0002093D2058BE00E949A0208958091D20575
:1013C00080FF02C08B7F01C08D7F8093D20508957E
:1013D0000F931F93082F162F8091F7068130D9F0B5
:1013E000813038F0823009F44AC0833009F028C1D6
:1013F00059C0002309F458C11092850C1092840C36
:101400001092120910929E0C10922B0710929D07B9
:1014100010929C0739C1002309F046C180919C07B6
:1014200090919D070E949A0990939D0780939C0735
:1014300082E08093F70610939E0C143409F000C1EB
:1014400025C18695869503C08091D20586958170C9
:1014500009F0F6C08091D205992311F0846001C093
:1014600082608093D2058091D205877E88608093C8
:10147000D2051092D3058FEF80937C0515C1002310
:1014800009F0DEC060932B0780919C0790919D0727
:101490000E949A0990939D0780939C0783E0809314
:1014A000F70602C1809112098F3F09F4C9C00023D9
:1014B00009F461C0823008F4C3C0E091840CEE23CB
:1014C00009F4EBC04E2F4150E42FFF27EC57F34FA8
:1014D00082819927382F2227442311F4E2E002C0A9
:1014E000E42FE150FF27EC57F34F82819927282BF7
:1014F000392B80919C0790919D072817390709F097
:101500009FC080E00E94A80930912B0780918F072F
:1015100020919007982F9F5F963008F090E09217E7
:1015200071F0E82FFF27E157F84F32838F5F8093E8
:101530008F07863010F010928F070E94D30310920D
:10154000850C1092840C94E09093F7061092120987
:1015500010929E0C10922B0710929D0710929C07E0
:101560008091E2058D7F8093E2058091D1058823EB
:1015700009F49AC084C0823008F44EC0E091850C12
:10158000FF27EC57F34F8281482F5527342F2091A6
:10159000D205822F8695869586958370992781300E
:1015A000910519F00297F9F40EC0277E206120936F
:1015B000D205442311F485E001C080E08093D30577
:1015C00030937C0510C08091D3058F3260F4E09198
:1015D0008105F0918205E80FF11D40838091D305CC
:1015E0008F5F8093D3058091850CE82FFF27EC5700
:1015F000F34F62818F5F8093850C833010F01092DF
:10160000850C772780919C0790919D070E949A09ED
:1016100090939D0780939C078091840CE82FFF276F
:10162000EC57F34F12838F5F8093840C833010F05C
:101630001092840C809112098F5F8093120934C03C
:101640001092850C1092840C14E01093F7061092FF
:10165000120910929E0C10922B0710929D07109267
:101660009C078091E2058D7F8093E20581E00E94D6
:10167000A8098091D105882329F01093F7060E94CC
:10168000010812C0002381F081E009CF8091D205CA
:10169000982F917080FDD5CED7CE8091880C992758
:1016A000382F222742E01CCF1F910F9108951F92DF
:1016B0000F920FB60F9211242F933F934F935F9386
:1016C0006F937F938F939F93AF93BF93EF93FF930A
:1016D0008091C00087FF42C06091C600E0919E07E4
:1016E000F0919F07309719F18091760D9091770DC9
:1016F000E80FF91F608301969093770D8093760D24
:1017000020919D0D30919E0D8217930738F1109214
:101710009F0710929E078091DA088330F9F080913C
:10172000C1008F778093C1001092DA0817C06E371E
:1017300019F460E081E010C08091E2056D3721F47A
:1017400082608093E2050AC081FF05C08D7F80938F
:10175000E20580E2682780E00E94E809FF91EF91AE
:10176000BF91AF919F918F917F916F915F914F91B9
:101770003F912F910F900FBE0F901F901895982FAB
:101780008D57823068F48091E20581608093E20594
:1017900080E28927809311098DE780933E0602C07D
:1017A00090933E0661E070E08EE396E00E941F0891
:1017B0009927089578941F920F920FB60F921124D3
:1017C000FF920F931F932F933F934F935F936F93CA
:1017D0007F938F939F93AF93BF93CF93DF93EF93B9
:1017E000FF9320912707309128078091910C9091C9
:1017F000920C2817390780F4E0914C07F0914D07BF
:10180000E20FF31F80812F5F3F4F30932807209313
:1018100027070E941308D1C010924D0710924C0761
:10182000109229078091C1008F7B8093C100FFB681
:10183000F8948091E20580FF0EC08E7F8093E205D0
:101840008091110980933E0661E070E08EE396E09E
:101850000E941F08AFC080910C09843009F48CC02D
:10186000853040F4823021F18330B8F5813009F0C1
:101870009CC00DC0863009F48DC0863008F483C04A
:10188000873009F48EC0883009F08FC091C08091F4
:1018900045070E94BF0B082F83E080930C096091DD
:1018A000450780919A0D90919B0D0E949A0910C056
:1018B0008091B00C0E94BF0B082F83E080930C092D
:1018C0006091B00C80919A0D90919B0D0E949A09A5
:1018D00090939B0D80939A0D66C0E0911008FF27AE
:1018E000EE0FFF1FEA5AF84F80810E94BF0B082FAE
:1018F00010911008C12FDD27FE01EE0FFF1FEA5ADD
:10190000F84F608180919A0D90919B0D0E949A09E9
:1019100090939B0D80939A0D20913B072F5F20930E
:101920003B07113039F58091D905E091D405F0914C
:10193000D505E80FF11DE0818F5F8093D905909167
:10194000D805981730F482E08093570740E050E0C4
:1019500002C04E2F5527DE01AA0FBB1FFD01EB5A17
:10196000F84F8081823031F02F3F21F0AA5AB84FD2
:101970004C9319C084E012C080919A0D0E94BF0B55
:10198000082F85E00BC080919B0D0E94BF0B082F94
:1019900086E004C00E945408082F87E080930C0959
:1019A00002C088E003C0002329F089E080930C097D
:1019B0000E94D3038F2D99278FBFFF91EF91DF9165
:1019C000CF91BF91AF919F918F917F916F915F91D7
:1019D0004F913F912F911F910F91FF900F900FBE4C
:1019E0000F901F9018951F920F920FB60F9211240F
:1019F0008F938091C80087FF02C08091CE008F91A5
:101A00000F900FBE0F901F90189578941F920F9211
:101A10000FB60F9211240F900FBE0F901F901895C4
:101A20001F920F920FB60F9211248F939F93809164
:101A3000B40C8F5F8093B40C80913C0790913D076C
:101A4000019690933D0780933C07892B29F4809160
:101A500039078F5F809339079F918F910F900FBE49
:101A60000F901F9018951F920F920FB60F9211248E
:101A70000F900FBE0F901F9018951F920F920FB6E8
:101A80000F9211240F900FBE0F901F9018951F9268
:101A90000F920FB60F9211240F900FBE0F901F9050
:101AA00018951F920F920FB60F9211240F900FBE30
:101AB0000F901F901895863019F0873081F408C078
:101AC000EE988FEF8093790588E10E949A0208953D
:101AD000EF988FEF8093790587E10E949A0208952D
:101AE0001F920F920FB60F9211242F933F934F9393
:101AF0005F936F937F938F939F93AF93BF93EF9376
:101B0000FF9380E00E945B0DFF91EF91BF91AF9139
:101B10009F918F917F916F915F914F913F912F9105
:101B20000F900FBE0F901F9018951F920F920FB637
:101B30000F9211242F933F934F935F936F937F9353
:101B40008F939F93AF93BF93EF93FF9381E00E9496
:101B50005B0DFF91EF91BF91AF919F918F917F911D
:101B60006F915F914F913F912F910F900FBE0F900A
:101B70001F9018951F920F920FB60F9211242F935A
:101B80003F934F935F936F937F938F939F93AF9305
:101B9000BF93EF93FF9382E00E945B0DFF91EF9163
:101BA000BF91AF919F918F917F916F915F914F9175
:101BB0003F912F910F900FBE0F901F9018951F927D
:101BC0000F920FB60F9211242F933F934F935F9371
:101BD0006F937F938F939F93AF93BF93EF93FF93F5
:101BE00083E00E945B0DFF91EF91BF91AF919F91B8
:101BF0008F917F916F915F914F913F912F910F90B6
:101C00000FBE0F901F9018951F920F920FB60F9254
:101C100011242F933F934F935F936F937F938F93F1
:101C20009F93AF93BF93EF93FF9384E00E945B0D6C
:101C3000FF91EF91BF91AF919F918F917F916F91A4
:101C40005F914F913F912F910F900FBE0F901F907A
:101C500018951F920F920FB60F9211242F933F9356
:101C60004F935F936F937F938F939F93AF93BF93A4
:101C7000EF93FF9385E00E945B0DFF91EF91BF9181
:101C8000AF919F918F917F916F915F914F913F9114
:101C90002F910F900FBE0F901F9018951F920F92CB
:101CA0000FB60F9211242F933F934F935F936F932F
:101CB0007F938F939F93AF93BF93EF93FF9386E0B0
:101CC0000E945B0DFF91EF91BF91AF919F918F911A
:101CD0007F916F915F914F913F912F910F900FBE28
:101CE0000F901F9018951F920F920FB60F9211240C
:101CF0002F933F934F935F936F937F938F939F9314
:101D0000AF93BF93EF93FF9387E00E945B0DFF912A
:101D1000EF91BF91AF919F918F917F916F915F9163
:101D20004F913F912F910F900FBE0F901F901895DC
:101D3000CF93DF93882319F4CFEFDFEF18C0682F1C
:101D4000772784EC99E00E945F36EB016B3F7105C9
:101D500010F0CFEFDFEFDF93CF9380E092E09F931F
:101D60008F930E94DB360F900F900F900F90CE0153
:101D7000DF91CF9108950F931F93CF93DF93C1EA23
:101D8000D7E000E010E08D8180FF18C08F8198853A
:101D90009F938F93888199819F938F931F930F9324
:101DA00085E192E09F938F930E94DB368DB79EB7BB
:101DB00008960FB6F8949EBF0FBE8DBF0F5F1F4FE2
:101DC0002B960A301105F9F6DF91CF911F910F91F3
:101DD00008950F931F93CF93DF938C019F938F935D
:101DE00080917705909178059F938F938EE292E092
:101DF0009F938F930E94DB360E94BB0EC8010E9406
:101E0000BB032DB73EB72A5F3F4F0FB6F8943EBFD6
:101E10000FBE2DBF8F3F59F48FE592E09F938F93B4
:101E20000E94DB368FEF9FEF0F900F9022C0992713
:101E30002BE030E0829FE001839FD00D929FD00D78
:101E40001124CF55D84F8D8181FD03C08FEF9FEFB7
:101E500010C08F8198859F938F9384E792E09F9322
:101E60008F930E94DB368F8198850F900F900F9093
:101E70000F90DF91CF911F910F9108950F931F93B2
:101E8000CF93DF93EC01892BE9F02091890C3091FD
:101E90008A0C8FEF2F3F3807A9F08091FC05813025
:101EA00019F4198218820BC000918B0C10918C0CC4
:101EB000C9010E94E90E080F191F1983088380E0E9
:101EC00090E002C081E090E0DF91CF911F910F91EF
:101ED0000895CF92DF92FF920F931F93CF93DF93DA
:101EE000282F062F482F55278BE090E0489FE001D0
:101EF000499FD00D589FD00D1124CF55D84F8D81BB
:101F000082FF02C08B7F8D838A81302F381B0A832A
:101F10008B818F5F8B83332379F08C81830F81508A
:101F20008C833B3048F068817981822F0E9454076E
:101F30000A8381E08B837AC08BE090E0489FF001B8
:101F4000499FF00D589FF00D1124EF55F84F8381F4
:101F50002481820F912D911D03971CF4333008F4D6
:101F600065C0C080D180DF92CF9280E992E09F93DC
:101F70008F930E94DB36C1EAD7E00F900F900F904D
:101F80000F90888199818C159D0509F049C08D813C
:101F9000282F332720FF44C06B81FC80F60E21FDE3
:101FA00016C07727882799272AEF30E040E050E0D5
:101FB0000E9420362F2D3327442755270E94723642
:101FC000DA01C9012E830E94980E98878F838D8134
:101FD00082608D830E8189E0089F800111246B81CE
:101FE0007727882799272AEF30E040E050E00E94C9
:101FF00020362F2D3327442755270E947236C801DB
:10200000820F911D6AE070E00E945F36CB016E8303
:102010001B821C820E94980EBC01CE010E94DD062C
:102020002B9688E0CF30D80709F0ABCFDF91CF9166
:102030001F910F91FF90DF90CF9008950F931F9302
:102040001092F2050091B50C1091B60C1F930F93EE
:102050008EEA92E09F938F930E94DB361093CF0518
:102060000093CE050F900F900F900F908091F20586
:10207000882389F481E08093F20584E180932A0724
:102080008091F40583FF05C080E00E94AF0488239F
:1020900011F01092F2051F910F9108952F923F9227
:1020A0004F925F926F927F928F929F92AF92BF9268
:1020B000CF92DF92EF92FF920F931F93CF93DF9314
:1020C0002C0180915306882309F01EC180915B0783
:1020D000853009F019C180917C0B882309F014C167
:1020E000B20182E00E94AF06882311F49AE003C097
:1020F000F20196A59F7080910F08981729F0909390
:102100000F08906C9093450112010894211C311C1A
:10211000F1018181F201218140E09927982F8827E0
:102120003327822B932B87749C7C8154984809F425
:1021300041E04423A9F08091460199278F71907066
:102140002091B10C40910606240F312D311D43E042
:10215000359527954A95E1F7281739070CF4D4C02F
:1021600089E080934201B20184E00E94AF06882397
:1021700019F4C0E0D0E006C0D2018C918550E20194
:10218000C80FD11DF20180819927282F80938001EB
:10219000809141018F71893021F086E08093420166
:1021A000B3C00EEFF02EF20E0FB7F89411270E9475
:1021B00030053B014C0182E0809342010FBF8BE070
:1021C00090E0A0E0B0E0680E791E8A1E9B1E6F2D85
:1021D0007727209709F47EC02881E9808A81AB8027
:1021E0009927AA27BB27BA2FA92F982F88273327EB
:1021F00044275527522F442733272227FF2400271F
:1022000011278701FF24EE242E293F29402B512B33
:10221000BB24CC24DD242A293B294C295D29822B8F
:10222000932BA42BB52B86199709A809B9098B8381
:10223000292F3A2F4B2F55272A839D0144275527B5
:1022400029838B2F9927AA27BB278883AB01B1014C
:1022500081E891E00E94CB3686E08093420128819C
:10226000E9808A81AB809927AA27BB27BA2FA92F9B
:10227000982F8827332744275527522F4427332761
:102280002227FF24002711278701FF24EE242E296F
:102290003F29402B512BBB24CC24DD242A293B2968
:1022A0004C295D29822B932BA42BB52B860D971DD2
:1022B000A81DB91D8B83292F3A2F4B2F55272A8311
:1022C0009D014427552729838B2F9927AA27BB27B0
:1022D000888309C0AB01B10181E891E00E94CB364F
:1022E00086E080934201F20184A5826084A760A603
:1022F00071A682A693A686E080935B0784E0809314
:10230000530680E090E002C085E090E0DF91CF913D
:102310001F910F91FF90EF90DF90CF90BF90AF9003
:102320009F908F907F906F905F904F903F902F90F5
:102330000895CF93DF93EC018985882351F486EBD0
:1023400092E00E94F2369A858AE0989FB0011124AB
:1023500020C099279F938F938A8599279F938F9366
:1023600089EC92E09F938F930E94DB369A85698572
:1023700077278AE0989FC00111240E945F36198652
:102380001A868DB79EB706960FB6F8949EBF0FBEFD
:102390008DBFCE010E94DD06DF91CF91089521E02F
:1023A000209354072093D5080E9432060895982F51
:1023B0008091F605833009F04AC080919105891714
:1023C00009F045C080918F0520E030E08F3F11F487
:1023D00021E030E0232BF9F48F3F19F42FEF30E0A8
:1023E0000EC0282F3327F901EC5BF84F80818093D2
:1023F0008F058F3F11F4809390058FEF808320939A
:1024000047098FEF8093910581E08093F60580E383
:102410000E949A0219C081E0809391051092F605FE
:102420008091F705813081F40E94860280E00E944D
:1024300043038091D4088E768093D4088093BC00A7
:10244000589859981092F70580E090E0089581E03F
:1024500090E00895EF920F931F93AE2D99E0899F1E
:10246000F0011124EF5EF74F408351836283738341
:102470000483158326833783A17080858E7F8A2B02
:102480008260808783E00E949A021F910F91EF90F3
:102490000895AF92BF92CF92DF92EF92FF920F9387
:1024A0001F93F82E5A016B010E944105AB01BC013C
:1024B000E1E0EE2E960185018F2D0E942A121F91D8
:1024C0000F91FF90EF90DF90CF90BF90AF90089565
:1024D000EF92FF920F931F9380918B0590918C0543
:1024E000A0918D05B0918E05B695A7959795879586
:1024F0008093C0069093C106A093C206B093C30612
:102500000E948A05E090C006F090C1060091C206C4
:102510001091C306A80197010E947236AB01BC015D
:102520004E0D5F1D601F711F4093C0065093C10682
:102530006093C2067093C30610927D0C82E00E94E5
:1025400049121F910F91FF90EF90089580E890E05D
:10255000A0E0B0E080938B0590938C05A0938D054F
:10256000B0938E050E94681208950F931F93FC018B
:1025700000810D50112762E00E94A503FC0120811B
:1025800033272F703070C901880F991F820F931F56
:10259000081B0250802F99271F910F9108951F93B8
:1025A000982F1FB7F8948091E705823099F58091B4
:1025B0008805891779F58091860520E030E08F3F06
:1025C00011F421E030E0232BF1F49FEF9093880584
:1025D0008F3F19F42FEF30E00DC0282F3327F9017A
:1025E000E55AF94F8081809386058F3F11F49093CF
:1025F000870590832093580681E08093E7058DE05E
:102600000E949A0205C08FEF809388051092E7051B
:1026100021E001C020E0812F99278FBF90E0213079
:1026200009F491E081E09827892F99271F91089557
:102630008091E5058C3118F04CE150E002C0482F44
:1026400055278CE1E3E5FDE011928A95E9F7909139
:10265000E5058091E30520E030E0A3E5BDE00FC093
:10266000E82FFF27E358F44FE081992329F08F5F8B
:102670008A3F09F480E09150ED932F5F3F4F24177C
:10268000350771F79093E5058093E3054CE167E426
:102690007DE08FEF9FEF0E944204882319F08CE0C9
:1026A0000E949A020895662351F48091E5058823DB
:1026B00019F00E94181308951092E60508958CE011
:1026C0000E949A0208951F938091B20C882321F1F1
:1026D00090E011E02091B20C822F8123C1F0E92F0C
:1026E000FF27EE0FFF1FE756F84F408151811182FF
:1026F0001082812F809528232093B20C992339F4DE
:1027000063E0CA010E945313110F91E0E3CF9F5F72
:10271000983010F4110FDECF1F9108951F93CF93BF
:10272000DF9310917B05E12FFF27EE0FFF1FE75688
:10273000F84FC081D181118210820E94D5071123E8
:1027400021F461E0CE010E945313DF91CF911F91DC
:1027500008958FB7F894282F33278091E6058130AC
:1027600021F42FBF80E090E0089590E08091E5058E
:10277000882309F491E0992321F02FBF81E090E0B4
:10278000089581E08093E6052FBF0E94181380E032
:1027900090E00895EF920F931F93882381F482EFC6
:1027A00092E00E94F2360E944105AB01BC01EE248A
:1027B00000ED17E020E030E081E00E942A120E9444
:1027C000A9131F910F91EF9008958091460881FF02
:1027D00003C08D7F809346081092F2058091F50525
:1027E0000E94CA13089588E093E09F938F930E94FC
:1027F000DB360E94A9135F980F900F9008950F93F6
:102800001F938C01FB0180819927982F88272181B4
:102810003327822B932B9F938F9385E193E09F9394
:102820008F930E94DB360E94A9130F900F900F9098
:102830000F90C8011F910F9108951F93182F809139
:10284000E605882349F48091E5058D3728F081E07D
:102850008093E6050E9418138FB7F894282F33272A
:102860009091E5059A3FA8F48091E405E82FFF27B1
:10287000E358F44F10838F5F8093E4058A3F11F48F
:102880001092E4059F5F9093E5052FBF80E090E0F4
:1028900003C02FBF8FEF9FEF1F9108958093B70C58
:1028A000882311F484E001C081E08093C6068FE0A4
:1028B0000E949A0208958091C606823031F481E028
:1028C0008093C6068FE00E949A0208958F929F928D
:1028D000AF92BF92CF92DF92EF92FF920F931F932E
:1028E000CF93DF9380917C0B882309F42AC12FB703
:1028F000F89433278091E900882E8091EA00982E81
:102900008091EB00A82E8091EC00B82E00917C0BFA
:1029100010927C0B2FBF07FF0DC0809153068330B0
:1029200011F0873039F485E080935B0788E080936D
:10293000530678C080915306843009F073C001FFBC
:1029400071C085E080935B071092530680910A0660
:10295000833019F410920A0665C0C091800DD091A1
:10296000810DCE010E942106882309F454C08A817A
:1029700029819927982F88273327822B932B8774B7
:102980009C7C8154984809F046C08F812E819927FC
:10299000982F88273327822B932B8F5F9F4FD9F156
:1029A00090E08091D508882309F491E0992399F16A
:1029B00080E090E0AAE7B2E4BF93AF939F938F9338
:1029C00080E090E0A0E8BDE3BF93AF939F938F9327
:1029D00088EE93E09F938F9381E293E09F938F9390
:1029E0000E94DB360E94A91312E01093540781E085
:1029F0008093D5086EE370E080E090E00E9432069C
:102A000010930A068DB79EB70C960FB6F8949EBF2A
:102A10000FBE8DBF07C010920A061092C70680E055
:102A20000E944E14C02FDD27C5FF50C08091530671
:102A3000863019F41092530603C0882309F046C06B
:102A4000003361F4E091CE0DF091CF0D84A582604A
:102A500084A780A691A6A2A6B3A634C0E091CE0D0D
:102A6000F091CF0D003219F5F09046019FE1F92267
:102A700080910606982F969596952F2D291B820FEB
:102A80008093060684A5826084A780A691A6A2A64C
:102A9000B3A60091CE0D1091CF0DB80182E00E9437
:102AA0006F06F80184A5886084A7F6A60BC0BF0155
:102AB00081E00E946F066091CE0D7091CF0D83E092
:102AC0000E946F0685E08093530604C080915306F0
:102AD000853089F4C4FF0FC02091B10C809146016C
:102AE0008F71922F96959695891B280F2093B10C84
:102AF00089E080935306C0FF0CC080915B07823051
:102B000041F4809153068250823018F483E0809320
:102B10005B07C3FF16C080915306863091F4809105
:102B200055018F7780935501109253068091410192
:102B3000992787709070892B09F436C280914101E2
:102B400033C290915306992309F42EC2993009F0AB
:102B50009CC140917B018091460187FF5EC043305C
:102B600008F45BC0842F99278A970CF056C0E09137
:102B7000CE0DF091CF0D41934250552760E871E0A2
:102B8000CF010E94CB36E091CE0DF091CF0D818127
:102B900090E08770823009F491E0992349F020E0B9
:102BA00030E080910A06823081F421E030E00DC0EF
:102BB0008FB7F894282F332790E08091770C8330DB
:102BC00008F491E02FBF292F3327232B31F1E09117
:102BD0007B01FF27E058FE4F8081E091CE0DF09100
:102BE000CF0D85A785E080935B0710925306E09098
:102BF000CE0DF090CF0D67010894C11CD11CF701D8
:102C0000818190E0282F33272770307022303105E2
:102C100009F491E0992339F42CC085E080935B0797
:102C200010925306BDC180910A06823009F028C176
:102C3000F7018381E091800DF091810D93818917D7
:102C400009F01EC12230310509F01AC10E946C0240
:102C50001092D508E091800DF091810D84A58160DE
:102C600084A710920A061092C70680E00E944E14B4
:102C700007C180910A068823D1F4C7010E947C060F
:102C80008823A9F085E080935C0782E080935D074C
:102C900010925E07F601828180935F078CE597E0D2
:102CA0000E944E10882319F483E080930A060E9444
:102CB00030058B01C7010E947C06882311F00A5C55
:102CC0001F4F10939807009397070E943005061B2B
:102CD000170BB80110161106BCF48091C7068823A3
:102CE00081F490E08091D508882309F491E099233C
:102CF00059F0882777FD8095982F0E94CF1180E8A2
:102D000001C080688093C706F601808527819927D6
:102D1000582F44273327422B532B80910B06282F03
:102D20003327F901EE0FFF1FED56F34F808191819C
:102D30007091D8088417950769F4F901E658F24FA5
:102D40008081871709F467C0872F8F5F8093D80829
:102D500080831DC000E010E080E090E0C3E9DCE08B
:102D6000EAE7FDE0DF01682F9C01888199818417E3
:102D7000950779F420930B069091D8088C918917C8
:102D800009F449C0892F8F5F8093D8088C9300E89D
:102D900029C08081972F981B091710F4092F122F33
:102DA0006F5FC90101961196229631968530910583
:102DB000D1F66530B9F410930B06A12FBB27FD01A6
:102DC000EE0FFF1FED56F34F518340838091D808DB
:102DD0008F5F8093D808FD01E658F24F8083A0539F
:102DE000B24F1C929091D808892F8F778F3779F442
:102DF0000F3768F0EAE7FDE0292F207880818F67A0
:102E00008913208331968DE0EF37F807B9F7809169
:102E10000B06282F3327F6019281A22FBB27FD0135
:102E2000E053F24F808180FF07C0FD01E858F34F67
:102E30008081981729F102C081608083A858B34F20
:102E40009C93DFB6F8948091770C8330B0F4E091D6
:102E5000AF0CE80FE33008F0E350FF27EE0FFF1F41
:102E6000E350FA4F00811181F182E0828F5F8093FD
:102E7000770C80E10E949A0278018D2D99278FBFEF
:102E8000F092CF0DE092CE0D82C0292F2150233039
:102E900008F068C0892F8250823098F480915B07D7
:102EA000813079F49FEF90934F0180E880934E0139
:102EB000809139018D7F809339019093790582E06B
:102EC0001AC09330D9F480915B078330B9F48091B4
:102ED000790D8064809348018DE580934E018FEFDA
:102EE0008093790586E08093420180914401806857
:102EF0008093440184E080935B0717C02230A8F4DC
:102F000080915B07853089F4809144018F778093AD
:102F1000440193E09093420110924E0110927C0B79
:102F20008FEF8093790590935B07909153069130D2
:102F300069F480915B07833009F050C080913901BA
:102F400082608093390190935B071DC09230F9F441
:102F500080915B07833021F510924E018FEF8093B3
:102F6000790511C0973099F490915B07913059F031
:102F70008091790D806480934801953021F484E03C
:102F800080935B0704C088E08093530604C080915F
:102F90005306883029F4109253068EE00E949A025C
:102FA000809153068823D1F480915B078530B1F47A
:102FB00080917C0B882391F480910A06882371F418
:102FC0008091C706882351F490E08091D50888232A
:102FD00009F491E0992311F00E945B148091D508C7
:102FE000823009F077C01092D508F0905407F1E0D4
:102FF000FF1629F022E0F21609F06CC064C0C091FF
:103000009707D09198070E9430052091C706203875
:1030100029F41092C7060E945B145CC08E01061B47
:10302000170B27FF03C010161106ECF0C091C40661
:10303000D091C50680910A068823A9F4CE010E948A
:103040004E109927882351F4BE010E946F06F0921A
:103050000A06D093810DC093800D31C09927F82EB8
:10306000882369F102C035E0F32E2091C706822F34
:1030700099278F77019779F4207822602093C706EB
:103080008CE890E00E94BB06AA27BB27BC01CD01BB
:103090000E94CF111FC027FF0EC0101611065CF44E
:1030A00080E88093C706B801882777FD8095982F20
:1030B0000E94CF1102C01092C7068F2D09C083E075
:1030C0008093C70607C010920A061092C70680E0D8
:1030D0000E944E148FB7F894282F332780915506FD
:1030E000813029F081E0809355062FBFFBCB1092F1
:1030F00055062FBFDF91CF911F910F91FF90EF9059
:10310000DF90CF90BF90AF909F908F9008958FB732
:10311000F894282F332780915506882329F080685A
:10312000809355062FBF089581E0809355062FBFE9
:103130000E94661408951F920F920FB60F921124E9
:103140002F933F934F935F936F937F938F939F93AF
:10315000AF93BF93EF93FF930E946C028091D508C9
:10316000813019F482E08093D5080E948718FF917E
:10317000EF91BF91AF919F918F917F916F915F91EF
:103180004F913F912F910F900FBE0F901F90189568
:103190001F920F920FB60F9211242F933F934F93CC
:1031A0005F936F937F938F939F93AF93BF93EF93AF
:1031B000FF932FB7F894332780917C0B806880931E
:1031C0007C0B2FBF78940E948718FF91EF91BF91DD
:1031D000AF919F918F917F916F915F914F913F91AF
:1031E0002F910F900FBE0F901F9018951F920F9266
:1031F0000FB60F9211242F933F934F935F936F93CA
:103200007F938F939F93AF93BF93EF93FF932FB7CA
:10321000F894332780917C0B826080937C0B2FBFC6
:1032200078940E948718FF91EF91BF91AF919F9181
:103230008F917F916F915F914F913F912F910F905F
:103240000FBE0F901F9018951F920F920FB60F92FE
:1032500011242F933F934F935F936F937F938F939B
:103260009F93AF93BF93EF93FF932FB7F8943327B8
:1032700080917C0B806280937C0B2FBF78940E949E
:103280008718FF91EF91BF91AF919F918F917F919F
:103290006F915F914F913F912F910F900FBE0F90C3
:1032A0001F9018951F920F920FB60F9211242F9313
:1032B0003F934F935F936F937F938F939F93AF93BE
:1032C000BF93EF93FF932FB7F894332780917C0B34
:1032D000806180937C0B2FBF78940E948718FF91A8
:1032E000EF91BF91AF919F918F917F916F915F917E
:1032F0004F913F912F910F900FBE0F901F901895F7
:103300001F920F920FB60F9211242F933F934F935A
:103310005F936F937F938F939F93AF93BF93EF933D
:10332000FF932FB7F894332780917C0B88608093AC
:103330007C0B2FBF78940E948718FF91EF91BF916B
:10334000AF919F918F917F916F915F914F913F913D
:103350002F910F900FBE0F901F9018951F920F92F4
:103360000FB60F9211242F933F934F935F936F9358
:103370007F938F939F93AF93BF93EF93FF932FB759
:10338000F894332780917C0B816080937C0B2FBF56
:1033900078940E948718FF91EF91BF91AF919F9110
:1033A0008F917F916F915F914F913F912F910F90EE
:1033B0000FBE0F901F9018958FB7F894282F3327C2
:1033C00080915506815080935506803811F02FBFAB
:1033D000089581E0809355062FBF0E9466140895DA
:1033E0001F93FC018FE382878091F9058F5F8093A3
:1033F000F90583832FB7F8943327809155068F5FA3
:10340000809355062FBF8091C606882311F015E0E2
:103410000DC0F0930E09E0930D0981E08093C6067C
:103420001092D9088FE00E949A0210E00E94DC19E5
:10343000812F99271F910895FF920F931F93CF9388
:10344000DF93F82E8B01EA01622F2D3118F086E010
:1034500090E092C0FA0131968181298170E099272C
:10346000582F44273327422B532BCA0187749C7C47
:103470008154984809F471E0772349F4CA018073B4
:103480009070816498688983892F99278183635F0D
:1034900068832FB7F8943327809183059091840532
:1034A0002FBF8887892F992789872FB7F8943327CB
:1034B000809185052FBF99278C831D82CE010E94A4
:1034C0001F06FC01F0820E83812F99278F838FB70F
:1034D000F894282F33278091E705882371F482E040
:1034E0008093E705109288052FBFCE010E94F01946
:1034F0009927182F882399F00FC02FBFD0935A0611
:10350000C09359068FB7F894C82FDD272C2F8091D0
:10351000E705882399F406C080E00E94CF12812F2E
:1035200099272AC081E08093E705109258068DE024
:103530000E949A02CFBF80E090E01EC080915B069F
:103540008F3F89F4E0918705EE2369F010C0109257
:10355000860504C0FF27E55AF94F108210928705AF
:1035600080E090E002C085E090E02FBF05C0809130
:1035700086058F3F79F7EBCFDF91CF911F910F91A8
:10358000FF900895EF92FF920F931F93CF93DF93D5
:10359000E82E8B01F42E81E08E1518F481E090E086
:1035A0003BC0CE2DDD27CC0FDD1FCD55D34F8881FD
:1035B0009981892B19F085E090E02EC0198308834A
:1035C000EDE0FE0EF801F082F3EFFF0E8091890529
:1035D000823018F480E090E01FC0C8010E941F06EE
:1035E000FC018081F80167817727762F6627268185
:1035F0003327622B732BE09289052F2DA8010E949F
:103600001C1A9927282F882329F082E080938905A6
:1036100019821882822F9927DF91CF911F910F91E4
:10362000FF90EF900895CF93DF93982FE901809159
:103630009105882309F0B0C08091F605833009F028
:10364000ABC09093F5050E948F0280E00E94D711D5
:10365000982F20912A07822F8251833018F0492F0A
:10366000552707C089819927582F44278881480FFB
:10367000511D2F3009F46EC02031B0F4233009F40D
:1036800055C0243038F4213009F446C0223009F006
:1036900083C047C02D3009F458C02E3008F050C008
:1036A000243009F079C047C0223109F462C02331C7
:1036B00038F4203109F453C0213109F06DC054C0F1
:1036C000243109F462C0243108F459C0253109F0CD
:1036D00063C089819927982F88272881820F911D9F
:1036E00090934F0780934E078B819927982F8827B7
:1036F0002A81820F911D90935107809350078D81ED
:103700009927982F88272C81820F911D909353071A
:103710008093520783E23EC0888180933D0684E215
:1037200039C08881809332078CE234C088818093CD
:10373000A0078DE22FC08881809309068EE22AC0FF
:1037400088818093F4058BE125C0888180933307BD
:103750008CE120C088818093DB088EE11BC08881CA
:103760008093A70C8DE116C08881809303068FE1BA
:1037700011C050937F0C40937E0C80E20BC050939D
:10378000B60C4093B50C81E205C05093810C409378
:10379000800C82E20E949A02DF91CF9108950E94EC
:1037A0008A052FB7F89433277093100960930F0997
:1037B0002FBF08958091F205882319F085E090E0ED
:1037C000089581E08093F20510922A0780E00E941C
:1037D000AF049927882351F440ED57E060E070E092
:1037E00085E00E94491280E090E008951092F20571
:1037F000992708950F931F931092F20500917E0C64
:1038000010917F0C1F930F938EE393E09F938F9300
:103810000E94DB361093CD050093CC050F900F90DE
:103820000F900F908091F205882389F481E08093B6
:10383000F20583E180932A078091F40583FF05C098
:1038400080E00E94AF04882311F01092F2051F91CE
:103850000F9108951F9310E0E6EAF7E08081992721
:1038600080FF04C083FD02C081FF1F5F3B9688E09C
:10387000E431F80799F71123F9F00E948A05DC0179
:10388000CB01612F77270E944B36682F40E050E034
:10389000E6EAF7E0CA012081222341F0332723FD25
:1038A00005C021FD03C061506F3F41F04F5F5F4F86
:1038B0003B964A30510571F78FEF90E01F910895C4
:1038C000CF92DF92EF92FF920F931F936C017B01D7
:1038D0000E948A05DC01CB01B6010E944B36E80E3E
:1038E000F91E00271127B801A70184E00E944912A0
:1038F0001F910F91FF90EF90DF90CF900895CF939D
:10390000DF93EC010E94A007282F8091080628175A
:10391000D1F0382F31503093080613C0822F9927E9
:10392000B3E0880F991FBA95E1F7DC01A45AB94FAB
:10393000FC01EC59F94F88E001900D928150E1F7BC
:103940002F5F231758F3DF93CF9386E493E09F9381
:103950008F930E94DB360F900F900F900F90809105
:10396000890C90918A0C8C179D07A1F48FEF9FEF23
:1039700090938A0C8093890C10928C0C10928B0C73
:1039800010928D0C10928E0C81E08093F10585E1F0
:103990000E949A0281E693E09F938F930E94DB3608
:1039A0000F900F90DF91CF910895AF92BF92CF9279
:1039B000DF92EF92FF920F931F93CF93DF935B0100
:1039C0006C01C0E0D0E0E1E1F8E0608561FFD4C0C7
:1039D0002081318142815381E480F5800681178105
:1039E000D601C501821B930BA40BB50B8E159F0549
:1039F000A007B10708F4C0C060FF03C06D7F6087F7
:103A000008C02E0D3F1D401F511F2083318342836C
:103A10005383C23079F1C33030F4CC2371F0C1301C
:103A200009F0B0C00FC0C43009F48FC0C43008F42E
:103A300078C0C53009F0A6C091C080E00E949A020B
:103A400081E089C08091F205882309F09BC081E064
:103A50008093F20582E180932A078091F40583FF29
:103A600006C080E00E94AF04882309F48BC0109246
:103A7000F20588C08091EE05882309F483C0809107
:103A8000EF05882309F47EC080917D0C882309F519
:103A900085E10E949A0286E10E949A0240918B057C
:103AA00050918C0560918D0570918E058091C006B6
:103AB0009091C106A091C206B091C306481B590B54
:103AC0006A0B7B0B81E080937D0C82E00E9449129F
:103AD00059C080918B0590918C05A0918D05B09176
:103AE0008E05880F991FAA1FBB1F80938B0590938B
:103AF0008C05A0938D05B0938E058150904DA74005
:103B0000B04060F080E090EDA7E0B0E080938B05DE
:103B100090938C05A0938D05B0938E050E9468123A
:103B200031C08091EE05882369F18091EF058823EB
:103B300049F182E793E09F938F930E94DB3685E102
:103B40000E949A020F900F901DC08091E8058F7E11
:103B50008093E80582E10E949A0214C08091F205E8
:103B6000882381F080912A07882361F41092F2055E
:103B700084E00E94CA1306C021963996C630D1054A
:103B800009F023CF83E00E949A02DF91CF911F9129
:103B90000F91FF90EF90DF90CF90BF90AF9008957E
:103BA000EF92FF920F931F9380915406882361F543
:103BB00020919F0C3091A00C4091A10C5091A20C2F
:103BC000EFB7F894FF2760914607709147078091FF
:103BD000480790914907E0903E07F0903F07009119
:103BE0004007109141076E0D7F1D801F911FEFBF91
:103BF00020939F0C3093A00C4093A10C5093A20CE7
:103C0000109254060E942E090E9441050E94D51C64
:103C10001F910F91FF90EF900895AF92BF92CF92B6
:103C2000DF92EF92FF920F931F930E9441057B0159
:103C30008C010E9479028FEFA82E8FEFB82E8FEFA4
:103C4000C82E8FE7D82E60E0E1E1F8E0808581FFA3
:103C50001CC080819181A281B381A8019701281B9A
:103C6000390B4A0B5B0BDA01C9012481358146818E
:103C70005781281B390B4A0B5B0B2A153B054C055A
:103C80005D051CF459016A0161E0399638E0E734BA
:103C9000F307E1F66623D9F01A141B041C041D0473
:103CA0002CF0C801B7010E94D51C11C0A0929F0C36
:103CB000B092A00CC092A10CD092A20C81E0809393
:103CC0005406A6019501C801B7010E942E091F9153
:103CD0000F91FF90EF90DF90CF90BF90AF9008953D
:103CE0006F927F928F929F92AF92BF92CF92DF920C
:103CF000EF92FF920F931F93CF93DF938091FC0578
:103D0000882359F4CC24DD243FEFA32EB32E2FEFCC
:103D1000622E722E8824992495C08AE893E00E942E
:103D2000F23647C1C22FDD2793E0CC0FDD1F9A95F5
:103D3000E1F7C45AD94F8A819B819F938F938C81DD
:103D40009D819F938F93888199819F938F93809179
:103D50007705909178059F938F9384EA93E09F93E2
:103D60008F930E94DB362A813B818DB79EB70A96DE
:103D70000FB6F8949EBF0FBE8DBF9FEF2F3F390740
:103D800039F080912B0990912C092817390729F4D3
:103D900087EC93E00E94F23652C0888199810E949C
:103DA000E90E7C018C819D819F938F93FF92EF920E
:103DB000888199819F938F9384EE93E09F938F9353
:103DC0000E94DB360C811D810E0D1F1D8091890C18
:103DD00090918A0C9F938F931F930F9385E094E0AB
:103DE0009F938F930E94DB36EDB7FEB73E960FB6DA
:103DF000F894FEBF0FBEEDBF288139818091890CF8
:103E000090918A0C4F812817390771F48C819D811C
:103E100090938C0C80938B0C40938E0C86E294E0F4
:103E20000E94F23638010BC0442349F4F2E3EF1646
:103E3000F10428F40A151B0510F46E0158010894CA
:103E4000811C911C282D80910806881608F46ACFE1
:103E50008FEFA8168FEFB80609F498C09FEF691688
:103E60009FEF790691F080918E0C882341F080912C
:103E70008B0C90918C0C0A96A816B90630F0C501EF
:103E80000F968615970508F081C08091AB0C909134
:103E9000AC0CA091AD0CB091AE0C0196A11DB11D62
:103EA0008093AB0C9093AC0CA093AD0CB093AE0C84
:103EB00087E394E09F938F930E94DB368091890C77
:103EC00090918A0C0E94BB030F900F908F3F81F05E
:103ED000282F33278BE090E0289FF001299FF00DD9
:103EE000389FF00D1124EF55F84F8581877F85832A
:103EF000F601808191810E947005F6018081918197
:103F00000E94BB038F3F41F0EBE08E9FF001112434
:103F1000EF55F84F12861186F601808191819F93AB
:103F20008F938EE394E09F938F930E94DB36F6018C
:103F30008081918190938A0C8093890C84819581F2
:103F400090938C0C80938B0C878180938E0CC30193
:103F50008A199B090F900F900F900F904597B0F022
:103F600084E594E09F938F930E94DB3680E890E095
:103F7000A0E0B0E080938B0590938C05A0938D0515
:103F8000B0938E050E9468120F900F908091F105FA
:103F9000882369F4FFEF6F16FFEF7F0641F48FEF80
:103FA000A8168FEFB80619F082E10E949A021092CB
:103FB000F105DF91CF911F910F91FF90EF90DF906E
:103FC000CF90BF90AF909F908F907F906F9008950B
:103FD0001F93182F80919105882309F0DCC08091F0
:103FE000F605833009F0D7C01093F50580912A07B4
:103FF000853199F1813009F43FC0823009F44EC017
:10400000833009F455C0843009F45CC08F3009F462
:1040100077C0803109F47EC0813109F484C08231D7
:1040200009F48AC0833109F490C0843109F496C040
:104030000E948F0280E00E94D71180912A07E82F0A
:10404000FF27EF31F10508F0A6C0E057FF4FEE0F54
:10405000FF1F0590F491E02D0994112349F48091FC
:104060009205882309F097C02CEA36E046E00EC09E
:1040700083E28FC089E18DC0112371F48091920594
:10408000882309F088C02CEA36E041E063E570E05F
:1040900083E00E9450037FC084E27BC0112331F48F
:1040A00080919205882309F076C0EDCF8CE271C033
:1040B000112331F480919205882309F06CC0E3CF7D
:1040C0008DE267C0112331F480919205882309F0B5
:1040D00062C0D9CF8EE25DC0112331F48091920588
:1040E000882309F058C0CFCF8BE153C0112331F49E
:1040F00080919205882309F04EC0C5CF8CE149C05C
:10410000112331F480919205882309F044C0BBCF7C
:104110008EE13FC0112329F4809192058823D9F5BF
:10412000B2CF8DE136C0112329F480919205882306
:1041300091F5A9CF8FE12DC0112329F4809192052B
:10414000882349F511C080E224C0112329F480910D
:104150009205882301F508C081E21BC0112341F4B8
:10416000809192058823B9F42CEA36E042E08ECFA4
:1041700082E20FC086E20DC087E20BC085E209C073
:104180008AE107C088E205C089E203C08AE201C073
:104190008BE20E949A021F910895FF920F931F9342
:1041A000082FF42E8FB7F894482F55278091920549
:1041B000882311F04FBF93C04FBF8FB7F894482F9B
:1041C00055278091F705813041F582E08093F7050E
:1041D0004FBF8FB7F89499277093310760933007DA
:1041E0003093570620935606F092FA0500939C0DE3
:1041F00010929D0C1092F8058FBF0E9486028FB717
:10420000F894182F9091D408916C9F7E9093D408C5
:10421000202F332720FD0BC011C0882321F44FBF6E
:1042200084E090E066C04FBF85E090E062C090629D
:104230009093D40884E08093F70554C0FF2009F4DC
:1042400040C083E08093F70520919D0C4091FA05D2
:10425000241778F4E0915606F0915706E20FF11D0D
:1042600080818093BB002F5F20939D0C9093BC00B6
:104270003DC0292F2E7F2093D40880919C0D81FF73
:1042800007C08D7F80939C0D20612093D40803C0CC
:104290009E779093D4088091D4088093BC0081E0ED
:1042A0008093F705209156063091570660913007AC
:1042B00070913107809192058823C1F40E94E81F14
:1042C00015C021FF08C085E08093F7059F7B9061B2
:1042D0009093D40807C081E08093F7051FBF81E069
:1042E00090E007C08091D4088093BC001FBF80E09D
:1042F00090E01F910F91FF9008951F93182F0E9437
:1043000086028091D4088E7F8093D40880E00E943A
:1043100043038091D4088093BC000E94860281E010
:104320000E9443038091D4088093BC0081E0809375
:10433000F7058091F8052091560630915706409177
:10434000FA056091300770913107909192058823AA
:1043500031F0992349F4812F0E94131B05C0992342
:1043600019F4812F0E94E81F1F91089568E00E94B0
:10437000A503FC0187819927089568E00E94A503A1
:10438000FC0181819927089568E00E94A503FC0142
:1043900086819927089568E00E94A503FC01848125
:1043A0009927982F882725813327822B932B0895CF
:1043B000BF92CF92DF92EF92FF920F931F93CF9312
:1043C000DF937C01B090FB05D0908B07CC2428C0F4
:1043D0000D2D03701127C7010E94CB21E801CC0FDE
:1043E000DD1FCC0FDD1FC00FD11FC15CD94F28814D
:1043F00039818217930791F4C7010E94C4219A81E1
:10440000981761F4C7010E94BD219C81981731F46F
:10441000C7010E94B6219B81981721F0C394D394C1
:10442000CB14B1F68C2D9927DF91CF911F910F916D
:10443000FF90EF90DF90CF90BF9008950E94D82119
:1044400020E030E09091FB05891710F421E030E086
:10445000C901089568E00E94A503FC0184819927A1
:10446000982F882725813327822B932B089568E086
:104470000E94A503FC01868199270895AF92BF92FF
:10448000CF92DF92EF92FF921F93CF93DF935C0165
:10449000FC0182818823C9F4B092460DA092450D9B
:1044A0008281882309F096C01F921F928CE594E0C8
:1044B0009F938F930E94DB361092D0050E94A91320
:1044C0000F900F900F900F9085C0442309F47AC08D
:1044D000F501C080D1808091FB05843009F046C091
:1044E000C6010E94D8212091FB05622F0E943F3611
:1044F000492F9217D8F5992359F480918B07992762
:10450000019664E070E00E945F3680938B0729C0BB
:1045100080918B07840F912D911D9C012370307029
:10452000E901CC0FDD1FCC0FDD1FC20FD31F019699
:1045300064E070E00E945F36FC01EE0FFF1FEE0F9B
:10454000FF1FE80FF91FC15CD94FE15CF94F85E00F
:10455000019009928150E1F74F5F8091FB05481768
:10456000B8F28091FB0581508093FB051091FB050B
:1045700080918B07810F912D911D837090707C012C
:10458000EE0CFF1CEE0CFF1CE80EF91E8FE396E00C
:10459000E80EF91EC6010E94CB21F70191838083AA
:1045A000C6010E94C421F7018283C6010E94BD2179
:1045B000F7018483C6010E94B621F70183831F5F40
:1045C0001093FB05F501808191810E940C07C501C4
:1045D0000E942B07DF91CF911F91FF90EF90DF900A
:1045E000CF90BF90AF900895AF92BF92CF92DF92DD
:1045F000EF92FF920F931F93CF93DF937C01162FBF
:10460000E091E905FF27EE0FFF1FE35DF64FC08045
:10461000D1805C010894A11CB11CEC012696862F68
:1046200099279F938F9389819927982F8827F7013E
:1046300026813327822B932B9F938F9381EA95E0DA
:104640009F938F9388E694E09F938F938CE794E0F9
:104650009F938F930E94DB368DB79EB70A960FB655
:10466000F8949EBF0FBE8DBF112329F060E870E063
:1046700080E890E048C08091E80583FF56C0B7010C
:1046800080E00E94AF06882309F04FC089819927F6
:10469000182F0027F70186819927082B192BC801AD
:1046A0000E94BB03982F8F3F09F18BE0989FE00198
:1046B0001124CF55D84F8A858F5F8A878530B0F017
:1046C0001F930F9399279F938F9386E894E09F936E
:1046D0008F930E94DB36CE010E9499118DB79EB751
:1046E00006960FB6F8949EBF0FBE8DBF85E10E945F
:1046F0009A02F601838181508383882339F060E236
:1047000070E080E290E00E94601C52C00E94F106BE
:104710008091E8058F7E8093E80560E270E080E29A
:1047200090E00E94601C40E03FC00E94F106809132
:10473000E8058F7E8093E80560E270E080E290E01B
:104740000E94601CF50186819927982F8827258172
:104750003327822B932B0E94BB03982F8F3F19F195
:104760008BE0989FE0011124CF55D84F89858F5F4A
:1047700089878A858F5F8A8799279F938F9384EB98
:1047800094E09F938F930E94DB360F900F900F90D1
:104790000F908A85853038F086ED94E00E94F236DD
:1047A000CE010E94991141E0B701C6010E943E224C
:1047B000DF91CF911F910F91FF90EF90DF90CF90FD
:1047C000BF90AF9008950F931F9380913A0788236D
:1047D00091F110E001E020913A07822F802319F136
:1047E000E12FFF27EE0FFF1FED55F34F4081518161
:1047F00011821082802F8095282320933A0711235D
:1048000019F0113081F405C063E0CA010E94F4225E
:104810000FC0485F564061F48091F005882341F055
:104820001092F00505C01F5F183028F4000FD3CF99
:10483000000F1F5FD0CF1F910F910895AF92BF92CD
:10484000CF92DF92EF92FF920F931F93CF93DF935C
:10485000D82E5B01C42EE82FFF27EE0FFF1FED556A
:10486000F34F11821082809189059927019662E0A9
:1048700070E00E945F36682F8093890500E0462F24
:104880005527FA01EE0FFF1FED55F34FC081D1817F
:10489000209799F0E62FE695E695E695FF27E65CEA
:1048A000F84F808199279A012770307002C0959542
:1048B00087952A95E2F780FF0DC0CA01019662E054
:1048C00070E00E945F36682F0F5F0230C1F60093E0
:1048D00089051FC0609389056230D8F4E88083EFB2
:1048E000E80EFF240F811127102F00278E819927B2
:1048F000082B192BCE010E941F06FC012E2DAE01A4
:10490000B80180810E941C1A882319F084E10E945A
:104910009A02DD2021F081E0D81689F405C06C2DC3
:10492000C5010E94F4220BC088EFA81686E0B806E5
:1049300031F48091F005882311F01092F005DF9199
:10494000CF911F910F91FF90EF90DF90CF90BF908C
:10495000AF9008951F93CF93DF932FB7F894332729
:10496000809155068F5F809355062FBF4091C606F4
:10497000413081F58091D9088F5F8093D9088630C6
:1049800048F520910D0930910E098091C7068823C2
:10499000E1F490E08091D508882309F491E099230F
:1049A000A1F03093C5062093C4064093C70686E362
:1049B00091E00E94BB06AA27BB27BC01CD010E9443
:1049C000CF111092B70C83E02BC085E08093B70C19
:1049D00082E026C01092C6060E94DC191091B70C26
:1049E000C0910D09D0910E098A858F33E9F480E0DA
:1049F0000E94CF12CE010E941F068091890582304D
:104A000098F4E82FFF27EE0FFF1FED55F34F60815D
:104A100071816C177D0741F4412F0E941E2404C050
:104A20008093C6060E94DC19DF91CF911F910895F3
:104A300080918905E82FFF27EE0FFF1FED55F34FFB
:104A40006081718141E00E941E240895EF92FF92DF
:104A50000F931F93CF93DF931092F2050091800C78
:104A60001091810C80917A05882309F0CFC0809144
:104A7000790D8A3109F0CAC08091D005882309F0E8
:104A8000C5C0B8ECEB2EB6E0FB2E6EE0C7010E946D
:104A9000AC03EC011F930F938BEE94E09F938F93E5
:104AA0000E94DB360F900F900F900F90209709F423
:104AB000ADC08091CC059091CD058983892F992730
:104AC00088838091CE059091CF058B83892F99277C
:104AD0008A830D83812F99278C838091770590910C
:104AE00078058F83892F99278E838091890C9091E7
:104AF0008A0C2FEF8F3F920781F090938E0780935F
:104B00008D079F938F9384EF94E09F938F930E94E0
:104B1000DB360F900F900F900F9080918D07909142
:104B20008E079F938F9388E095E09F938F930E94C9
:104B3000DB3680918D0790918E078D87892F99277D
:104B40008C8782E89CE00E943E0F8091820C9091BD
:104B5000830C8987892F992788878C852D859927AC
:104B6000982F88273327822B932B0E94E90E8B875F
:104B7000892F99278A878091E8050F900F900F90D1
:104B80000F9081FF3AC083E28093C80668E0C701B6
:104B90000E94A503FC01809177059091780585839B
:104BA000892F99278483809104068F5F8093040660
:104BB000815086838EE187831182E091450DF091CB
:104BC000460D3097D1F0F182E08212828383CF01CB
:104BD0000E949004882389F48091E80582FF05C033
:104BE00084FD03C082E10E949A021092460D109249
:104BF000450D81E08093D00509C082E195E09F9347
:104C00008F930E94DB365D980F900F900E94A9133E
:104C1000DF91CF911F910F91FF90EF9008959F9298
:104C2000AF92BF92CF92DF92EF92FF920F931F93BA
:104C3000CF93DF93CDB7DEB722970FB6F894DEBFE0
:104C40000FBECDBF8091E80584FDFFC090E080914C
:104C5000EB05882309F491E0992309F0F6C08091CF
:104C6000FC05882359F420E08091890C90918A0CEE
:104C70008F5F9F4F09F021E0222331F0CE01019692
:104C80000E943E0F882341F040E157E260E070E06F
:104C900084E00E944912D9C0E091E905FF27EE0F98
:104CA000FF1FE35DF64FC080D180D6010D911C91AE
:104CB000C8010E944A07982EA090890CB0908A0CD7
:104CC000C8010E94D82120E09091FB05891708F4C3
:104CD00021E0222359F00E94F106F60180819181A2
:104CE0000E940C07C6010E942B07ACC08091FC05F6
:104CF000D601ED90FC90882309F441C068E0C7011B
:104D00000E94A503FC010781A0914A07B0914B07BF
:104D1000F7018FE201900D928150E1F7E0904A0790
:104D2000F0904B07C7010E944A070E31E9F4885002
:104D3000682F7727C7010E94AC03FC018081992767
:104D4000982F882721813327822B932B9F938F9332
:104D500085E193E09F938F930E94DB360E94A91315
:104D60000F900F900F900F90F0924B07E0924A0730
:104D700060E0D6018D919C910E94F42266C0098169
:104D80001A8168E0C7010E94A503FC010383012F7B
:104D90001127028368E0F601808191810E94A503BA
:104DA000FC0180818F738083D6014D915C91DA0183
:104DB0001196FD0121813327322F2227FA018181AB
:104DC00099278062282B392B2183232F3327FD013C
:104DD00021838091E80588608093E80580FF0FC0FB
:104DE00068E0D6018D919C910E94A503FC01808111
:104DF000806480838091E8058E7F8093E805F601CA
:104E000000811181F801A6828B2D99278783C80123
:104E10000E941F06FC0181E78083492DB80180E0D4
:104E20000E94C21A9927882331F48091E805806195
:104E30008093E8050AC0823041F4D601ED91FC91DF
:104E400089E2808382E10E949A0222960FB6F8944A
:104E5000DEBF0FBECDBFDF91CF911F910F91FF90AD
:104E6000EF90DF90CF90BF90AF909F9008951F93E9
:104E7000CF93DF931092D7051092D6058FB7F89491
:104E800099271091DA058FBF8091DB05811113E01E
:104E90002091D4053091D5058091DC058823A9F4B3
:104EA00080917B05882389F4C0919907D0919A0756
:104EB000C217D30751F410929A07109299070E94D3
:104EC000D507612FCE010E945313DF91CF911F911F
:104ED0000895EF920F931F938FB7F894992720911D
:104EE00055062F5F209355068FBF8091C6068823F5
:104EF00081F480915306882361F480915B078530AB
:104F000041F083E0809353060E94871885E08093E8
:104F1000C6060E94DC198091E80582608093E8054E
:104F20008FB7F894992720918305309184058FBF1E
:104F300030932C0920932B098091EF058823E9F405
:104F400081E08093EF0580E890E0A0E0B0E08093FE
:104F50008B0590938C05A0938D05B0938E050E94D0
:104F600068120E944105AB01BC01EE2400E010E292
:104F700020E030E083E00E942A121F910F91EF9011
:104F800008950F931F93CF93DF932FB7F894332790
:104F9000809158068093880582E08093E7052FBFB3
:104FA00080918805882331F58091590690915A06A1
:104FB0000E94F019082F11270023E1F080E00E94E1
:104FC000CF12C0915906D0915A06CE010E941F06F9
:104FD00080918905823070F4E82FFF27EE0FFF1FC4
:104FE000ED55F34F608171816C177D0719F4402FE7
:104FF0000E941E24DF91CF911F910F9108953F923F
:105000004F925F926F927F928F929F92AF92BF92D8
:10501000CF92DF92EF92FF920F931F93CF93DF9384
:10502000CDB7DEB722970FB6F894DEBF0FBECDBF67
:10503000E82FFF27E133F10510F00C943730E155EC
:10504000FF4FEE0FFF1F0590F491E02D09940E9491
:10505000DA1B0C9437300E9469270C9437300E9479
:10506000D01D0C9437300E940D1E0C9437300E94D6
:1050700063130C9437300E948E130C9437308FB723
:10508000F8941092780D20910C0940E0283009F432
:1050900041E030E0293009F431E0442311F43323B6
:1050A00051F010920C09E0911008FF27EE0FFF1F3E
:1050B000EB5AF84F108299278FBF442311F4332302
:1050C00031F19FB7F8948091B00C8F5F8093B00C52
:1050D00080914507833479F42091900780918F0760
:1050E000821779F0822F8F5F80939007863048F087
:1050F0001092900706C0A0E0442309F4A1E071E0FB
:1051000002C0A0E070E0892F99278FBF06C022233C
:1051100011F0FF246CC0A0E070E08FB7F8949927DD
:105120002091D1058FBF222341F08FB7F8949927A2
:105130002AE020930C098FBF42C08FB7F8949927BB
:1051400060915507409157078FBF8FB7F894282F6C
:10515000332750E090918F0780919007981709F4BA
:1051600051E02FBF552341F5662331F55FB7F89421
:1051700082E0809355078FB7F894282F332740E0BB
:1051800090918F0780919007981709F441E02FBF05
:10519000442311F080E006C0E0919007FF27E1571B
:1051A000F84F82818093560783E4809345071092DD
:1051B0001008852F99270EC04150423010F0FF246F
:1051C0000CC08FB7F894992725E42093450721E078
:1051D000209310088FBF01E0F02E772341F08FB7A6
:1051E000F8949927A093DA058FBF0E94C1028FB768
:1051F000F894082F112780910C098A3021F40E941D
:1052000001080FBF34C70FBFFF2009F430C72FB705
:10521000F894332710929B0D10929A0D10923B0731
:1052200081E080930C092FBF0E945408882309F461
:105230001EC78FB7F894992729E020930C098FBFD8
:105240000E94D30314C70E944B0211C70E94C602DA
:105250000EC78091C100877F8093C1008091C100FB
:105260008F7E8093C1008FEF8093790500C70E94E5
:105270003727FDC60E942902FAC60E948304F7C69A
:105280000E94C127F4C68091C6061092C6068530DA
:1052900009F03CC081E08093EE058091EF05882302
:1052A00011F00E9413068091E80584608093E80560
:1052B00090E08091EB05882309F491E0992311F4A3
:1052C0000E94D00210927A058FB7F8949927209106
:1052D00055062F5F209355068FBF8091C606882301
:1052E00091F480915306882371F48091790D8A316D
:1052F00051F08AE18093790D17E0109353060E94D4
:1053000087181093C6060E94DC19B1C6863041F496
:105310001092EE058091E8058B7F8093E805A7C683
:10532000873019F40E94F313A2C68093C6069FC665
:105330000E94AA249CC62FBF9AC681E08093F005E4
:105340008CE695E00E94F23692C68FB7F894282F2B
:1053500033278091770C882371F3E091AF0CFF27FE
:10536000EE0FFF1FE350FA4FC080D1802FBFF60130
:105370008285178106818F3309F0B6C2C6010E946B
:105380001F06FC01E081D6016D914D01812F992707
:10539000582F4427802F9927482B592B8FB7F894E3
:1053A000992720918305309184058FBF42175307B9
:1053B00021F04F5F5F4F09F051C6062F0D50E037C7
:1053C00021F0E13709F0AAC265C1F6018781268183
:1053D0009927982F88273327822B932B8F5F9F4FF6
:1053E00009F054C0C6010E94B3035C01F601818537
:1053F00020859927182F00273327022B132B0E9473
:10540000BB0EC8010E94BB038F3F21F0F5016181F3
:1054100077271DC00E946507F82EFFEF8F17D1F088
:10542000B8010E945407F50141812F2D33278BE0ED
:1054300090E0289FF001299FF00D389FF00D112476
:10544000EF55F84F4283F501618177278F2D0E9438
:10545000690F1CC081E40E947707F82EFFEF8F17B9
:10546000A9F0282F33278BE090E0289FF001299F97
:10547000F00D389FF00D1124EF55F84F8081918188
:105480000E947F1CB8018F2D0E945407C6010E9404
:10549000B512853009F042C2F40180852781992731
:1054A000F82EEE243327E22AF32AFF92EF9280911E
:1054B0007705909178059F938F9389E195E09F936D
:1054C0008F930E94DB3665E0C6010E9418068C01AE
:1054D00060E4C6010E94C007382E58010894A11C40
:1054E000B11CF801818125010894411C511CF50172
:1054F00021819927982F88273327822B932B2DB72B
:105500003EB72A5F3F4F0FB6F8943EBF0FBE2DBF88
:105510008F5F9F4F09F4B4C063E0862E912C800EFC
:10552000911EF801838154E0652E712C600E711E6E
:1055300024819927982F88273327822B932B892B17
:1055400049F5C7010E94BB038F3F09F50E9465071B
:105550008F3F11F0B70119C08AE00E947707182F1A
:105560008F3FA9F0282F33278BE090E0289FF00190
:10557000299FF00D389FF00D1124EF55F84F8081D1
:1055800091810E947F1CB701812F0E945407C7019F
:105590000E947005D4019C90F3018080D501BC90DD
:1055A000F201A080C7010E94E90E8C01C7010E9490
:1055B000A007482F8A30F1F1892D9927782F662787
:1055C000882D9927682B792B8B2D9927382F222707
:1055D0008A2D9927282B392B809108064817C9F462
:1055E0000233110538F5E42FFF27B3E0EE0FFF1F5C
:1055F000BA95E1F7E45AF94FF182E08233832283CE
:105600007583648381E0868317824F5F4093080629
:1056100011C0E42FFF27A3E0EE0FFF1FAA95E1F7CB
:10562000E45AF94FF182E0823383228375836483E5
:1056300081E0868380918A05882311F5C7010E9445
:10564000A007E82F80910806E81748F4FF2773E0C9
:10565000EE0FFF1F7A95E1F7E45AF94F37828091F8
:105660008E0C882311F0332049F08091890C9091A1
:105670008A0C8E159F0521F4332011F00E94CB0275
:1056800060E8C6010E94C007882309F447C10E9450
:10569000A61244C1C6010E94B621A82EC6010E94CE
:1056A000BD21182F1F5FC6010E94B7034C01FC01EA
:1056B00011830D3108F032C1C6010E941E228823D9
:1056C00009F02CC11091EB05812F9927B82E882362
:1056D00009F43FC0C6010E94CB213C010091E905BD
:1056E000010F0150BA940D3010F4E02F02C0E02FEA
:1056F000ED50FF27EE0FFF1FE35DF64F0190F081A5
:10570000E02DE080F180C7010E94CB21861597052E
:1057100009F0A8C4C7010E94C421182FC6010E9425
:10572000C421181709F09EC4C7010E94BD21182F7B
:10573000C6010E94BD21181709F094C4C7010E9438
:10574000B621182FC6010E94B621181709F08AC485
:10575000E5C08091FC05882399F0C6010E944F079F
:10576000182FFEE1AF1609F0D9C0682FC6010E94BC
:10577000AC03412FBC01C6010E94FF136C01CEC0D7
:105780002EE1A21631F488E395E00E94F2360E94E1
:10579000A91380E020915A07222309F481E088238D
:1057A00009F0BCC090915907992309F481E088233E
:1057B00009F0B4C0992309F4B1C08091B30CE82F6B
:1057C000FF27EE0FFF1FEE57F24F0081118111826C
:1057D00010829150909359078F5F8093B30C8C3057
:1057E00011F41092B30C0115110509F497C022238E
:1057F00009F494C080913807E82FFF27EE0FFF1FB0
:10580000ED5EF64FE080F1801182108221502093EE
:105810005A078F5F809338078C3011F41092380745
:10582000E114F10409F47AC08FE2D7011D928A9540
:10583000E9F7E8E2F0E0CE0EDF1E87E0D6011D9228
:105840008A95E9F7E8EDFFEFCE0EDF1ED801CD9285
:10585000DC928FEFF80182838EE18383C8010E947E
:105860009004882321F5CE0101960E943E0F8823E3
:10587000B1F4F401828123819927982F8827332757
:10588000822B932B29813A812817390740F00E94F7
:10589000A61260E870E080E890E00E94601C8091B1
:1058A0003D0881FD02C00E94D002670137C0C701D8
:1058B0000E940C07C8010E942B0730C0C6010E943D
:1058C000B703FC0180818078803811F40E94A61211
:1058D000C6010E94B6218E3109F580E595E00E944F
:1058E000F2360E94A9131AC0812F9927582F4427F6
:1058F000802F9927482B592B8FB7F89499272091FF
:105900008305309184058FBF4217530719F04F5F0D
:105910005F4F21F48FB7F89499278FBF9FB7F89402
:105920008091AF0CE82FFF27EE0FFF1FE350FA4FD7
:10593000D182C0828F5F8093AF0C833010F01092C1
:10594000AF0C8091770C81508093770C892F992729
:105950008FBFFBCC0E94CF1B8AC30E940F2687C338
:105960000E94E32384C30E94182581C30E94701EF5
:105970007EC38091F005882309F079C3E091420746
:10598000F091430710828091890C90918A0CE091EC
:105990004207F09143078283892F99278183809161
:1059A000FC05882329F080918B0C90918C0C20C0F1
:1059B0008091890C90918A0C00918B0C10918C0C29
:1059C0002FEF8F3F920781F4E0914207F091430758
:1059D0000483812F99278383E0914207F091430745
:1059E0008081806880830CC00E94E90E800F911F27
:1059F000E0914207F09143078483892F992783839D
:105A0000E0914207F09143078381448121816281C3
:105A10009927982F88275527842B952B9F938F9311
:105A20003327322F22277727262B372B3F932F938D
:105A300080917705909178059F938F9386E595E007
:105A40009F938F930E94DB3688EF96E00E94B3030A
:105A50006C0168E088EF96E00E94180675E0A72EBA
:105A6000B12CA80EB91EFF2440E000E010E08DB775
:105A70009EB708960FB6F8949EBF0FBE8DBF6BE021
:105A8000862E912C53E0E52E8091ED059927019605
:105A9000800F911F6AE070E00E945F369C01992799
:105AA000889DD001899DB00D989DB00D1124AF55F2
:105AB000B84FFD018581992780FF15C081FF13C074
:105AC0008D919C911197FE9CA00111244A0D5B1DA4
:105AD000FA018183892F99278083FD018681FA014C
